S01E00004750494F5F4C4544746F53575F496E746572727570742E73726563EA
S113000082C000009FC000009DC000009BC0000093
S113001099C0000097C0000095C0000093C0000084
S113002091C000008FC000008DC000008BC0000094
S113003089C0000087C0000085C0000083C00000A4
S113004081C000007FC000007DC000007BC00000B4
S113005079C0000077C0000094C3000073C00000A2
S113006071C0000038C400006DC000006BC0000007
S113007069C0000067C0000065C0000063C00000E4
S113008061C000005FC000005DC000005BC00000F4
S11300904EC4000057C0000055C0000053C000000B
S11300A051C000004FC000004DC000004BC0000014
S11300B049C0000047C0000045C0000043C0000024
S11300C041C000003FC000003DC000005CC400000F
S11300D039C0000037C0000035C0000033C0000044
S11300E031C000001A011F01240129012E0133012E
S11300F038016D017101750179017D01810185016D
S113010089018D01910111241FBECFEFD1E2DEBF21
S1130110CDBF00E00CBF14E0A0E0B2E0E4E2F1E106
S113012000E00BBF02C007900D92AA35B107D9F7C2
S113013028E0AAE5B4E001C01D92AB36B207E1F7AE
S11301402CD4EEC75DCF8AB180678AB98BB18F7822
S11301508BB98DB1806C8DB98EB18F738EB90895C2
S11301608295807F8BB98AE08A95F1F741E066E059
S11301708EE290E0DAD08AE08A95F1F740E066E01A
S11301808EE290E0D2D08AE08A95F1F708958295C4
S1130190807F8BB98AE08A95F1F741E067E08EE2CF
S11301A090E0C3D08AE08A95F1F740E067E08EE200
S11301B090E0BBD08AE08A95F1F7089587E0E7DF05
S11301C087E0CECF0895CF939FEF980F933220F01E
S11301D087E0DDDF81E00AC090E0019765E070E030
S11301E05AD4C62FBDDF8C2FD2DF80E0CF91089583
S11301F00F931F93CF93DF93662369F0EC01615053
S1130200062F10E00F5F1F4F080F191F8991DBDFC6
S1130210C017D107D9F7DF91CF911F910F9108959E
S113022090E08730910548F5FC018827EE58FF4F90
S11302308F4F66C465E080E693E0DACF089565E009
S113024085E693E0D5CF089565E08AE693E0D0CFC4
S1130250089565E08FE693E0CBCF089565E084E7E9
S113026093E0C6CF089565E089E793E0C1CF089590
S113027065E08EE793E0BCCF0895A0CF0895EF9298
S1130280FF920F931F93CF93DF937C01D0E096DF0F
S11302908D2F7DDF8701C0E0F80181918F018823D4
S11302A011F08C2F5DDFCF5FC530B1F7DF5FF5E074
S11302B0EF0EF11CD73059F7DF91CF911F910F91B9
S11302C0FF90EF90089590E08A30910568F5FC0165
S11302D08827E758FF4F8F4F13C48BE393E0CFCFAA
S11302E0089588E193E0CBCF089585EF92E0C7CFDE
S11302F0089582ED92E0C3CF08958FEA92E0BFCFD4
S113030008958CE892E0BBCF089589E692E0B7CFD8
S1130310089586E492E0B3CF089583E292E0AFCFEC
S1130320089580E092E0ABCF08954F3F61F4FC0163
S1130330408121E030E002C0220F331F6A95E2F7CA
S113034024272083089541110DC0FC01408121E040
S113035030E002C0220F331F6A95E2F72095242370
S11303602083089514165CF4FC01408121E030E000
S113037002C0220F331F6A95E2F7242B20830895CD
S1130380E1E0F1E080818C678083E2E0F1E080814C
S1130390837880839B9AA39808958FEF87B918B8C0
S11303A010920A01109209010895FC0183818130A1
S11303B031F4808191810196918380830895118223
S11303C010820895883009F491C050F4823009F401
S11303D03DC0843009F462C0813009F053C10FC0BC
S11303E0803209F4D3C020F4803109F4A7C0089501
S11303F0803409F4F3C0803809F418C108954FEF2C
S113040060E088E290E091DF1F9281E08F9383E8BF
S113041093E09F938F9386EE96E09F938F93A5D35B
S113042066EE76E080E045D266EE76E081E041D289
S113043010925A0489E080935E0310925F030F9038
S11304400F900F900F900F900F9008954FEF61E071
S113045088E290E06ADF1F9282E08F9387E993E05D
S11304609F938F9386EE96E09F938F937ED366EE51
S113047076E080E01ED266EE76E081E01AD2109239
S11304805A0489E080935E0381E080935F030F90B8
S11304900F900F900F900F900F9008954FEF62E020
S11304A088E290E042DF1F9284E08F938BEA93E02E
S11304B09F938F9386EE96E09F938F9356D366EE29
S11304C076E080E0F6D166EE76E081E0F2D110923B
S11304D05A0489E080935E0382E080935F030F9067
S11304E00F900F900F900F900F9008954FEF63E0CF
S11304F088E290E01ADF1F9288E08F938FEB93E0FD
S11305009F938F9386EE96E09F938F932ED366EE00
S113051076E080E0CED166EE76E081E0CAD110923A
S11305205A0489E080935E0383E080935F030F9015
S11305300F900F900F900F900F9008954FEF64E07D
S113054088E290E0F2DE1F9280E18F9383ED93E0E6
S11305509F938F9386EE96E09F938F9306D366EED8
S113056076E080E0A6D166EE76E081E0A2D110923A
S11305705A0489E080935E0384E080935F030F90C4
S11305800F900F900F900F900F9008954FEF65E02C
S113059088E290E0CADE1F9280E28F9387EE93E0B8
S11305A09F938F9386EE96E09F938F93DED266EEB1
S11305B076E080E07ED166EE76E081E07AD110923A
S11305C05A0489E080935E0385E080935F030F9073
S11305D00F900F900F900F900F9008954FEF66E0DB
S11305E088E290E0A2DE1F9280E48F938BEF93E089
S11305F09F938F9386EE96E09F938F93B6D266EE89
S113060076E080E056D166EE76E081E052D1109239
S11306105A0489E080935E0386E080935F030F9021
S11306200F900F900F900F900F9008954FEF67E089
S113063088E290E07ADE1F9280E88F938FE094E066
S11306409F938F9386EE96E09F938F938ED266EE60
S113065076E080E02ED166EE76E081E02AD181E07A
S113066080935A0480915E030F900F900F900F9027
S11306700F900F90893018F010925E0308958F5FE9
S113068080935E030895CF93DF93FC018091090169
S11306908483882349F09381911112C091E093835C
S11306A01182108285830CC0EF018081918144976F
S11306B08C30934010F4858185DE198218821B8268
S11306C0DF91CF910895CF92DF92EF92FF920F9333
S11306D01F93CF93DF93EA014330510599F038F427
S11306E04130510559F04230510551F011C04430A8
S11306F0510551F04530510549F00AC011E009C0D7
S113070012E007C013E005C014E003C015E001C007
S113071010E0D9019B01AC01FBD128EE33E040E0AD
S113072050E0CCD180ED97E0C89F6001C99FD00C08
S1130730D89FD00C1124E12CF12CCA01B901A701D6
S11307409601BCD1215014BC15BC82E584BD812F17
S1130750877085BD16BC011105C082E080936E00D0
S113076027BD06C0013021F484E080936E0027BDCC
S1130770DF91CF911F910F91FF90EF90DF90CF9079
S113078008951F920F920FB60F9211240BB60F9279
S11307902F933F934F935F936F937F938F939F9385
S11307A0AF93BF93EF93FF938BE594E0FEDDFF914E
S11307B0EF91BF91AF919F918F917F916F915F91D5
S11307C04F913F912F910F900BBE0F900FBE0F9042
S11307D01F901895811119C01092C00088E1809370
S11307E0C100613029F4E1ECF0E08081806880830D
S11307F0E2ECF0E086E0808380818F738083109246
S1130800C50087E08093C40008958130C9F4109234
S1130810C80088E18093C900613029F4E9ECF0E074
S1130820808180688083EAECF0E086E080838081C8
S11308308F7380831092CD0087E08093CC0008955D
S11308408230C1F41092D00088E18093D1006130ED
S113085029F4E1EDF0E0808180688083E2EDF0E04E
S113086086E0808380818F7380831092D50087E037
S11308708093D4000895811108C0E0ECF0E08081F9
S113088085FFFDCF6093C6000895813041F4E8EC04
S1130890F0E0808185FFFDCF6093CE000895823023
S11308A039F4E0EDF0E0808185FFFDCF6093D60060
S11308B008951F93CF93DF93EB016881662339F08A
S11308C0182F2196812FD7DF69916111FBCFDF911A
S11308D0CF911F9108951F920F920FB60F9211247A
S11308E00BB60F922F933F934F935F936F937F9326
S11308F08F939F93AF93BF93EF93FF936091C60041
S11309006093660781E0B7DFFF91EF91BF91AF91EC
S11309109F918F917F916F915F914F913F912F9113
S11309200F900BBE0F900FBE0F901F9018951F9243
S11309300F920FB60F9211240BB60F922F933F9381
S11309404F935F936F937F938F939F93AF93BF93D3
S1130950EF93FF936091CE006093610580E08BDF9D
S1130960FF91EF91BF91AF919F918F917F916F9183
S11309705F914F913F912F910F900BBE0F900FBE3F
S11309800F901F9018951F920F920FB60F9211247B
S11309900F900FBE0F901F901895F2DCFEDCD3DB96
S11309A00DDC01E024EC39E044E050E060E070E06C
S11309B081EE90E088DE61E080E00CDF61E081E0C0
S11309C009DF85E092E0E6E6F6E0DF019C011D9296
S11309D021503040E1F7E1E6F4E0DF019C011D9293
S11309E021503040E1F7C0E04FEF6C2F88E290E0F7
S11309F09CDC3FEF8FE794E0315080409040E1F77A
S1130A0000C00000CF5FC83079F7C0E04FEF6C2F13
S1130A1088E290E08ADCAFEFBFE724E0A150B04069
S1130A202040E1F700C00000CF5FC83079F763E2EF
S1130A3074E080E03EDF63E274E081E03ADF3FEFA0
S1130A408FEF98E0315080409040E1F700C0000003
S1130A5065E374E080E02DDF67E474E081E029DF82
S1130A60AFEFBFEF28E0A150B0402040E1F700C055
S1130A70000078948BE594E006DE80915A0481119D
S1130A8004C080915F03CCDBF5CF813099F780916E
S1130A905E0319DCEFCF97FB072E16F4009406D003
S1130AA077FD08D03FD007FC05D03EF490958195A2
S1130AB09F4F0895709561957F4F0895A1E21A2E76
S1130AC0AA1BBB1BFD010DC0AA1FBB1FEE1FFF1FEE
S1130AD0A217B307E407F50720F0A21BB30BE40B3E
S1130AE0F50B661F771F881F991F1A9469F7609585
S1130AF07095809590959B01AC01BD01CF0108953F
S1130B00EE0FFF1F881F8BBF0790F691E02D1994FD
S1130B101DD0A59F900DB49F900DA49F800D911D95
S1130B2011240895AA1BBB1B51E107C0AA1FBB1FB8
S1130B30A617B70710F0A61BB70B881F991F5A9565
S1130B40A9F780959095BC01CD010895A29FB001AD
S1130B50B39FC001A39F700D811D1124911DB29FED
S1130B60700D811D1124911D08950F931F93CF9330
S1130B70DF93CDB7DEB72E970FB6F894DEBF0FBE66
S1130B80CDBF0E891F8986E08C831A8309838FEF7A
S1130B909FE79E838D83AE01465E5F4F688D798D9E
S1130BA0CE01019610D0EF81F885E00FF11F10827D
S1130BB02E960FB6F894DEBF0FBECDBFDF91CF9156
S1130BC01F910F9108952F923F924F925F926F92CF
S1130BD07F928F929F92AF92BF92CF92DF92EF92C9
S1130BE0FF920F931F93CF93DF93CDB7DEB72B976D
S1130BF00FB6F894DEBF0FBECDBF6C017B018A0136
S1130C00FC0117821682838181FFBFC1CE01019648
S1130C103C01F6019381F70193FD859193FF819146
S1130C207F01882309F4ADC1853239F493FD8591A0
S1130C3093FF81917F01853221F4B60190E0D6D1F2
S1130C40E8CF912C212C312CFFE1F315D8F08B3215
S1130C5079F038F4803279F08332A1F4232D2061C5
S1130C601DC08D3261F0803369F4232D216016C0DC
S1130C70832D8260382EE32DE4603E2E2AC0F32DAE
S1130C80F8601DC037FC2DC020ED280F2A3040F03D
S1130C908E32B9F436FC75C1232D2064322E19C06E
S1130CA036FE06C08AE0989E200D1124922E11C0B3
S1130CB0EAE02E9E200D1124222EF32DF0623F2E09
S1130CC008C08C3621F4832D8068382E02C0883603
S1130CD041F4F70193FD859193FF81917F01811187
S1130CE0B3CF982F9F7D9554933028F40C5F1F4FFA
S1130CF09FE399830DC0833631F0833771F08335D8
S1130D0009F055C020C0F801808189830E5F1F4F10
S1130D1088248394912C530112C02801F2E04F0ED1
S1130D20511CF801A080B18036FE03C0692D70E02B
S1130D3002C06FEF7FEFC5014ED14C018201F32D4C
S1130D40FF773F2E15C0280122E0420E511CF80106
S1130D50A080B18036FE03C0692D70E002C06FEF41
S1130D607FEFC5012DD14C01F32DF0683F2E820198
S1130D7033FC19C0822D90E088169906A0F4B601C0
S1130D8080E290E033D12A94F5CFF50137FC8591C8
S1130D9037FE81915F01B60190E028D121102A9499
S1130DA021E0821A91088114910479F7E1C0843614
S1130DB011F0893639F5F80137FE07C06081718179
S1130DC0828193810C5F1F4F08C060817181072E5F
S1130DD0000C880B990B0E5F1F4FF32DFF763F2EEF
S1130DE097FF09C090958095709561957F4F8F4FBF
S1130DF09F4FF0683F2E2AE030E0A30133D1882EC4
S1130E00861844C0853731F4232D2F7EB22E2AE074
S1130E1030E025C0932D997FB92E8F36C1F018F498
S1130E20883579F0AEC0803719F0883721F0A9C031
S1130E30E92FE061BE2EB4FE0DC0FB2DF460BF2E81
S1130E4009C034FE0AC0292F2660B22E06C028E04D
S1130E5030E005C020E130E002C020E132E0F801DA
S1130E60B7FE07C060817181828193810C5F1F4F3F
S1130E7006C06081718180E090E00E5F1F4FA30186
S1130E80F1D0882E8618FB2DFF773F2E36FE0DC03D
S1130E90232D2E7FA22E891458F434FE0BC032FC6D
S1130EA009C0832D8E7EA82E05C0B82CA32C03C0A8
S1130EB0B82C01C0B92CA4FE0FC0FE01E80DF11D31
S1130EC08081803321F49A2D997EA92E09C0A2FE37
S1130ED006C0B394B39404C08A2D867809F0B39401
S1130EE0A3FC10C0A0FE06C0B21480F4280C922CFF
S1130EF09B180DC0B21458F4B60180E290E076D08D
S1130F00B394F8CFB21418F42B1802C0982C212CE7
S1130F10A4FE0FC0B60180E390E068D0A2FE16C024
S1130F20A1FC03C088E790E002C088E590E0B60128
S1130F300CC08A2D867851F0A1FE02C08BE201C05C
S1130F4080E2A7FC8DE2B60190E050D0891430F421
S1130F50B60180E390E04AD09A94F8CF8A94F301E2
S1130F60E80DF11D8081B60190E040D08110F6CFEC
S1130F70222009F44ECEB60180E290E037D02A94C4
S1130F80F7CFF6018681978102C08FEF9FEF2B96F2
S1130F900FB6F894DEBF0FBECDBFDF91CF911F9186
S1130FA00F91FF90EF90DF90CF90BF90AF909F9004
S1130FB08F907F906F905F904F903F902F90089507
S1130FC0FC010590615070400110D8F78095909510
S1130FD08E0F9F1F0895FC01615070400190011015
S1130FE0D8F7809590958E0F9F1F08950F931F93A8
S1130FF0CF93DF93FB01238121FD03C08FEF9FEF8C
S11310002CC022FF16C046815781248135814217A6
S1131010530744F4A081B1819D012F5F3F4F318379
S113102020838C93268137812F5F3F4F378326831C
S113103014C08B01EC01FB010084F185E02D1995AE
S1131040892BE1F6D80116968D919C9117970196FC
S113105017969C938E931697CE01DF91CF911F9193
S11310600F910895FA01AA27283051F1203181F116
S1131070E8946F936E7F6E5F7F4F8F4F9F4FAF4F9C
S1131080B1E03ED0B4E03CD0670F781F891F9A1FAF
S1131090A11D680F791F8A1F911DA11D6A0F711D63
S11310A0811D911DA11D20D009F468943F912AE06F
S11310B0269F11243019305D3193DEF6CF01089557
S11310C0462F4770405D4193B3E00FD0C9F7F6CF88
S11310D0462F4F70405D4A3318F0495D31FD405250
S11310E0419302D0A9F7EACFB4E0A69597958795E6
S11310F077956795BA95C9F70097610571050895C5
S11311009B01AC010A2E0694579547953795279570
S1131110BA95C9F7620F731F841F951FA01D089508
S1071120F894FFCF6D
S113112401010101010100000001010000000101AD
S1131134010101010000000001000000000101019F
S1131144010101010101010101000000010100008C
S1131154000101010101010100000001010000007E
S1131164010101010101010101010101000000016A
S11311740100000001000000000100000000010063
S1131184000000010000000001010101010101004F
S11311940000000100000000010101010101000040
S11311A4000101000000010101010101010101012B
S11311B4010100000000010000000001010101011F
S11311C4000000000100000000010101010101010F
S11311D40000000101000000010100000001010100
S11311E401010100000000010000000001000000F2
S11311F400010101010101000000000100000000E0
S113120401010101010100000000010000000001CE
S113121401010101010101010101000000000100BB
S113122400000001010101010101000000000100AE
S1131234000000010101010100000100000001019E
S11312440000000001000000000100000000010093
S1131254000000010000000101010000010101007F
S1131264010000000101000000010100000001016F
S1131274000000010100000001000101010009FF58
S11312840102030405060708090A0B0C0D0E0F10CE
S11312941112131415161718191A1B1C1D1E1F20BE
S11312A42122235357302050555348203A20307874
S11312B4253032780D0A00535731205055534820B5
S11312C43A203078253032780D0A005357322050B2
S11312D4555348203A203078253032780D0A00538B
S11312E457332050555348203A20307825303278EB
S11312F40D0A005357342050555348203A2030786F
S1131304253032780D0A0053573520505553482060
S11313143A203078253032780D0A0053573620505D
S1131324555348203A203078253032780D0A00533A
S113133457372050555348203A2030782530327896
S11313440D0A0048656C6C6F204D756C74692D4DE5
S113135443550D0A004D435520426F617264205574
S1131364415254300D0A004261736520426F617228
S10D1374642055415254310D0A0063
S9030000FC
