:020000040800F2
:1000000000070020DD01000813190008B1170008DF
:10001000111900086B050008D91C00080000000039
:100020000000000000000000000000001719000898
:100030006D050008000000001519000819190008D6
:10004000F7010008F7010008F7010008F7010008B0
:10005000F7010008F7010008F7010008F7010008A0
:10006000F7010008F7010008F7010008F701000890
:10007000F7010008F7010008F7010008F701000880
:10008000F7010008F7010008F7010008F701000870
:10009000F7010008F7010008F7010008F701000860
:1000A000F7010008F7010008F7010008F701000850
:1000B000F70100087D190008F7010008F7010008A2
:1000C000F7010008F7010008F7010008F701000830
:1000D000F7010008CD1C0008F7010008F70100082F
:1000E0006F050008F7010008F7010008F701000894
:1000F000F7010008F7010008F7010008F701000800
:10010000F7010008F7010008F7010008F7010008EF
:10011000F7010008F7010008F7010008F7010008DF
:10012000F7010008F7010008F7010008F7010008CF
:1001300000F002F800F042F80AA090E8000C8244B7
:100140008344AAF10107DA4501D100F037F8AFF294
:10015000090EBAE80F0013F0010F18BFFB1A43F0A5
:1001600001031847D01C0000F01C0000103A24BF07
:1001700078C878C1FAD8520724BF30C830C144BF0C
:1001800004680C607047000000230024002500264E
:10019000103A28BF78C1FBD8520728BF30C148BFEA
:1001A0000B607047642900F0A380732900F071810F
:1001B000002070471FB51FBD10B510BD00F09CF9A1
:1001C0001146FFF7F7FF01F0A5FD00F0BAF903B4FF
:1001D000FFF7F2FF03BC00F0C1F9000009488047B7
:1001E00009480047FEE7FEE7FEE7FEE7FEE7FEE719
:1001F000FEE7FEE7FEE7FEE704480549054A064B31
:10020000704700007B190008310100080001002040
:100210000007002000030020000300200FB4044961
:1002200010B503AA029800F039F910BC5DF814FB70
:10023000000000202DE9F0410E4604460020206217
:100240002046E168884730B3252805D0D4E901214C
:100250009047206A401CF2E7E16820460027884763
:10026000050018D0A5F14100192802D820354FF417
:1002700000673246294620462760FFF793FF40B1CA
:10028000012804D0F61D26F007060836D8E7361DEB
:10029000D6E72846DAE7206ABDE8F08170B50C465B
:1002A0000546012A05D02878800600D5EA69002392
:1002B00002E0012305E05B1C934202D2E05C0028CF
:1002C000F9D1A869E618C01AA861286A18442862FA
:1002D0002846AFF3008004E0D5E9012114F8010BB2
:1002E0009047B442F8D32846AFF3008070BD0000B9
:1002F0002DE9F0410646002410687529314616A5FF
:1003000010D0AFF30080002802DA404213A507E0C6
:1003100031688A0701D512A502E0490704D511A565
:10032000012401E0AFF3008000210A2206F1240736
:1003300009E0B0FBF2FCB0FBF2F302FB1C00303032
:1003400078541846491C0028F3D123462A463046E3
:10035000BDE8F04100F032B8000000002D000000C0
:100360002B000000200000004FF0000200B51346F3
:1003700094469646203922BFA0E80C50A0E80C50C5
:10038000B1F12001BFF4F7AF090728BFA0E80C5076
:1003900048BF0CC05DF804EB890028BF40F8042B6F
:1003A00008BF704748BF20F8022B11F0804F18BFDC
:1003B00000F8012B70477047704770472DE9F047F0
:1003C0000D4699469246044600F1240801688806C5
:1003D00004D5E06921F01001216000E00120A8426D
:1003E00001DD471B00E00027A1697A1902EB090033
:1003F000081AA0612078C00602D42046AFF300801E
:10040000002608E0D4E901211AF806009047206A86
:10041000401C761C20624E45F4DB2078C0060AD5CD
:100420002046AFF3008006E0D4E901213020904758
:10043000206A401C2062381EA7F10107F4DC07E0A7
:10044000D4E9012118F805009047206A401C206279
:10045000281EA5F10105F3DC2046AFF300802078CB
:10046000000602D50220BDE8F0870120FBE710B5A9
:10047000436913B1AFF3008001E0FFF70FFF0120E4
:1004800010BD127800F124010A7000224A70012286
:10049000EDE711684FF0FF32E9E70000074B70B558
:1004A0000D467B4400F011F80446284600F020F881
:1004B00010B14FF0FF3070BD204670BD57180000DE
:1004C00001694A1C02610878704700B58FB0CDE918
:1004D00001310021059105497944CDE90310114608
:1004E0006846FFF7A7FE0FB000BD0000E5FFFFFF65
:1004F000007B00F080007047754600F02BF8AE4698
:1005000005006946534620F00700854618B020B51F
:10051000FFF772FEBDE820404FF000064FF00007E5
:100520004FF000084FF0000B21F00701AC46ACE89B
:10053000C009ACE8C009ACE8C009ACE8C0098D4608
:10054000704710B50446AFF300802046BDE8104068
:10055000FFF73DBE00487047A00000200149182069
:10056000ABBEFEE7260002007047FEE770474FF47F
:10057000004000F0E1B810B590F8211000220229E7
:1005800005D00421816380F82020012010BD01687E
:100590000B6823F00E030B6001680B6823F0010366
:1005A0000B6090F84030C46B012101FA03F36360E3
:1005B00080F8211080F82020104610BD2DE9F05F52
:1005C00090F821100024022903D004218163012422
:1005D00085E001680A6822F00E020A6001680A6874
:1005E00022F001020A603F4E3E4FB215DFF8F4C020
:1005F000DFF8F090DFF8ECA0DFF8E8B0DFF8E4E037
:100600000168783F13011502ACF1640CA9F150099F
:10061000AAF13C0AABF1280BAEF1140E4FF480188E
:10062000B14227D9B9420ED0614512D049451DD0FB
:10063000514518D0594518D0714501D1424615E0B1
:10064000294EB14201D1012210E0274E1436B142A9
:1006500001D110220AE0244E2836B14206D0224AA7
:100660003C32914201D11A4600E02A461E49091F38
:100670000A602BE0B94213D0614517D0494522D01A
:1006800051451DD059451DD0714501D142461AE052
:10069000B14202D14FF0807215E0134EB14201D148
:1006A000012210E0104E1436B14201D110220AE0AE
:1006B0000D4E2836B14206D00B4A3C32914201D150
:1006C0001A4600E02A46074980394A60012180F82D
:1006D0002110002180F82010416B01B1884720468D
:1006E000BDE8F09F800002400804024010B5B0F55C
:1006F000004F0BD14FF40061054800F025F9BDE82B
:10070000104040F2251103A0FFF788BD10BD000086
:10071000002001400A0D204C494E45203A20256416
:10072000202045787420496E747465727570742148
:1007300021210A0D00000000044910B50A68024298
:1007400002D00860FFF7D2FF10BD00001404014082
:100750002DE9F84FDFF8C891002409F1040A0AF1E5
:10076000040B23460F270BF1040ED1E00125A54011
:1007700006EA0502AA4276D1DFF8A8C14E68A6EBC8
:100780000C0866452BD00DDC032E34D005DC36B3C7
:10079000012E19D0022E2FD11BE0112E16D0122EB1
:1007A0002AD119E0B8F5881F19D006DCB8F5803FCA
:1007B00015D0B8F5801F1FD111E0B8F5001F0ED07D
:1007C000B8F5041F18D10AE0CB6815E0CB681B1DF3
:1007D00012E0CB6808330FE0CB680C330CE08B6879
:1007E0002BB1012B4FF0080303D0456104E0042333
:1007F00002E0056100E00023FF2A01D8064601E07F
:1008000000F104064FEA840501D9A5F12005D6F8C8
:10081000008007FA05FC28EA0C0803FA05F548EA07
:100820000508C6F800804D68ED0070D53E4DAE69F4
:1008300046F00106AE61AD6924F0030605F001053E
:1008400000953A4D06EB050CDCF80850A607360F6C
:1008500007FA06F825EA0805DFF8D480404503D1F9
:100860004FF0000825E052E0DFF8C880404502D193
:100870004FF001081DE0DFF8C080404502D14FF085
:10088000020816E0DFF8B480404502D14FF00308BB
:100890000FE0DFF8AC80404502D14FF0040808E0DB
:1008A000DFF8A080404502D14FF0050801E04FF08D
:1008B000060808FA06F848EA0508CCF808804D68EA
:1008C000D9F80060ED034D4601D5164300E096438C
:1008D0002E604D68DAF80060AD03554601D5164329
:1008E00000E096432E604D68DBF80060ED025D4647
:1008F00001D5164300E096432E604D68DEF8006097
:10090000AD02754601D5164300E096432E60641C87
:100910000A681646E2407FF429AFBDE8F88F000070
:1009200000040140000011100010024000000140CE
:1009300000080140000C014000100140001401407B
:1009400000180140001C0140C26821EA02030A406D
:1009500043EA0241016170470AB10161704709042D
:10096000FBE7000001488068704700000400002099
:1009700002488168027811448160704704000020B9
:10098000074810B5016841F010010160032000F034
:1009900075F8002000F006F800F024F8002010BDE3
:1009A0000020024070B50D4D04464FF47A7128784E
:1009B000B1FBF0F00A490968B1FBF0F000F0ECFA85
:1009C00048B9102C07D200222146501E00F036F8FC
:1009D00000206C6070BD012070BD0000040000208C
:1009E000100000200C4808B5816941F001018161C7
:1009F000816901F001010091C16941F08051C1613B
:100A0000C06900F0805000900448416821F0E06126
:100A100041F00071416008BD00100240000001403B
:100A2000002809DB00F01F020121914040098000ED
:100A300000F1E020C0F8001170470000F0B40E4B48
:100A40001B680C46C3F30223C3F10705042D00D92C
:100A50000425191D072901D2002300E0DB1E012611
:100A600006FA05F1491E214099409E40761E164027
:100A70003143F0BC01F031B90CED00E0064900F063
:100A8000070208684FF6FF03184040EA0220034AB5
:100A900010430860704700000CED00E00000FA050C
:100AA0002DE9F0470F46050061D0434E306800F055
:100AB0000700B84209D2306820F0070038433060A0
:100AC000306800F00700B84251D128683B4C8107DC
:100AD00012D5400703D5606840F4E0606060287874
:100AE000000703D5606840F4605060606068A968E2
:100AF00020F0F000084360602878C00728D06868BC
:100B0000012810D02168022810D0890700292EDA88
:100B1000616821F0030101436160FFF723FF804614
:100B200041F288390DE021688903EFE78901EDE79B
:100B3000FFF718FFA0EB0801494502D90320BDE8E3
:100B4000F0876068696800F00C00B0EB810FEFD1AE
:100B5000306800F00700B8420BD9306820F0070079
:100B600038433060306800F00700B84201D00120FF
:100B7000E5E72878400705D56068E96820F4E0607B
:100B8000084360602878000706D56068296920F46A
:100B9000605040EAC100606000F038F86168084ABF
:100BA000C1F30311515CC84006490860064800685B
:100BB000FFF7F8FE0020C2E70020024000100240CC
:100BC000CC1D000810000020080000200448054942
:100BD00000684968044AC1F30221515CC84070476B
:100BE0001000002000100240DC1D000804480549E8
:100BF00000684968044AC1F3C221515CC84070478B
:100C00001000002000100240DC1D000812A185B079
:100C10000FC98DE80F0014A0144A006804905168B1
:100C2000134801F00C03042B10D0082B0ED1C1F394
:100C30008343C9031DF803000AD5516804AAC1F310
:100C40004041515C0A4A5043B0FBF1F005B0704797
:100C500008494843FAE700000203040506070809AB
:100C60000A0B0C0D0E0F10100102000000100240C4
:100C700000127A0000093D002DE9F84F040070D001
:100C80002078C04DC00749D06868C0F381000128B2
:100C900007D06868C0F38100022809D16868C003E2
:100CA00006D52868800339D560680028E7D035E08C
:100CB0006068B0F5803F0BD010B1B0F5A02F11D017
:100CC000286820F480302860286820F4802002E022
:100CD000286840F480302860606890B1FFF742FED9
:100CE00006460AE0286840F480202860F0E700BF4C
:100CF000FFF738FE801B642873D828688003F7D577
:100D00000CE0FFF72FFE064605E000BFFFF72AFEC6
:100D1000801B6428F0D828688003F7D420789A4E86
:100D200080074FF001094FF0000839D5686810F0CE
:100D30000C0F07D06868C0F38100022809D16868E9
:100D4000C00306D42868800714D52069012808D17B
:100D500010E02069B0B1C6F80090FFF703FE074627
:100D600005E00AE1FFF7FEFDC01B0228C4D8286891
:100D70008007F7D52868616920F0F80040EAC100D3
:100D800028600DE0C6F80080FFF7ECFD074604E0A0
:100D9000FFF7E8FDC01B022823D828688007F7D496
:100DA000207800072CD57948A169D9B1C0F8009006
:100DB000FFF7D8FD074604E0FFF7D4FDC01B02286B
:100DC0000FD8686A8007F7D571484FF4FA51006868
:100DD000B0FBF1F0009000BF0098411E0091FAD2E4
:100DE0000EE080E0C0F80080FFF7BCFD074604E09D
:100DF000FFF7B8FDC01B022875D8686A8007F7D4D2
:100E00002078400760D5E8690027C00008D4E86969
:100E100040F08050E861E869012700F080500090C0
:100E20005C480168C90513D40168834641F48071A8
:100E30000160FFF797FD824606E000BFFFF792FDD5
:100E4000A0EB0A0064284ED8DBF80000C005F5D5F9
:100E5000E06801280AD008B1052813D0286A20F0DC
:100E600001002862286A20F0040002E0286A40F0AD
:100E700001002862E06841F2883B98B1FFF772FDFB
:100E800082460BE0286A40F004002862EEE700BFCB
:100E9000FFF768FDA0EB0A0159455AD8286A800778
:100EA000F6D50CE0FFF75EFD824605E0FFF75AFD40
:100EB000A0EB0A0159454CD8286A8007F6D41FB127
:100EC000E86920F08050E861E06988B36968C1F39F
:100ED0008101022944D00228C6F8608004D0FFF7BF
:100EE00041FD044638E034E0FFF73CFD074604E0EE
:100EF000FFF738FDC01B02282BD828688001F7D4E3
:100F0000206AB0F5803F05D16868A16820F4003000
:100F100008436860D4E908010843696821F4741142
:100F200008436860C6F86090FFF71CFD044606E0C1
:100F300025E000BFFFF716FD001B022809D828682E
:100F40008001F7D51BE000BFFFF70CFD001B022856
:100F500002D90320BDE8F88F28688001F4D40EE0A0
:100F60000128F7D06868226A00F48031914204D1E8
:100F7000616A00F47010884201D00120EAE7002085
:100F8000E8E70000001002400000424280044242B4
:100F9000100000200070004010B5401EB0F1807FAE
:100FA00001D3012010BD4FF0E02460610F216017D4
:100FB00000F093FE0020A06107202061002010BDFA
:100FC0007047704770B590F83C20012A32D0012458
:100FD00080F83C40022280F83D2003685A689D68F2
:100FE00022F070060A6832435A60134B02689A4234
:100FF00014D0124B9A4211D0B2F1804F0ED0104B48
:101000009A420BD00F4B9A4208D00F4B9A4205D010
:101010000E4B9A4202D00E4B9A4204D1496825F0F9
:1010200080031943916080F83D40002180F83C1016
:10103000084670BD022070BD002C01400034014004
:101040000004004000080040000C0040004C01403B
:101050000018004010B5040003D094F83D0010B112
:1010600007E0012010BD002084F83C00204600F07D
:101070001FF8022084F83D00211D206800F084FC48
:10108000012084F8460084F83E0084F83F0084F88C
:10109000400084F8410084F8420084F8430084F85A
:1010A000440084F8450084F83D00002010BD000095
:1010B00008B500680B49884212D10B48C16941F05C
:1010C0000201C161C069002200F0020000901146D7
:1010D0001D20FFF7B3FCBDE808401D20FFF7A0BCB2
:1010E00008BD0000000400400010024090F83D10D0
:1010F000012901D001207047022180F83D100168CC
:10110000CA6842F00102CA6000681149884214D0DE
:101110001049884211D0B0F1804F0ED00E4988425C
:101120000BD00E49884208D00D49884205D00D49A0
:10113000884202D00C49884204D1816801F007013D
:10114000062903D0016841F00101016000207047C9
:10115000002C014000340140000400400008004021
:10116000000C0040004C01400018004070B50446DF
:1011700090F83C00012817D0012584F83C5002204B
:1011800084F83D002068826822F0770222F47F42D2
:1011900082600868502830D00DDC20284DD005DC56
:1011A00098B310283BD148E0022070BD302844D0CD
:1011B000402834D139E0602828D0702806D0B0F516
:1011C000805F2CD0B0F5005F29D10AE0CB68D1E96F
:1011D0000121206800F03CFC2068816841F0770123
:1011E00009E0CB68D1E90121206800F031FC2068DA
:1011F000816841F48041816011E0CA6849682068D3
:1012000000F038FC5021206807E016E0CA68496801
:10121000206800F040FC6021206800F023FC84F886
:101220003D50002084F83C0070BDCA6849682068C1
:1012300000F020FC40212068EFE7226801461046BC
:10124000EBE7704770B50446006801694FF0000590
:10125000C943890715D4C168C943890711D4E91E58
:10126000016101202077206880698007204602D034
:10127000FFF7E7FF04E000F098F8204600F096F84A
:10128000257720680169C943490717D4C168C94354
:10129000490713D46FF00401016102202077206810
:1012A000806910F4407F204602D0FFF7CAFF04E0B7
:1012B00000F07BF8204600F079F825772068016976
:1012C000C943090716D4C168C943090712D46FF08E
:1012D00008010161042020772068C069800720464A
:1012E00002D0FFF7AEFF04E000F05FF8204600F008
:1012F0005DF8257720680169C943C90617D4C1681C
:10130000C943C90613D46FF010010161082020778A
:101310002068C06910F4407F204602D0FFF791FF9B
:1013200004E000F042F8204600F040F825772068FD
:101330000169C943C90708D1C168C943C90704D1B4
:10134000891E0161204600F033F820680169C94315
:10135000090609D4C168C943090605D46FF08001A4
:1013600001612046FFF72CFE20680169C943490648
:1013700009D4C168C943490605D46FF04001016131
:10138000204600F03DF820680169C94389060BD466
:10139000C168C943890607D46FF020010161204666
:1013A000BDE87040FFF70DBE70BD7047704700008C
:1013B00010B50068074988420AD104210648FFF7A2
:1013C000C3FABDE810404FF48E7104A0FEF726BFAB
:1013D00010BD000000040040000801400A0D204C30
:1013E000494E45203A202564202054696D657220BD
:1013F000496E746572727570742121210A0D0000A6
:101400007047704770470000F8B5026804461068DE
:10141000D168536910F00F0F4FF0000553D003F05F
:10142000010601F4907737435FD0C20705D0CA05A3
:1014300003D5226C42F001022264420705D5DA0787
:1014400003D0226C42F002022264820705D5DA073B
:1014500003D0226C42F004022264020707D501F097
:101460002002324303D0226C42F008022264226C34
:10147000002A34D0800604D5880602D5204600F024
:101480003CFB20684069216CC0F38010090700D440
:1014900030B3204600F019FB2068416949061BD58E
:1014A000416921F040014161A06BA8B158494163F5
:1014B000A06BFFF783F8002811D0A06B416B01B03F
:1014C000BDE8F040084783060FD58B060DD52046B2
:1014D000BDE8F84000F011BB2046FFF793FFF8BDD0
:1014E0002046FFF78FFF2564F8BD266B2023012ED1
:1014F00052D1C60650D5CE064ED510685068009021
:10150000506940062AD5A16B086840680004000CA9
:10151000EAD0A68D8642E7D9E0858869202818D0D0
:10152000D06820F48070D0602068416921F001010A
:1015300041612068416921F04001416184F83E30F9
:1015400025632068C16821F01001C160A06BFFF71E
:1015500012F8A08DE18D401A81B219E0A08DE18DC5
:10156000401A81B2E08D0028BED00029BCD0D068DE
:1015700020F49070D0602068426922F0010242613C
:1015800084F83E3025632068C26822F01002C260F1
:101590002046FFF736FFF8BD05062BD50D0629D5E9
:1015A00094F83D002128F6D1A068B0F5805F01D104
:1015B0002069B0B1206A411C21622168007848602E
:1015C000E08C401E0004000CE084E4D12068C16877
:1015D00021F08001C1602068C16841F04001C16014
:1015E000F8BD206A0088C0F308005060206A801CA3
:1015F0002062E5E74006F3D54806F1D5D1682046DC
:1016000021F04001D16084F83D3000F0D0F8F8BD01
:10161000BB1A000870B5040004D094F83D00002502
:1016200010B106E0012070BD84F83C50204600F067
:1016300023F8242084F83D002068C16821F400517B
:10164000C160204600F0B4FA2068016921F490419D
:1016500001612068416921F02A0141612068C16867
:1016600041F40051C1602564202084F83D0084F8D5
:101670003E00002070BD000030B585B0002400940D
:101680000194029403940068184988422CD11848A8
:10169000816941F480418161816901F48041049153
:1016A000816941F0040181618069124D00F00400FC
:1016B00004904FF4007000900220019003200390EA
:1016C00069462846FFF744F82815CDE90004694625
:1016D00028460294FFF73CF8002211462520FFF728
:1016E000ADF92520FFF79CF905B030BD0038014069
:1016F0000010024000080140704700002DE9F84347
:10170000044690F83D001F4616460D4620284CD151
:10171000C5B1BEB194F83C00012846D0012084F840
:101720003C004FF00008C4F84080212084F83D00C0
:10173000FFF718F9A6848146E684A068B0F5805FBB
:1017400003D004E00120BDE8F883206928B12E46CB
:101750005FF0000584F83C800EE00026FAE7802167
:10176000204600F081FAA0B9AEB116F8010B21684D
:101770004860E08C401EE084E08C4B464FF0000255
:1017800000970028EBD14FF04001204600F06CFAA2
:1017900030B10320D7E735F8020BC0F30800E6E7C5
:1017A000202084F83D000020CDE70220CBE77047E1
:1017B000FEE700002DE9F04186B000243548009492
:1017C000019402940394816941F0800181618169EF
:1017D00001F080010491816941F004018161816916
:1017E00001F004010491816941F480718161806993
:1017F000294F00F4807004900022FF213846FFF743
:10180000ABF8FF2001250226CDE90005CDE902460F
:1018100069463846FEF79CFF4FF4FE40CDE90004D0
:10182000694638460294FEF793FFE80300901B4890
:10183000CDE9010469463846FEF78AFF00221146C9
:101840002820FFF7FBF82820FFF7EAF8144F0022C2
:1018500007213846FFF780F80720CDE90005CDE9DC
:10186000024669463846FEF773FFDFF838804FF4CA
:10187000C057002239464046FFF76EF8009703969E
:10188000CDE9015469464046FEF762FF06B0BDE867
:10189000F081000000100240001C01400000111007
:1018A000000801400020014010B586B00024174810
:1018B00000940194029403940494134905940160E4
:1018C0004821C0E9011442F21071C0E90314846197
:1018D000FFF7C0FB08B172B6FEE74FF480500090EE
:1018E00069460A48FFF742FC08B172B6FEE7049465
:1018F00004A906480594FFF765FB002801D072B6DD
:10190000FEE706B010BD00000004004014000020F7
:10191000FEE7FEE770477047FFF72AB830B58FB093
:1019200028216846FEF720FD14210AA8FEF71CFDB9
:1019300001210804CDE9001000240294022504913D
:10194000CDE907504FF4E01009906846FFF794F98D
:1019500008B172B6FEE70F20CDE90A054FF48060AA
:10196000CDE90C4002210AA80E94FFF799F800284F
:1019700001D072B6FEE70FB030BD70470148FFF7E7
:1019800061BC000014000020F0B50268254C264D13
:10199000264E274F274B4FF0804CA04209D098424B
:1019A00007D0604505D0A84203D0B04201D0B8426C
:1019B00004D122F0700E4A6842EA0E02A0421BD007
:1019C000984219D0604517D0A84215D0B04213D024
:1019D000B84211D0184DA8420ED0184DA8420BD0D5
:1019E000174DA84208D0174DA84205D0164DA84261
:1019F00002D0164DA84203D122F44075CA682A438A
:101A00004D6922F080022A4302608A68C2620A6835
:101A10008262A04201D0984201D10969016301218B
:101A20004161F0BD002C014000040040000800406E
:101A3000000C004000340140004C014000500140C7
:101A40000054014000180040001C004000200040ED
:101A500010B5846842EA032224F47F440A432243F7
:101A6000826010BD826822F070020A4342F00701D2
:101A70008160704710B5036A046A24F001040462AF
:101A8000846924F0F00444EA021423F00A020A43B1
:101A90008461026210BD10B5036A23F01003036273
:101AA0008369046A23F4704343EA023224F0A003FA
:101AB00043EA01118261016210BD10B5406A002144
:101AC000C185C184FFF79EFC10BD0168CA6822F47D
:101AD0009072CA6001684A6922F001024A61016B92
:101AE000012904D10168CA6822F01002CA602021CD
:101AF00080F83E1000210163704708B590F83E1051
:101B0000222901D0022008BD82684FF480539A42F6
:101B100001D1016921B1816A9A421BD04AB10AE020
:101B20000268816A5268C2F308020A80816A891CCD
:101B300008E0026972B10268526802F07F020A701E
:101B4000816A491C8162C18D491E0904090CC18545
:101B500003D019E002685268F1E70168CA6822F010
:101B60002002CA600168CA6822F48072CA600168F3
:101B70004A6922F001024A61202180F83E10016B7F
:101B8000012903D0FFF7B8FD002008BD0021016343
:101B90000168CA6822F01002CA6001680A68D206A9
:101BA00002D50A6849680091818DFFF72AFCEBE7AE
:101BB00070B5044600680169E26821F440511143A0
:101BC00001612169A0680843616908432168CA6806
:101BD00041F20C639A430243CA6020684169A269DA
:101BE00021F44071114341611E492068884202D1AD
:101BF000FEF7FCFF01E0FEF7E9FF00EBC00101EB9F
:101C00000012606864218000B2FBF0F3B3FBF1F3D3
:101C10006FF018067343B2FBF0F5B2FBF0F605EB7C
:101C20008305322303EB0515B5FBF1F5B6FBF1F6A1
:101C300005F0F00505EB0615B2FBF0F6B2FBF0F08F
:101C4000B0FBF1F06FF01802504306EB800003EB9D
:101C50000010B0FBF1F0216800F00F00284488600C
:101C600070BD0000003801402DE9F041984617464C
:101C70000E460446069D1DE0681C1BD02DB1FEF7E4
:101C800071FEA0EB0800A84214D92068C16821F4B5
:101C9000D071C1602068416921F0010141612020BB
:101CA00084F83D0084F83E00002084F83C000320C6
:101CB000BDE8F0812068006836EA000004D000200A
:101CC000B842D9D00020F3E70120F9E70148FFF737
:101CD0009BBB00005C000020FEE70907090E0028FE
:101CE00004DB00F1E02080F80014704700F00F00E2
:101CF00000F1E02080F8141D7047000013B54FF686
:101D0000FF73012269460248FFF7F8FC00981CBDEA
:101D10005C000020FEF734FEFFF700FEFFF74AFDEF
:101D2000FFF7C2FD164815490C2201604FF4E1315E
:101D3000416000218160C160C0E904128161C1611C
:101D4000FFF768FC08B172B6FEE70D484838FFF7A8
:101D5000CDF90C48FEF762FA54230BA20DA110A096
:101D6000FEF75CFA184C012211032046FEF7F4FD41
:101D70000122D1022046FEF7EFFDFEE700380140C8
:101D80005C000020E41D000831333A33313A33352A
:101D9000000000004E6F76202039203230323100B2
:101DA0000A0D2044415441203A202573202C205410
:101DB000494D45203A2025732C204C494E45203A68
:101DC0002025640A0D0000000020014000000000F2
:101DD00000000000010203040607080900000000DB
:101DE000010203040A0D2055415254205072696EBD
:101DF0007466204578616D706C653A207265746117
:101E000072676574207468652043206C6962726132
:101E10007279207072696E74662066756E6374697B
:101E20006F6E20746F2074686520554152540A0DFE
:101E300000000000541E00080000002014000000F4
:101E40006C010008681E000814000020EC06000069
:101E500088010008000000000100000010000000E0
:081E6000000000000024F40062
:0400000508000131BD
:00000001FF
