:020000040800F2
:1000000098070020D50100088B1C0008851A0008FD
:10001000891C0008E30400082122000800000000F9
:100020000000000000000000000000008F1C00081D
:10003000E5040008000000008D1C0008911C000869
:10004000EF010008EF010008EF010008EF010008D0
:10005000EF010008EF010008EF010008EF010008C0
:10006000EF010008EF010008EF010008EF010008B0
:10007000EF010008EF010008EF010008EF010008A0
:10008000EF010008EF010008EF010008EF01000890
:10009000EF010008EF010008EF010008EF01000880
:1000A000EF010008EF010008EF010008EF01000870
:1000B000EF010008011D00080D1D0008EF010008F8
:1000C000EF010008EF010008EF010008EF01000850
:1000D000EF01000815220008EF010008EF010008F9
:1000E000EF010008EF010008EF010008EF01000830
:1000F000EF010008EF010008EF010008EF01000820
:10010000EF010008EF010008EF010008EF0100080F
:10011000EF010008EF010008EF010008EF010008FF
:10012000EF010008EF010008EF010008EF010008EF
:1001300000F002F800F03FF80AA090E8000C8244BA
:100140008344AAF10107DA4501D100F034F8AFF297
:10015000090EBAE80F0013F0010F18BFFB1A43F0A5
:1001600001031847C0210000E0210000103A24BF1D
:1001700078C878C1FAD8520724BF30C830C144BF0C
:1001800004680C607047000000230024002500264E
:10019000103A28BF78C1FBD8520728BF30C148BFEA
:1001A0000B607047642900F07580002070471FB510
:1001B0001FBD10B510BD00F05BF91146FFF7F7FF4A
:1001C00002F04CF800F079F903B4FFF7F2FF03BC3A
:1001D00000F080F90948804709480047FEE7FEE73C
:1001E000FEE7FEE7FEE7FEE7FEE7FEE7FEE7FEE7E7
:1001F00004480549054A064B70470000FD1C0008ED
:100200003101000898010020980700209803002081
:10021000980300200FB4044910B503AA029800F017
:10022000F9F810BC5DF814FB040000202DE9F04142
:100230000E460446002020622046E168884730B31D
:10024000252805D0D4E901219047206A401CF2E717
:10025000E168204600278847050018D0A5F1410035
:10026000192802D820354FF4006732462946204627
:100270002760FFF797FF40B1012804D0F61D26F054
:1002800007060836D8E7361DD6E72846DAE7206A9B
:10029000BDE8F0812DE9F04106460024106875297B
:1002A000314616A510D0AFF30080002802DA404294
:1002B00013A507E031688A0701D512A502E04907B6
:1002C00004D511A5012401E0AFF3008000210A222A
:1002D00006F1240709E0B0FBF2FCB0FBF2F302FBED
:1002E0001C00303078541846491C0028F3D12346AE
:1002F0002A463046BDE8F04100F032B80000000068
:100300002D0000002B000000200000004FF0000234
:1003100000B5134694469646203922BFA0E80C50FB
:10032000A0E80C50B1F12001BFF4F7AF090728BFD6
:10033000A0E80C5048BF0CC05DF804EB890028BF52
:1003400040F8042B08BF704748BF20F8022B11F07B
:10035000804F18BF00F8012B7047704770477047F7
:100360002DE9F0470D4699469246044600F12408CF
:100370000168880604D5E06921F01001216000E0E1
:100380000120A84201DD471B00E00027A1697A197E
:1003900002EB0900081AA0612078C00602D42046AA
:1003A000AFF30080002608E0D4E901211AF8060026
:1003B0009047206A401C761C20624E45F4DB207872
:1003C000C0060AD52046AFF3008006E0D4E901213B
:1003D00030209047206A401C2062381EA7F1010798
:1003E000F4DC07E0D4E9012118F805009047206A01
:1003F000401C2062281EA5F10105F3DC2046AFF366
:1004000000802078000602D50220BDE8F087012098
:10041000FBE70000074B70B50D467B4400F011F878
:100420000446284600F020F810B14FF0FF3070BDB0
:10043000204670BD271E000001694A1C0261087831
:10044000704700B58FB0CDE9013100210591054914
:100450007944CDE9031011466846FFF7E7FE0FB077
:1004600000BD0000E5FFFFFF007B00F0800070474B
:10047000754600F02BF8AE4605006946534620F05D
:100480000700854618B020B5FFF7B2FEBDE8204052
:100490004FF000064FF000074FF000084FF0000B40
:1004A00021F00701AC46ACE8C009ACE8C009ACE8F3
:1004B000C009ACE8C0098D46704710B50446AFF3DB
:1004C00000802046BDE81040FFF77EBE0048704720
:1004D0003401002001491820ABBEFEE726000200CF
:1004E0007047FEE7704710B590F8211000220229EE
:1004F00005D00421816380F82020012010BD01680F
:100500000B6823F00E030B6001680B6823F00103F6
:100510000B6090F84030C46B012101FA03F3636073
:1005200080F8211080F82020104610BD2DE9F05FE2
:1005300090F821100024022903D0042181630124B2
:1005400085E001680A6822F00E020A6001680A6804
:1005500022F001020A603F4E3E4FB215DFF8F4C0B0
:10056000DFF8F090DFF8ECA0DFF8E8B0DFF8E4E0C7
:100570000168783F13011502ACF1640CA9F1500930
:10058000AAF13C0AABF1280BAEF1140E4FF480181F
:10059000B14227D9B9420ED0614512D049451DD08C
:1005A000514518D0594518D0714501D1424615E042
:1005B000294EB14201D1012210E0274E1436B1423A
:1005C00001D110220AE0244E2836B14206D0224A38
:1005D0003C32914201D11A4600E02A461E49091FC9
:1005E0000A602BE0B94213D0614517D0494522D0AB
:1005F00051451DD059451DD0714501D142461AE0E3
:10060000B14202D14FF0807215E0134EB14201D1D8
:10061000012210E0104E1436B14201D110220AE03E
:100620000D4E2836B14206D00B4A3C32914201D1E0
:100630001A4600E02A46074980394A60012180F8BD
:100640002110002180F82010416B01B1884720461D
:10065000BDE8F09F800002400804024070B50446E7
:1006600000F018F90546601C02D0044800780444E4
:1006700000F010F9401BA042FAD370BD0800002022
:100680002DE9F84FDFF8C891002409F1040A0AF1B6
:10069000040B23460F270BF1040ED1E00125A540E2
:1006A00006EA0502AA4276D1DFF8A8C14E68A6EB99
:1006B0000C0866452BD00DDC032E34D005DC36B398
:1006C000012E19D0022E2FD11BE0112E16D0122E82
:1006D0002AD119E0B8F5881F19D006DCB8F5803F9B
:1006E00015D0B8F5801F1FD111E0B8F5001F0ED04E
:1006F000B8F5041F18D10AE0CB6815E0CB681B1DC4
:1007000012E0CB6808330FE0CB680C330CE08B6849
:100710002BB1012B4FF0080303D0456104E0042303
:1007200002E0056100E00023FF2A01D8064601E04F
:1007300000F104064FEA840501D9A5F12005D6F899
:10074000008007FA05FC28EA0C0803FA05F548EAD8
:100750000508C6F800804D68ED0070D53E4DAE69C5
:1007600046F00106AE61AD6924F0030605F001050F
:1007700000953A4D06EB050CDCF80850A607360F3D
:1007800007FA06F825EA0805DFF8D480404503D1CA
:100790004FF0000825E052E0DFF8C880404502D164
:1007A0004FF001081DE0DFF8C080404502D14FF056
:1007B000020816E0DFF8B480404502D14FF003088C
:1007C0000FE0DFF8AC80404502D14FF0040808E0AC
:1007D000DFF8A080404502D14FF0050801E04FF05E
:1007E000060808FA06F848EA0508CCF808804D68BB
:1007F000D9F80060ED034D4601D5164300E096435D
:100800002E604D68DAF80060AD03554601D51643F9
:1008100000E096432E604D68DBF80060ED025D4617
:1008200001D5164300E096432E604D68DEF8006067
:10083000AD02754601D5164300E096432E60641C58
:100840000A681646E2407FF429AFBDE8F88F000041
:10085000000401400000111000100240000001409F
:1008600000080140000C014000100140001401404C
:1008700000180140001C0140C26821EA02030A403E
:1008800043EA0241016170470AB1016170470904FE
:10089000FBE7000001488068704700000800002066
:1008A0000248816802781144816070470800002086
:1008B000074810B5016841F010010160032000F005
:1008C00075F80F2000F006F800F024F8002010BDA5
:1008D0000020024070B50D4D04464FF47A7128781F
:1008E000B1FBF0F00A490968B1FBF0F000F010FB31
:1008F00048B9102C07D200222146501E00F036F8CD
:1009000000206C6070BD012070BD00000800002058
:10091000140000200C4808B5816941F00101816193
:10092000816901F001010091C16941F08051C1610B
:10093000C06900F0805000900448416821F0E061F7
:1009400041F00071416008BD00100240000001400C
:10095000002809DB00F01F020121914040098000BE
:1009600000F1E020C0F8001170470000F0B40E4B19
:100970001B680C46C3F30223C3F10705042D00D9FD
:100980000425191D072901D2002300E0DB1E0126E2
:1009900006FA05F1491E214099409E40761E1640F8
:1009A0003143F0BC01F03DBC0CED00E0064900F025
:1009B000070208684FF6FF03184040EA0220034A86
:1009C00010430860704700000CED00E00000FA05DD
:1009D0002DE9F0470F46050061D0434E306800F026
:1009E0000700B84209D2306820F007003843306071
:1009F000306800F00700B84251D128683B4C8107AD
:100A000012D5400703D5606840F4E0606060287844
:100A1000000703D5606840F4605060606068A968B2
:100A200020F0F000084360602878C00728D068688C
:100A3000012810D02168022810D0890700292EDA59
:100A4000616821F0030101436160FFF723FF8046E5
:100A500041F288390DE021688903EFE78901EDE76C
:100A6000FFF718FFA0EB0801494502D90320BDE8B4
:100A7000F0876068696800F00C00B0EB810FEFD17F
:100A8000306800F00700B8420BD9306820F007004A
:100A900038433060306800F00700B84201D00120D0
:100AA000E5E72878400705D56068E96820F4E0604C
:100AB000084360602878000706D56068296920F43B
:100AC000605040EAC100606000F038F86168084A90
:100AD000C1F30311515CC84006490860064800682C
:100AE000FFF7F8FE0020C2E700200240001002409D
:100AF0000C230008140000200C00002004480549C5
:100B000000684968044AC1F30221515CC84070473B
:100B100014000020001002401C230008044805496E
:100B200000684968044AC1F3C221515CC84070475B
:100B300014000020001002401C23000812A185B000
:100B40000FC98DE80F0014A0144A00680490516882
:100B5000134801F00C03042B10D0082B0ED1C1F365
:100B60008343C9031DF803000AD5516804AAC1F3E1
:100B70004041515C0A4A5043B0FBF1F005B0704768
:100B800008494843FAE7000002030405060708097C
:100B90000A0B0C0D0E0F1010010200000010024095
:100BA00000127A0000093D0030B585B000200290A7
:100BB00002200190032003900B4C4FF480700090B2
:100BC000A0690D4640F00400A061A069694600F0EC
:100BD000040004900548FFF753FD606820F0E060D2
:100BE0002843606005B030BD00100240000801409D
:100BF0002DE9F84F040070D02078C04DC00749D0CF
:100C00006868C0F38100012807D06868C0F38100DC
:100C1000022809D16868C00306D52868800339D541
:100C200060680028E7D035E06068B0F5803F0BD001
:100C300010B1B0F5A02F11D0286820F480302860C2
:100C4000286820F4802002E0286840F48030286082
:100C5000606890B1FFF71EFE06460AE0286840F47F
:100C600080202860F0E700BFFFF714FE801B642897
:100C700073D828688003F7D50CE0FFF70BFE064613
:100C800005E000BFFFF706FE801B6428F0D8286847
:100C90008003F7D420789A4E80074FF001094FF077
:100CA000000839D5686810F00C0F07D06868C0F3E9
:100CB0008100022809D16868C00306D4286880072B
:100CC00014D52069012808D110E02069B0B1C6F818
:100CD0000090FFF7DFFD074605E00AE1FFF7DAFDC8
:100CE000C01B0228C4D828688007F7D52868616926
:100CF00020F0F80040EAC10028600DE0C6F800804E
:100D0000FFF7C8FD074604E0FFF7C4FDC01B02283B
:100D100023D828688007F7D4207800072CD5794895
:100D2000A169D9B1C0F80090FFF7B4FD074604E00F
:100D3000FFF7B0FDC01B02280FD8686A8007F7D5FF
:100D400071484FF4FA510068B0FBF1F0009000BF19
:100D50000098411E0091FAD20EE080E0C0F80080B9
:100D6000FFF798FD074604E0FFF794FDC01B02283B
:100D700075D8686A8007F7D42078400760D5E8699D
:100D80000027C00008D4E86940F08050E861E869B5
:100D9000012700F0805000905C480168C90513D419
:100DA0000168834641F480710160FFF773FD82465C
:100DB00006E000BFFFF76EFDA0EB0A0064284ED8E6
:100DC000DBF80000C005F5D5E06801280AD008B1BD
:100DD000052813D0286A20F001002862286A20F034
:100DE000040002E0286A40F001002862E06841F255
:100DF000883B98B1FFF74EFD82460BE0286A40F031
:100E000004002862EEE700BFFFF744FDA0EB0A01F3
:100E100059455AD8286A8007F6D50CE0FFF73AFD05
:100E2000824605E0FFF736FDA0EB0A0159454CD894
:100E3000286A8007F6D41FB1E86920F08050E86185
:100E4000E06988B36968C1F38101022944D00228AE
:100E5000C6F8608004D0FFF71DFD044638E034E09A
:100E6000FFF718FD074604E0FFF714FDC01B02283A
:100E70002BD828688001F7D4206AB0F5803F05D1CF
:100E80006868A16820F4003008436860D4E908016C
:100E90000843696821F4741108436860C6F86090DB
:100EA000FFF7F8FC044606E025E000BFFFF7F2FC80
:100EB000001B022809D828688001F7D51BE000BF75
:100EC000FFF7E8FC001B022802D90320BDE8F88FD9
:100ED00028688001F4D40EE00128F7D06868226AFF
:100EE00000F48031914204D1616A00F470108842AC
:100EF00001D00120EAE70020E8E7000000100240EE
:100F00000000424280044242140000200070004071
:100F100010B5401EB0F1807F01D3012010BD4FF00D
:100F2000E02460610F21601701F07BF90020A061CF
:100F300007202061002010BD7047704770B590F801
:100F40003C20012A32D0012480F83C40022280F863
:100F50003D2003685A689D6822F070060A68324393
:100F60005A60134B02689A4214D0124B9A4211D025
:100F7000B2F1804F0ED0104B9A420BD00F4B9A42D9
:100F800008D00F4B9A4205D00E4B9A4202D00E4B1E
:100F90009A4204D1496825F080031943916080F892
:100FA0003D40002180F83C10084670BD022070BD15
:100FB000002C0140003401400004004000080040C3
:100FC000000C0040004C01400018004010B50446E1
:100FD000022249B104290ED0082913D094F8450003
:100FE000012816D0012010BD94F842000128F9D143
:100FF00084F842200FE094F843000128F2D184F8ED
:10100000432008E094F844000128EBD184F8442000
:1010100001E084F845200422206800F0EEFE2068FC
:10102000416C41F40041416411492068884214D068
:101030001049884211D0B0F1804F0ED00E4988423D
:101040000BD00E49884208D00D49884205D00D4981
:10105000884202D00C49884204D1816801F007011E
:10106000062903D0016841F001010160002010BD94
:10107000002C014000340140000400400008004002
:10108000000C0040004C01400018004010B5040066
:1010900003D094F83D0010B107E0012010BD0020FE
:1010A00084F83C00204600F01FF8022084F83D0040
:1010B000211D206800F030FE012084F8460084F8ED
:1010C0003E0084F83F0084F8400084F8410084F832
:1010D000420084F8430084F8440084F8450084F812
:1010E0003D00002010BD000008B5154A01681548F4
:1010F00091420ED1C16941F00201C161C069002273
:1011000000F00200009011461D20FFF72FFC1D206B
:1011100010E00D4A914211D1C16941F00401C16151
:10112000C069002200F00400009011461E20FFF765
:101130001DFC1E20BDE80840FFF70ABC08BD0000EA
:1011400000040040001002400008004090F83D10EC
:10115000012901D001207047022180F83D1001686B
:10116000CA6842F00102CA6000681149884214D07E
:101170001049884211D0B0F1804F0ED00E498842FC
:101180000BD00E49884208D00D49884205D00D4940
:10119000884202D00C49884204D1816801F00701DD
:1011A000062903D0016841F0010101600020704769
:1011B000002C0140003401400004004000080040C1
:1011C000000C0040004C01400018004070B504467F
:1011D00090F83C00012817D0012584F83C500220EB
:1011E00084F83D002068826822F0770222F47F4272
:1011F00082600868502830D00DDC20284DD005DCF6
:1012000098B310283BD148E0022070BD302844D06C
:10121000402834D139E0602828D0702806D0B0F5B5
:10122000805F2CD0B0F5005F29D10AE0CB68D1E90E
:101230000121206800F0EEFD2068816841F077010F
:1012400009E0CB68D1E90121206800F0E3FD2068C6
:10125000816841F48041816011E0CA684968206872
:1012600000F0ACFE5021206807E016E0CA6849682B
:10127000206800F0B4FE6021206800F0D5FD84F8FD
:101280003D50002084F83C0070BDCA684968206861
:1012900000F094FE40212068EFE7226801461046E6
:1012A000EBE7704770B50446006801694FF0000530
:1012B000C943890715D4C168C943890711D4E91EF8
:1012C000016101202077206880698007204602D0D4
:1012D000FFF7E7FF04E000F0BFF8204600F062F9F6
:1012E000257720680169C943490717D4C168C943F4
:1012F000490713D46FF004010161022020772068B0
:10130000806910F4407F204602D0FFF7CAFF04E056
:1013100000F0A2F8204600F045F925772068016921
:10132000C943090716D4C168C943090712D46FF02D
:1013300008010161042020772068C06980072046E9
:1013400002D0FFF7AEFF04E000F086F8204600F080
:1013500029F9257720680169C943C90617D4C168EE
:10136000C943C90613D46FF010010161082020772A
:101370002068C06910F4407F204602D0FFF791FF3B
:1013800004E000F069F8204600F00CF925772068A9
:101390000169C943C90708D1C168C943C90704D154
:1013A000891E0161204600F063F920680169C94384
:1013B000090609D4C168C943090605D46FF0800144
:1013C00001612046FFF7B8FD20680169C94349065D
:1013D00009D4C168C943490605D46FF040010161D1
:1013E000204600F077F920680169C94389060BD4CB
:1013F000C168C943890607D46FF020010161204606
:10140000BDE87040FFF799BD70BD000000B585B024
:101410000021009101910291039100680B498842DB
:1014200011D10B48816941F00401816180696946ED
:1014300000F004000490012000900220019003902D
:101440000448FFF71DF905B000BD0000000C004086
:101450000010024000080140704770B5044690F843
:101460003C000D4601280AD0012084F83C0042B11E
:10147000042A18D0082A2AD00C2A4DD139E002209B
:1014800070BD206800F0D8FC2068816941F0080137
:1014900081612068816921F004018161206881698E
:1014A0002A69114311E0206800F0F6FC2068816988
:1014B00041F4006181612068816921F4806181616A
:1014C000206881692A6941EA0221816124E020685B
:1014D00000F018FD2068C16941F00801C161206871
:1014E000C16921F00401C1612068C1692A69114301
:1014F00011E0206800F03AFD2068C16941F4006104
:10150000C1612068C16921F48061C1612068C1693D
:101510002A6941EA0221C161002084F83C0070BDC3
:1015200010B5040003D094F83D0010B107E001208D
:1015300010BD002084F83C00204600F01FF8022077
:1015400084F83D00211D206800F0E6FB012084F8AE
:10155000460084F83E0084F83F0084F8400084F898
:10156000410084F8420084F8430084F8440084F881
:10157000450084F83D00002010BD000008B500685B
:101580000649884208D10648C16941F00801C16195
:10159000C06900F00800009008BD0000000C004089
:1015A000001002407047000010B50446022249B105
:1015B00004290ED0082913D094F84100012816D030
:1015C000012010BD94F83E000128F9D184F83E2096
:1015D0000FE094F83F000128F2D184F83F2008E0A2
:1015E00094F840000128EBD184F8402001E084F811
:1015F00041200122206800F0F3FB16492068164ABA
:10160000884201D0904203D1436C43F400434364C9
:101610002068884213D0904211D0B0F1804F0ED094
:101620000E4988420BD00E49884208D00D498842A5
:1016300005D00D49884202D00C49884204D1816806
:1016400001F00701062903D0016841F001010160A2
:10165000002010BD002C0140003401400004004077
:1016600000080040000C0040004C01400018004001
:1016700010B5044600680C49884203D102210B488A
:10168000FFF7FAF80A49206888420CD10115094889
:10169000FFF7F2F808480168491C0160BDE81040F6
:1016A00006A0FEF7B7BD10BD00040040001C0140BD
:1016B0000008004000200140000000204D4F544F22
:1016C0005220444952454354494F4E5F25642121DD
:1016D000210A0D007047704770470000F8B5026896
:1016E00004461068D168536910F00F0F4FF00005E1
:1016F00053D003F0010601F4907737435FD0C2075F
:1017000005D0CA0503D5226C42F0010222644207CB
:1017100005D5DA0703D0226C42F002022264820768
:1017200005D5DA0703D0226C42F0040222640207D6
:1017300007D501F02002324303D0226C42F00802A8
:101740002264226C002A34D0800604D5880602D593
:10175000204600F076FC20684069216CC0F38010C0
:10176000090700D430B3204600F053FC20684169DB
:1017700049061BD5416921F040014161A06BA8B128
:1017800058494163A06BFEF7D1FE002811D0A06B31
:10179000416B01B0BDE8F040084783060FD58B06CA
:1017A0000DD52046BDE8F84000F04BBC2046FFF7C1
:1017B00093FFF8BD2046FFF78FFF2564F8BD266B29
:1017C0002023012E52D1C60650D5CE064ED5106824
:1017D00050680090506940062AD5A16B086840689F
:1017E0000004000CEAD0A68D8642E7D9E08588691E
:1017F000202818D0D06820F48070D060206841691B
:1018000021F0010141612068416921F040014161FD
:1018100084F83E3025632068C16821F01001C16062
:10182000A06BFEF760FEA08DE18D401A81B219E039
:10183000A08DE18D401A81B2E08D0028BED0002934
:10184000BCD0D06820F49070D0602068426922F04B
:101850000102426184F83E3025632068C26822F0AC
:101860001002C2602046FFF736FFF8BD05062BD5F3
:101870000D0629D594F83D002128F6D1A068B0F5D1
:10188000805F01D12069B0B1206A411C21622168CA
:1018900000784860E08C401E0004000CE084E4D135
:1018A0002068C16821F08001C1602068C16841F0F2
:1018B0004001C160F8BD206A0088C0F30800506094
:1018C000206A801C2062E5E74006F3D54806F1D582
:1018D000D168204621F04001D16084F83D3000F00D
:1018E000D0F8F8BD0320000870B5040004D094F8C7
:1018F0003D00002510B106E0012070BD84F83C5089
:10190000204600F023F8242084F83D002068C168B8
:1019100021F40051C160204600F0EEFB206801690F
:1019200021F4904101612068416921F02A0141615F
:101930002068C16841F40051C1602564202084F80A
:101940003D0084F83E00002070BD000030B585B039
:10195000002400940194029403940068184988427A
:101960002CD11848816941F480418161816901F479
:1019700080410491816941F0040181618069124DC7
:1019800000F0040004904FF40070009002200190D9
:101990000320039069462846FEF772FE2815CDE91C
:1019A0000004694628460294FEF76AFE00221146AA
:1019B0002520FEF7DBFF2520FEF7CAFF05B030BD6E
:1019C000003801400010024000080140704700004C
:1019D0002DE9F843044690F83D001F4616460D4693
:1019E00020284CD1C5B1BEB194F83C00012846D0A6
:1019F000012084F83C004FF00008C4F8408021200A
:101A000084F83D00FEF746FFA6848146E684A06880
:101A1000B0F5805F03D004E00120BDE8F8832069C1
:101A200028B12E465FF0000584F83C800EE00026C9
:101A3000FAE78021204600F0BBFBA0B9AEB116F852
:101A4000010B21684860E08C401EE084E08C4B462E
:101A50004FF0000200970028EBD14FF040012046E4
:101A600000F0A6FB30B10320D7E735F8020BC0F336
:101A70000800E6E7202084F83D000020CDE70220A2
:101A8000CBE77047FEE700002DE9F04385B0002466
:101A900029480094019402940394816941F08001E3
:101AA0008161816901F080010491816941F0040143
:101AB0008161816901F004010491816941F48071BF
:101AC00081618069DFF8748000F4807004900022E6
:101AD000FF214046FEF7D8FEDFF864904FF48067A0
:101AE000002239464846FEF7CFFEFF200126CDE909
:101AF0000006022569464046CDE90245FEF7C0FDD5
:101B00004FF47F40CDE90004694640460294FEF759
:101B1000B7FDE801CDE9000569460A480395FEF7DF
:101B2000AFFDCDE9007669464846CDE90245FEF7AE
:101B3000A7FD05B0BDE8F08300100240001C014085
:101B4000002001400008014010B586B0002417486D
:101B50000094019402940394049413490594016041
:101B600040F2CF21C0E901144CF24F31C0E9031417
:101B70008461FFF78BFA08B172B6FEE74FF480502C
:101B8000009069460948FFF721FB08B172B6FEE7ED
:101B9000049404A905480594FFF7D0F9002801D062
:101BA00072B6FEE706B010BD000400401800002029
:101BB00010B586B000241748009401940294039451
:101BC000049413490594016041F61F41C0E90114D2
:101BD00042F20F71C0E903148461FFF757FA08B1AC
:101BE00072B6FEE74FF48050009069460948FFF74F
:101BF000EDFA08B172B6FEE7049404A9054805940D
:101C0000FFF79CF9002801D072B6FEE706B010BDC0
:101C1000000800406000002010B58AB0002407943E
:101C20001C2168460894FEF771FB164814490160B0
:101C300040F2CF21C0E90114C721C0E90314846137
:101C4000FFF76EFC08B172B6FEE7079407A90D48CE
:101C50000894FFF773F908B172B6FEE76020CDE98A
:101C6000000402940022694606480494FFF7F5FB3D
:101C700008B172B6FEE70348FFF7C8FB0AB010BD13
:101C8000000C0040A8000020FEE7FEE77047704708
:101C9000FEF706BE30B58FB028216846FEF736FB4A
:101CA00014210AA8FEF732FB01210804CDE9001037
:101CB0000024029402250491CDE907504FF4E0106E
:101CC00009906846FEF794FF08B172B6FEE70F2050
:101CD000CDE90A054FF48060CDE90C4002210AA845
:101CE0000E94FEF775FE08B172B6FEE700224FF0C3
:101CF000C0611046FEF758FF0FB030BD70470000BE
:101D00000148FFF7CFBA0000180000200148FFF794
:101D1000C9BA000060000020F0B50268254C264DCD
:101D2000264E274F274B4FF0804CA04209D09842B7
:101D300007D0604505D0A84203D0B04201D0B842D8
:101D400004D122F0700E4A6842EA0E02A0421BD073
:101D5000984219D0604517D0A84215D0B04213D090
:101D6000B84211D0184DA8420ED0184DA8420BD041
:101D7000174DA84208D0174DA84205D0164DA842CD
:101D800002D0164DA84203D122F44075CA682A43F6
:101D90004D6922F080022A4302608A68C2620A68A2
:101DA0008262A04201D0984201D1096901630121F8
:101DB0004161F0BD002C01400004004000080040DB
:101DC000000C004000340140004C01400050014034
:101DD0000054014000180040001C0040002000405A
:101DE00010B501F01F030121046A99408C4304627D
:101DF000016A9A401143016210BD10B501F01F0342
:101E00000421046A99408C430462016A9A40114398
:101E1000016210BD10B5846842EA032224F47F44B5
:101E20000A432243826010BD826822F070020A4396
:101E300042F0070181607047F0B5026A22F00102AA
:101E40000262036A42688469124E24F073050C68CA
:101E50002C4323F002058B682B430D4DA84201D083
:101E6000B04205D123F00807CB683B4323F00403BD
:101E7000A84201D0B04205D14D6922F44072154309
:101E80008A692A4342608461496841630362F0BD04
:101E9000002C014000340140F0B5026A22F010022B
:101EA0000262026A436884690D6824F4E64444EAE5
:101EB00005248D6822F0200242EA05120F4D104ED3
:101EC000A84201D0B04206D1CF6822F0800242EA97
:101ED000071222F04002A84201D0B04207D14D695A
:101EE00023F4406343EA85038D6943EA8503436035
:101EF0008461496881630262F0BD0000002C0140EA
:101F000000340140F0B5026A22F480720262026A73
:101F10004368C46922F4007224F073050C68124E01
:101F20002C438D6842EA05220E4DA84201D0B042F2
:101F300006D1CF6822F4006242EA072222F48062CE
:101F4000A84201D0B04207D14D6923F4405343EA7F
:101F500005138D6943EA05134360C4614968C16391
:101F60000262F0BD002C01400034014030B5026A2D
:101F700022F480520262046A4268C3690D6823F445
:101F8000E64343EA05238D6824F4005444EA05340B
:101F9000084DA84202D0084DA84204D14D6922F450
:101FA000804242EA85124260C3614968016404626A
:101FB00030BD0000002C01400034014010B5036A20
:101FC000046A24F001040462846924F0F00444EA01
:101FD000021423F00A020A438461026210BD10B5A4
:101FE000036A23F0100303628369046A23F47043D5
:101FF00043EA023224F0A00343EA01118261016244
:1020000010BD10B5406A0021C185C184FFF764FB93
:1020100010BD0168CA6822F49072CA6001684A69FA
:1020200022F001024A61016B012904D10168CA68EA
:1020300022F01002CA60202180F83E1000210163C6
:10204000704708B590F83E10222901D0022008BD43
:1020500082684FF480539A4201D1016921B1816AAB
:102060009A421BD04AB10AE00268816A5268C2F300
:1020700008020A80816A891C08E0026972B102685C
:10208000526802F07F020A70816A491C8162C18D28
:10209000491E0904090CC18503D019E00268526881
:1020A000F1E70168CA6822F02002CA600168CA68C4
:1020B00022F48072CA6001684A6922F001024A6112
:1020C000202180F83E10016B012903D0FFF77EFC30
:1020D000002008BD002101630168CA6822F01002D7
:1020E000CA6001680A68D20602D50A684968009188
:1020F000818DFFF7F0FAEBE770B5044600680169DF
:10210000E26821F44051114301612169A06808434C
:10211000616908432168CA6841F20C639A4302432B
:10212000CA6020684169A26921F44071114341618C
:102130001E492068884202D1FEF7F0FC01E0FEF75C
:10214000DDFC00EBC00101EB00126068642180003F
:10215000B2FBF0F3B3FBF1F36FF018067343B2FB7D
:10216000F0F5B2FBF0F605EB8305322303EB051522
:10217000B5FBF1F5B6FBF1F605F0F00505EB06153C
:10218000B2FBF0F6B2FBF0F0B0FBF1F06FF018022A
:10219000504306EB800003EB0010B0FBF1F0216828
:1021A00000F00F002844886070BD00000038014036
:1021B0002DE9F041984617460E460446069D1DE05F
:1021C000681C1BD02DB1FEF765FBA0EB0800A842F0
:1021D00014D92068C16821F4D071C16020684169B8
:1021E00021F001014161202084F83D0084F83E0087
:1021F000002084F83C000320BDE8F08120680068DE
:1022000036EA000004D00020B842D9D00020F3E71D
:102210000120F9E70148FFF761BA0000F000002053
:10222000FEE70907090E002804DB00F1E02080F832
:102230000014704700F00F0000F1E02080F8141D3A
:102240007047000013B54FF6FF730122694602483C
:10225000FFF7BEFB00981CBDF0000020FEF728FB36
:10226000FFF718FDFFF710FCFFF7D6FCFFF76CFC3B
:10227000FFF79EFC224821490C2201604FF4E13116
:10228000416000218160C160C0E904128161C161C7
:10229000FFF72AFB08B172B6FEE71948D838FEF7F7
:1022A00055FF17489038FEF751FF15480021483870
:1022B000FFF77AF9124800214838FEF787FE1049E7
:1022C0001420483909684863002201210D48FEF7AF
:1022D000DBFA0D4D4FF47A74012208212846FEF7EF
:1022E000D3FA2046FEF7BAF9002208212846FEF765
:1022F000CBFA2046FEF7B2F9EEE7000000380140C5
:10230000F000002000080140001C01400000000017
:102310000000000001020304060708090000000095
:1023200001020304442300080000002018000000FC
:102330006C0100085C2300081800002080070000E2
:1023400088010008000000000000000001000000FB
:0C23500010000000000000000024F40059
:0400000508000131BD
:00000001FF
