:020000040800F2
:1000000000800120D90B0008790B00087B0B000849
:100010007D0B00087F0B0008810B0008000000002A
:10002000000000000000000000000000830B00083A
:10003000850B000800000000870B0008890B0008F2
:10004000210C0008210C0008210C0008210C0008DC
:10005000210C0008210C0008210C0008210C0008CC
:10006000210C0008210C0008210C0008210C0008BC
:10007000210C0008210C0008210C0008210C0008AC
:10008000210C0008210C0008210C0008210C00089C
:10009000210C0008210C0008210C0008210C00088C
:1000A000210C0008210C0008210C0008210C00087C
:1000B000210C0008210C0008210C0008210C00086C
:1000C000210C0008210C0008210C0008210C00085C
:1000D000210C0008210C0008210C0008210C00084C
:1000E000210C0008210C0008210C0008210C00083C
:1000F000210C0008210C0008210C0008210C00082C
:10010000210C0008210C0008210C0008210C00081B
:10011000210C0008210C0008210C0008210C00080B
:10012000210C0008210C0008210C0008210C0008FB
:1001300000000000000000000000000000000000BF
:1001400000000000000000000000000000000000AF
:10015000000000000000000000000000000000009F
:10016000000000000000000000000000000000008F
:10017000000000000000000000000000000000007F
:10018000000000000000000000000000000000006F
:10019000000000000000000000000000000000005F
:1001A000000000000000000000000000000000004F
:1001B000000000000000000000000000000000003F
:1001C000000000000000000000000000000000002F
:1001D000000000000000000000000000000000001F
:0401E0005FF8E0F1F3
:1001E40010B5054C237833B9044B13B10448AFF36D
:1001F40000800123237010BD0C00002000000000CB
:100204007C0C000808B5034B1BB103490348AFF34A
:10021400008008BD00000000100000207C0C0008D5
:1002240038B50E4B054618784FF47A73B3FBF0F3E8
:100234000B4A1068B0FBF3F000F092F8044658B98A
:100244000F2D09D8024629464FF0FF3000F054F82C
:10025400044B20461D6038BD012038BD000000203D
:100264000800002004000020074A08B51368032092
:1002740043F01003136000F02DF80020FFF7D0FFC7
:1002840000F056FC002008BD00200240034A044B45
:1002940011681B780B441360704700BF28000020CE
:1002A40000000020014B1868704700BF28000020A0
:1002B40038B50446FFF7F6FF0546631C1EBF044B22
:1002C4001B78E418FFF7EEFF401B8442FAD838BDD0
:1002D40000000020074A0002D36800F4E06023F421
:1002E400E0631B041B0C43F0BF6343F4003303437C
:1002F400D360704700ED00E0174B30B5DC68C4F301
:100304000224C4F10703251D042B28BF0423062D52
:100314004FF0010598BF002405FA03F303F1FF33FE
:1003240088BF033C1940A14005FA04F4013C224073
:10033400002842EA01024FEA0212A9BF00F160401C
:10034400064BD2B200F56140BBBF00F00F00D2B241
:1003540080F800231A5430BD00ED00E014ED00E0F5
:100364000138B0F1807F0AD2F021064B064A58606A
:1003740082F823100020072298601A607047012039
:10038400704700BF10E000E000ED00E02DE9F74FFA
:10039400002426466C4F6D4BDFF8B8E1DFF8B8C196
:1003A4000A6832FA06F502D103B0BDE8F08F4FF0C7
:1003B400010808FA06F802EA0802904540F0848031
:1003C4004D68122D00F0B18000F28780022D00F0FC
:1003D400A9807BD8002D00F08C80012D00F0A08036
:1003E4004FF00F09FF2A93BF824606F18045083D6E
:1003F400D0F800B092BFB500D0F804B0AD0009FA4F
:1004040005F82BEA080804FA05F588BF00F1040A88
:1004140048EA0505CAF80050D1F804A01AF0805F34
:1004240052D0BD6926F0030845F00105BD61BD69E0
:1004340008F1804805F00105019508F5803806F0BB
:10044400030B019D4FEA8B0BD8F8085009FA0BF9FE
:1004540025EA09093E4DA8426CD005F58065A842FD
:100464006AD005F58065A84268D005F58065A84284
:1004740066D005F58065A84264D070450CBF05259B
:10048400062505FA0BF545EA0905C8F808501D6864
:100494001AF4803F14BF154395431D605D681AF438
:1004A400003F14BF154395435D609D681AF4801F97
:1004B40014BF154395439D60DD681AF4001F14BFF3
:1004C4002A4325EA0202DA60013669E7032D25D0C2
:1004D400112D85D1CC68043482E7654509D012D842
:1004E400DFF878904D4504D009F580394D457FF407
:1004F40077AF8C68E4B1012C0CBFC0F81080C0F851
:10050400148008246CE7DFF858904D45F1D009F5C4
:1005140080394D45EDD0A9F58019E7E700245FE760
:10052400CC685DE7CC6808345AE7CC680C3457E7EC
:10053400042455E70025A4E70125A2E70225A0E746
:1005440003259EE704259CE70010024000040140B7
:1005540000080140001C014000002110000011109F
:10056400000031100AB1016170470904FBE7000083
:100574002DE9F341054608B901203CE00368DB0797
:1005840010D42B689F075DD42B68190700F1948061
:100594002B685A0700F1BE80E869002840F02C81DE
:1005A400002028E08F4C636803F00C03042B07D071
:1005B400636803F00C03082B09D16368DE0306D5D6
:1005C40023689C03DDD56B68002BDAD1D4E76B6814
:1005D400B3F5803F12D1236843F480332360FFF7DF
:1005E40061FE064623689803CBD4FFF75BFE801BAD
:1005F4006428F7D9032002B0BDE8F0819BB92368D1
:1006040023F480332360236823F480232360FFF7DB
:1006140049FE064623689903B3D5FFF743FE801BC2
:100624006428F7D9E6E7B3F5A02F236803D143F490
:1006340080232360CFE723F480332360236823F4EB
:100644008023CBE7674C636813F00C0F07D0636813
:1006540003F00C03082B10D16368DA030DD423686C
:100664009B0702D52B69012B86D123686A6923F085
:10067400F80343EAC203236086E72A695A4B6AB146
:1006840001221A60FFF70EFE064623689F07ECD48A
:10069400FFF708FE801B0228F7D9ABE71A60FFF7C3
:1006A40001FE0646236898077FF56EAFFFF7FAFD53
:1006B400801B0228F6D99DE7AA694A4C4B4BDAB154
:1006C40001221A60FFF7EEFD0646636A9B070DD50B
:1006D4004FF4FA52464B1B68B3FBF2F3019300BF8D
:1006E400019B5A1E0192002BF9D151E7FFF7DAFD65
:1006F400801B0228E9D97DE71A60FFF7D3FD06467F
:10070400636A9F077FF544AFFFF7CCFD801B022887
:10071400F6D96FE7334CE369D80024D40127E369A1
:1007240043F08053E361E36903F080530093009B3B
:10073400304E3368D90518D5EB68012B26D1236ACE
:1007440043F001032362FFF7ADFD41F28836804692
:10075400236A9B073FD5002F3FF41EAFE36923F0C4
:100764008053E36118E70027E2E7336843F48073BA
:100774003360FFF797FD80463368DA05DCD4FFF772
:1007840091FDA0EB08006428F6D933E7ABB9236ADE
:1007940041F2883823F001032362236A23F004031F
:1007A4002362FFF77FFD0646236A9807D3D5FFF738
:1007B40079FD801B4045F7D91CE7052B236A03D13B
:1007C40043F004032362BAE723F001032362236A9C
:1007D40023F00403B6E7FFF765FDA0EB0800B04281
:1007E400B6D907E7001002400000424280044242AA
:1007F40008000020007000402A4B5A681C4602F092
:100804000C02082A3DD00023274E022833602BD146
:10081400FFF748FD0746236899011FD42B6AB3F5F7
:10082400803F05D16268A96822F400320A436260FD
:10083400696A62680B4322F47412134363600123F0
:100844003360FFF72FFD054623689A013FF5A8AEF4
:10085400FFF728FD401B0228F6D9CBE6FFF722FD5F
:10086400C01B0228D7D9C5E6FFF71CFD054623683F
:100874009B017FF595AEFFF715FD401B0228F6D9C5
:10088400B8E601283FF4B7AE58682B6A00F480320A
:100894009A427FF471AE6B6A00F47010C01A18BFEC
:1008A4000120A8E6001002406000424230B5194B16
:1008B40087B002AC03F11005224618685968083362
:1008C40003C2AB421446F7D101238DF8043002234E
:1008D40011498DF805304B6803F00C02082A17D132
:1008E400C3F3834206A80244DB0312F8102C0CD590
:1008F4004B680A48C3F34043504306AA134413F811
:10090400143CB0FBF3F007B030BD05485043FAE7A0
:100914000248F8E7940C00080010024000127A0024
:1009240000093D002DE9F0410D46044610B90120AF
:10093400BDE8F081454A136803F007038B4229D3CD
:1009440021688E0731D4CA0744D4404A136803F09F
:1009540007039D4267D322683D4D12F0040F6ED108
:10096400130706D56B68226923F4605343EAC20374
:100974006B60FFF79BFF6B68364AC3F30313D35CCA
:10098400D840354B1860354B1868FFF749FC0020F8
:10099400BDE8F081136823F007030B431360136869
:1009A40003F007039942C2D1CAE7294B11F0040F9F
:1009B4001EBF5A6842F4E0625A60080742BF5A6890
:1009C40042F460525A605A68A06822F0F00202436E
:1009D4005A60B8E762681E4E012A33681BD113F4CB
:1009E400003FA4D0736841F2883823F00303134313
:1009F4007360FFF757FC07467368626803F00C03E3
:100A0400B3EB820FA1D0FFF74DFCC01B4045F3D9D7
:100A14000320BDE8F081022A02D113F0007FE0E751
:100A240013F0020FDDE7136823F007032B43136071
:100A3400136803F007039D427FF479AF8BE76B687B
:100A4400E16823F4E0630B436B6089E70020024014
:100A540000100240A40C000808000020040000203C
:100A640000B591B02822002106A800F0FDF8142258
:100A7400002101A800F0F8F80223069301230A9349
:100A8400102306A80B93FFF773FD00210F2301A881
:100A940001930291039104910591FFF743FF11B073
:100AA4005DF804FB7FB5FFF7DFFBFFF7D9FF1022EA
:100AB400002102A800F0D8F81B4B20219A691B489A
:100AC40042F480729A619A69184C02F4807200921E
:100AD400009A9A6942F004029A619B69002203F029
:100AE40004030193019BFFF73DFD2023029301239F
:100AF400039300230493022302A90C480593FFF7F0
:100B040045FC012220212046FFF72CFD4FF47A708A
:100B1400FFF7CEFB204600222021FFF723FD4FF4F0
:100B24007A70FFF7C5FBECE700100240002001409B
:100B34000E4B82B09A6942F001029A619A6902F0FE
:100B440001020092009ADA6942F08052DA61DB69AC
:100B5400074A03F080530193019B536823F0E06339
:100B640043F00073536002B0704700BF00100240AE
:100B7400000001407047FEE7FEE7FEE7FEE770472E
:100B840070477047FFF782BB0F4B1A6842F00102AF
:100B94001A6059680D4A0A405A601A6822F0847231
:100BA40022F480321A601A6822F480221A605A6889
:100BB40022F4FE025A604FF41F029A604FF0006262
:100BC400034B9A60704700BF001002400000FFF81A
:100BD40000ED00E0002103E00B4B5B58435004316F
:100BE4000A480B4B42189A42F6D30A4A02E0002301
:100BF40042F8043B084B9A42F9D3FFF7C5FF00F0D3
:100C04000FF8FFF74FFF7047BC0C000800000020EE
:100C14000C0000200C0000202C000020FEE7000047
:100C240070B500250C4E0D4CA41BA410A54209D18F
:100C340000F022F800250A4E0A4CA41BA410A54279
:100C440005D170BD56F8253098470135EEE756F8C2
:100C5400253098470135F2E7B40C0008B40C0008BD
:100C6400B40C0008B80C000803460244934200D1B7
:100C7400704703F8011BF9E7F8B500BFF8BC08BCDE
:100C84009E467047F8B500BFF8BC08BC9E46704746
:100C940002030405060708090A0B0C0D0E0F1010B9
:100CA4000000000000000000010203040607080918
:040CB4000902000829
:040CB800E50100084A
:0C0CBC0001000000100000000024F40003
:0400000508000BD90B
:00000001FF
