:020000040800F2
:1000000000800120F50E0008950E0008970E0008EC
:10001000990E00089B0E00089D0E000800000000CD
:100020000000000000000000000000009F0E00081B
:10003000A10E000800000000A30E0008A50E000895
:100040003D0F00083D0F00083D0F00083D0F000860
:100050003D0F00083D0F00083D0F00083D0F000850
:100060003D0F00083D0F00083D0F00083D0F000840
:100070003D0F00083D0F00083D0F00083D0F000830
:100080003D0F00083D0F00083D0F00083D0F000820
:100090003D0F00083D0F00083D0F00083D0F000810
:1000A0003D0F00083D0F00083D0F00083D0F000800
:1000B0003D0F00083D0F00083D0F00083D0F0008F0
:1000C0003D0F00083D0F00083D0F00083D0F0008E0
:1000D0003D0F00083D0F00083D0F00083D0F0008D0
:1000E0003D0F00083D0F00083D0F00083D0F0008C0
:1000F0003D0F00083D0F00083D0F00083D0F0008B0
:100100003D0F00083D0F00083D0F00083D0F00089F
:100110003D0F00083D0F00083D0F00083D0F00088F
:100120003D0F00083D0F00083D0F00083D0F00087F
:1001300000000000000000000000000000000000BF
:1001400000000000000000000000000000000000AF
:10015000000000000000000000000000000000009F
:10016000000000000000000000000000000000008F
:10017000000000000000000000000000000000007F
:10018000000000000000000000000000000000006F
:10019000000000000000000000000000000000005F
:1001A000000000000000000000000000000000004F
:1001B000000000000000000000000000000000003F
:1001C000000000000000000000000000000000002F
:1001D000000000000000000000000000000000001F
:0401E0005FF8E0F1F3
:1001E40010B5054C237833B9044B13B10448AFF36D
:1001F40000800123237010BD0C00002000000000CB
:10020400980F000808B5034B1BB103490348AFF32B
:10021400008008BD0000000010000020980F0008B6
:1002240038B50E4B054618784FF47A73B3FBF0F3E8
:100234000B4A1068B0FBF3F000F092F8044658B98A
:100244000F2D09D8024629464FF0FF3000F054F82C
:10025400044B20461D6038BD012038BD000000203D
:100264000800002004000020074A08B51368032092
:1002740043F01003136000F02DF80020FFF7D0FFC7
:1002840000F06EFD002008BD00200240034A044B2C
:1002940011681B780B441360704700BF28000020CE
:1002A40000000020014B1868704700BF28000020A0
:1002B40038B50446FFF7F6FF0546631C1EBF044B22
:1002C4001B78E418FFF7EEFF401B8442FAD838BDD0
:1002D40000000020074A0002D36800F4E06023F421
:1002E400E0631B041B0C43F0BF6343F4003303437C
:1002F400D360704700ED00E0174B30B5DC68C4F301
:100304000224C4F10703251D042B28BF0423062D52
:100314004FF0010598BF002405FA03F303F1FF33FE
:1003240088BF033C1940A14005FA04F4013C224073
:10033400002842EA01024FEA0212A9BF00F160401C
:10034400064BD2B200F56140BBBF00F00F00D2B241
:1003540080F800231A5430BD00ED00E014ED00E0F5
:100364000138B0F1807F0AD2F021064B064A58606A
:1003740082F823100020072298601A607047012039
:10038400704700BF10E000E000ED00E02DE9F74FFA
:10039400002426466C4F6D4BDFF8B8E1DFF8B8C196
:1003A4000A6832FA06F502D103B0BDE8F08F4FF0C7
:1003B400010808FA06F802EA0802904540F0848031
:1003C4004D68122D00F0B18000F28780022D00F0FC
:1003D400A9807BD8002D00F08C80012D00F0A08036
:1003E4004FF00F09FF2A93BF824606F18045083D6E
:1003F400D0F800B092BFB500D0F804B0AD0009FA4F
:1004040005F82BEA080804FA05F588BF00F1040A88
:1004140048EA0505CAF80050D1F804A01AF0805F34
:1004240052D0BD6926F0030845F00105BD61BD69E0
:1004340008F1804805F00105019508F5803806F0BB
:10044400030B019D4FEA8B0BD8F8085009FA0BF9FE
:1004540025EA09093E4DA8426CD005F58065A842FD
:100464006AD005F58065A84268D005F58065A84284
:1004740066D005F58065A84264D070450CBF05259B
:10048400062505FA0BF545EA0905C8F808501D6864
:100494001AF4803F14BF154395431D605D681AF438
:1004A400003F14BF154395435D609D681AF4801F97
:1004B40014BF154395439D60DD681AF4001F14BFF3
:1004C4002A4325EA0202DA60013669E7032D25D0C2
:1004D400112D85D1CC68043482E7654509D012D842
:1004E400DFF878904D4504D009F580394D457FF407
:1004F40077AF8C68E4B1012C0CBFC0F81080C0F851
:10050400148008246CE7DFF858904D45F1D009F5C4
:1005140080394D45EDD0A9F58019E7E700245FE760
:10052400CC685DE7CC6808345AE7CC680C3457E7EC
:10053400042455E70025A4E70125A2E70225A0E746
:1005440003259EE704259CE70010024000040140B7
:1005540000080140001C014000002110000011109F
:10056400000031102DE9F341054608B901203CE0B3
:100574000368DB0710D42B689F075DD42B68190729
:1005840000F194802B685A0700F1BE80E8690028C6
:1005940040F02C81002028E08F4C636803F00C03AA
:1005A400042B07D0636803F00C03082B09D163689C
:1005B400DE0306D523689C03DDD56B68002BDAD1F6
:1005C400D4E76B68B3F5803F12D1236843F48033DA
:1005D4002360FFF767FE064623689803CBD4FFF732
:1005E40061FE801B6428F7D9032002B0BDE8F081C6
:1005F4009BB9236823F480332360236823F4802386
:100604002360FFF74FFE064623689903B3D5FFF72F
:1006140049FE801B6428F7D9E6E7B3F5A02F2368C9
:1006240003D143F480232360CFE723F48033236092
:10063400236823F48023CBE7674C636813F00C0F23
:1006440007D0636803F00C03082B10D16368DA0346
:100654000DD423689B0702D52B69012B86D123680F
:100664006A6923F0F80343EAC203236086E72A6930
:100674005A4B6AB101221A60FFF714FE064623683A
:100684009F07ECD4FFF70EFE801B0228F7D9ABE7D7
:100694001A60FFF707FE0646236898077FF56EAFDA
:1006A400FFF700FE801B0228F6D99DE7AA694A4C91
:1006B4004B4BDAB101221A60FFF7F4FD0646636A78
:1006C4009B070DD54FF4FA52464B1B68B3FBF2F36C
:1006D400019300BF019B5A1E0192002BF9D151E7EF
:1006E400FFF7E0FD801B0228E9D97DE71A60FFF7D8
:1006F400D9FD0646636A9F077FF544AFFFF7D2FD35
:10070400801B0228F6D96FE7334CE369D80024D460
:100714000127E36943F08053E361E36903F0805305
:100724000093009B304E3368D90518D5EB68012B34
:1007340026D1236A43F001032362FFF7B3FD41F29C
:1007440088368046236A9B073FD5002F3FF41EAFAF
:10075400E36923F08053E36118E70027E2E7336895
:1007640043F480733360FFF79DFD80463368DA05F8
:10077400DCD4FFF797FDA0EB08006428F6D933E733
:10078400ABB9236A41F2883823F001032362236A58
:1007940023F004032362FFF785FD0646236A9807C6
:1007A400D3D5FFF77FFD801B4045F7D91CE7052B08
:1007B400236A03D143F004032362BAE723F001035D
:1007C4002362236A23F00403B6E7FFF76BFDA0EB73
:1007D4000800B042B6D907E70010024000004242C8
:1007E4008004424208000020007000402A4B5A68EE
:1007F4001C4602F00C02082A3DD00023274E022892
:1008040033602BD1FFF74EFD0746236899011FD4AF
:100814002B6AB3F5803F05D16268A96822F40032DF
:100824000A436260696A62680B4322F474121343D8
:10083400636001233360FFF735FD054623689A01A1
:100844003FF5A8AEFFF72EFD401B0228F6D9CBE6F4
:10085400FFF728FDC01B0228D7D9C5E6FFF722FD04
:10086400054623689B017FF595AEFFF71BFD401BF2
:100874000228F6D9B8E601283FF4B7AE58682B6AC7
:1008840000F480329A427FF471AE6B6A00F4701007
:10089400C01A18BF0120A8E60010024060004242BE
:1008A40030B5194B87B002AC03F110052246186825
:1008B4005968083303C2AB421446F7D101238DF8BB
:1008C4000430022311498DF805304B6803F00C0203
:1008D400082A17D1C3F3834206A80244DB0312F8A3
:1008E400102C0CD54B680A48C3F34043504306AA66
:1008F400134413F8143CB0FBF3F007B030BD0548C3
:100904005043FAE70248F8E7B00F0008001002402D
:1009140000127A0000093D002DE9F0410D4604461D
:1009240010B90120BDE8F081454A136803F00703BC
:100934008B4229D321688E0731D4CA0744D4404A54
:10094400136803F007039D4267D322683D4D12F0FC
:10095400040F6ED1130706D56B68226923F4605324
:1009640043EAC2036B60FFF79BFF6B68364AC3F32D
:100974000313D35CD840354B1860354B1868FFF728
:100984004FFC0020BDE8F081136823F007030B43FC
:100994001360136803F007039942C2D1CAE7294BD5
:1009A40011F0040F1EBF5A6842F4E0625A6008074F
:1009B40042BF5A6842F460525A605A68A06822F0F2
:1009C400F00202435A60B8E762681E4E012A336897
:1009D4001BD113F4003FA4D0736841F2883823F08C
:1009E400030313437360FFF75DFC07467368626893
:1009F40003F00C03B3EB820FA1D0FFF753FCC01B31
:100A04004045F3D90320BDE8F081022A02D113F056
:100A1400007FE0E713F0020FDDE7136823F007031C
:100A24002B431360136803F007039D427FF479AFEF
:100A34008BE76B68E16823F4E0630B436B6089E741
:100A44000020024000100240C00F000808000020EF
:100A540004000020044B054A5B68C3F30223D35C03
:100A6400034A1068D840704700100240D00F0008B5
:100A740008000020044B054A5B68C3F3C223D35C1F
:100A8400034A1068D840704700100240D00F000895
:100A94000800002038B505460368C1681A6919249E
:100AA40022F440520A431A6182680069D9680243F9
:100AB400686921F4B05121F00C0102430A43DA6061
:100AC4005A69A96922F440720A435A610D4A934251
:100AD40014D1FFF7CFFF60436C686422A400B0FB1D
:100AE400F4F0B0FBF2F402FB14031B013233B3FB4A
:100AF400F2F3296803EB04138B6038BDFFF7AAFFF8
:100B0400E9E700BF00380140F8B504460E46174631
:100B14001D4621680B6836EA030301D10020F8BDA5
:100B24006B1CF7D095B923680320DA6822F4D072DD
:100B3400DA605A6922F001025A61202384F83930BC
:100B440084F83A30002384F83830F8BDFFF7AAFB64
:100B5400C01B8542DDD2E6E710B5044640B390F8E9
:100B6400393003F0FF021BB980F8382000F01AF97D
:100B74002423226884F83930D368204623F40053B0
:100B8400D360FFF787FF236800201A6922F490429C
:100B94001A615A6922F02A025A61DA6842F4005250
:100BA400DA602023E06384F8393084F83A3010BDE9
:100BB400012010BD2DE9F0411F4690F8393004465C
:100BC400202B0D4690464ED1002949D0002A47D00B
:100BD40090F83830012B46D0012380F838300023B8
:100BE400C363212380F83930FFF75CFB0646A4F881
:100BF4002480A4F82680E38C9BB26BB93B46324632
:100C040040212046FFF780FFA8B9202384F838004C
:100C140084F83930BDE8F081E38C3246013B9BB265
:100C2400E384A3688021B3F5805F20463B460ED160
:100C3400FFF76AFF10B10320BDE8F0812B8822681A
:100C4400C3F308035360236943B90235D3E7FFF7BD
:100C54005BFF0028EFD123682A785A600135CAE780
:100C64000120BDE8F0810220BDE8F08100B591B01B
:100C74002822002106A800F085F91422002101A8E9
:100C840000F080F90223069301230A93102306A897
:100C94000B93FFF767FC00210F2301A80193029136
:100CA400039104910591FFF737FE11B05DF804FB41
:100CB4008FB500250C264FF4E137FFF7D5FAFFF77F
:100CC400D5FF224B22489A69224C42F020029A61B5
:100CD4009A6902F020020292029A9A6942F004028E
:100CE4009A619B69856003F004030393039B1A4B89
:100CF400C56080E88800056146618561C561FFF7CC
:100D04002BFF164B2046A560E56025616661A56151
:100D1400E56184E888004126FFF71EFF54250D2372
:100D240004228DF806300A230DEB02018DF80730FA
:100D3400204664238DF804608DF80550FFF73AFFD0
:100D44004FF47A70FFF7B4FAE9E700BF00100240ED
:100D54006C0000202C0000200038014000480040B6
:100D64000E4B82B09A6942F001029A619A6902F0CC
:100D740001020092009ADA6942F08052DA61DB697A
:100D8400074A03F080530193019B536823F0E06307
:100D940043F00073536002B0704700BF001002407C
:100DA40000000140102210B5044688B00DEB02008B
:100DB400002100F0E7F823682F4A934229D12F4BF2
:100DC40004A99A692E4842F480429A619A6902F40D
:100DD40080420092009A9A6942F004029A619B69E7
:100DE40003F004030193019B4FF400730493022363
:100DF400059303230793FFF7C9FA4FF48063049321
:100E0400002304A91E4805930693FFF7BFFA08B010
:100E140010BD1C4A9342FAD1184B04A9DA691A4846
:100E240042F48022DA61DA6902F480220292029AA0
:100E34009A6942F020029A619B6903F020030393AC
:100E4400039B4FF4807304930223059303230793B6
:100E5400FFF79CFA4FF400730493002304A90A4893
:100E640005930693FFF792FA084A536843F0E06348
:100E740043F030035360CAE70038014000100240D9
:100E840000080140004800400014014000000140F7
:100E94007047FEE7FEE7FEE7FEE7704770477047DE
:100EA400FFF7F4B90F4B1A6842F001021A6059684F
:100EB4000D4A0A405A601A6822F0847222F4803281
:100EC4001A601A6822F480221A605A6822F4FE0218
:100ED4005A604FF41F029A604FF00062034B9A600D
:100EE400704700BF001002400000FFF800ED00E072
:100EF400002103E00B4B5B58435004310A480B4B71
:100F040042189A42F6D30A4A02E0002342F8043B0C
:100F1400084B9A42F9D3FFF7C5FF00F00FF8FFF72B
:100F2400C7FE7047E00F0008000000200C000020FE
:100F34000C000020AC000020FEE7000070B5002586
:100F44000C4E0D4CA41BA410A54209D100F022F8AC
:100F540000250A4E0A4CA41BA410A54205D170BD5D
:100F640056F8253098470135EEE756F8253098476E
:100F74000135F2E7D80F0008D80F0008D80F000891
:100F8400DC0F000803460244934200D1704703F883
:100F9400011BF9E7F8B500BFF8BC08BC9E467047D2
:0C0FA400F8B500BFF8BC08BC9E467047C2
:100FB00002030405060708090A0B0C0D0E0F10109A
:100FC00000000000000000000102030406070809F9
:080FD00000000000010203040F
:040FD8000902000802
:040FDC00E501000823
:0C0FE00001000000100000000024F400DC
:0400000508000EF5EC
:00000001FF
