:020000040800F2
:1000000000800120D9190008791900087B1900081F
:100010007D1900087F190008811900080000000000
:10002000000000000000000000000000831900082C
:1000300085190008000000008719000889190008C8
:10004000211A0008211A0008211A0008211A0008A4
:10005000211A0008211A0008211A0008211A000894
:10006000211A0008211A0008211A0008211A000884
:10007000211A0008211A0008211A0008211A000874
:10008000211A0008211A0008211A0008211A000864
:10009000211A0008211A0008211A0008211A000854
:1000A000211A0008211A0008211A0008211A000844
:1000B000211A0008211A0008211A0008211A000834
:1000C000211A0008211A0008211A0008211A000824
:1000D000211A0008211A0008211A0008211A000814
:1000E000211A0008211A0008211A0008211A000804
:1000F000211A0008211A0008211A0008211A0008F4
:10010000211A0008211A0008211A0008211A0008E3
:10011000211A0008211A0008211A0008211A0008D3
:10012000211A0008211A0008211A0008211A0008C3
:1001300000000000000000000000000000000000BF
:1001400000000000000000000000000000000000AF
:10015000000000000000000000000000000000009F
:10016000000000000000000000000000000000008F
:10017000000000000000000000000000000000007F
:10018000000000000000000000000000000000006F
:10019000000000000000000000000000000000005F
:1001A000000000000000000000000000000000004F
:1001B000000000000000000000000000000000003F
:1001C000000000000000000000000000000000002F
:1001D000000000000000000000000000000000001F
:0401E0005FF8E0F1F3
:1001E40010B5054C237833B9044B13B10448AFF36D
:1001F40000800123237010BD0C00002000000000CB
:100204007C1A000808B5034B1BB103490348AFF33C
:10021400008008BD00000000100000207C1A0008C7
:1002240038B50E4B054618784FF47A73B3FBF0F3E8
:100234000B4A1068B0FBF3F000F0ECFA044658B92E
:100244000F2D09D8024629464FF0FF3000F0AEFAD0
:10025400044B20461D6038BD012038BD000000203D
:100264000800002004000020074A08B51368032092
:1002740043F01003136000F087FA0020FFF7D0FF6B
:1002840001F0F6FA002008BD00200240034A044BA6
:1002940011681B780B441360704700BF28000020CE
:1002A40000000020014B1868704700BF28000020A0
:1002B400F7B5002604460D460196FFF7F3FF2368C1
:1002C40007469A68D20508D50120A36A84F82460F9
:1002D40043F02003A36203B0F0BD5A68D60503D4EB
:1002E400DB6A13F4700F3BD03A4B02201E6801F016
:1002F40001F92368384A1969B6FBF0F01142374A0C
:100304004FD1DE6836490E424BD11969114259D199
:10031400DA68344B1A4214BF2923142300FB03F672
:10032400019B9E4220D96B1C05D05DB1FFF7BAFF3B
:10033400C01B854206D3019B01330193F0E7681C7F
:100344000FD045B9A36A032043F00403A36200233A
:1003540084F82430BFE7FFF7A5FFC01B8542F1D323
:10036400226813689907EAD56FF0120322681360B4
:10037400A36A43F40073A362936803F46023B3F5A0
:10038400602F25D1237B1BBBA36A23F48073A36254
:10039400A06A10F480501BD1A36A43F00103A36246
:1003A40099E71969114203D1D9680E4A11420BD059
:1003B40019690D4A114209D1DB68134214BFFC23A9
:1003C4005423ABE72923A9E75423A7E7FC23A5E794
:1003D400002080E708000020244992249224491236
:1003E4002449920092244900499224000368D86C5D
:1003F40070470000002373B5019390F82430012B5B
:1004040074D001234D6880F82430062D02684FEA29
:1004140085030C6825D82B441F25566B053B9D404E
:1004240026EA050504FA03F32B435363092C4FEA28
:1004340044038D682FD907262344D1681E3B9E4070
:1004440021EA060105FA03F30B43D360A4F1100378
:10045400012B2BD90023002280F82420184602B057
:1004640070BD0C2D0BD82B441F25166B233B9D40D0
:1004740026EA050504FA03F32B431363D6E72B445A
:100484001F25D66A413B9D4026EA050504FA03F37D
:100494002B43D362CAE70726116923449E4021EA0D
:1004A400060105FA03F30B431361CFE7104B9A429D
:1004B40016D193681B02CDD49368102C43F4000327
:1004C4009360C7D10B4B0C4A1B68B3FBF2F20A23AF
:1004D40053430193019B002BBCD0019B013BF8E7E4
:1004E400836A43F0200383620123B4E70223B5E760
:1004F400002401400800002040420F00002373B58F
:100504000193036804469A68D20702D5002002B01A
:1005140070BD9A6842F001029A60124B124A1B683D
:10052400B3FBF2F30193019BC3B9FFF7BBFE06468D
:1005340023689D6815F00105E8D1FFF7B3FE801B21
:100544000228F5D9A36A84F8245043F01003A36267
:10055400E36A012043F00103E362D8E7019B013B16
:10056400E0E700BF0800002040420F0090F824306C
:1005740010B5012B044654D0012380F82430FFF732
:10058400BDFF002849D1A36A274A23F4407323F00E
:10059400010343F48073A3622368934204D1234983
:1005A4004A6812F4702F2ED1A26A22F48012A26239
:1005B4005A68520541BFA26A22F4405242F4805262
:1005C400A262A26A12F480521CBFE26A22F00602FE
:1005D400E262002284F824206FF002021A609A6812
:1005E40002F46022B2F5602F13D10F4A934205D171
:1005F400A2F58062526812F4702F0AD19A6842F40C
:10060400A0029A6010BDA26A42F48012A2624A68F3
:10061400CFE79A6842F48012F3E7002384F8243089
:1006240010BD022010BD00BF00280140002401407D
:1006340038B5036804469A68D20701D4002038BD4F
:100644009A6822F001029A60FFF72CFE054623689F
:100654009B68DB07F2D5FFF725FE401B0228F6D97D
:10066400A36A012043F01003A362E36A43F0010389
:10067400E36238BDF8B50446002877D0836A23B90D
:10068400C36280F8243001F015F92046FFF7D0FF4B
:10069400A36A13F010036BD1002869D1A26A374909
:1006A40022F4885222F0020242F00202A26294E88A
:1006B40024008A42E16904D1B1F5402F08BF4FF408
:1006C4000021267B45EA46052943A568B5F5807FC8
:1006D40035D0012D08BF4FF48073277D012F06D13B
:1006E4007EBBA669013E43EA463343F40063566881
:1006F400B5F5807F26F4694643EA0603536096689D
:100704001F4B03EA060343EA0103936001D0012D62
:1007140020D12369013B1B05D56A25F470052B43C1
:10072400D3629268174B1340994215D10023E362B8
:10073400A36A23F0030343F00103A362F8BD2B462D
:10074400CBE7A66A46F02006A662E66A46F00106F2
:10075400E662CCE70023DFE7A36A23F0120343F049
:100764001003A362E36A43F00103E3620120F8BDCE
:10077400A36A43F01003A362F8E700BF003C014002
:10078400FDF7E1FFFE0E1FFF074A0002D36800F4E5
:10079400E06023F4E0631B041B0C43F0BF6343F4E9
:1007A40000330343D360704700ED00E0174B30B5CE
:1007B400DC68C4F30224C4F10703251D042B28BFFD
:1007C4000423062D4FF0010598BF002405FA03F316
:1007D40003F1FF3388BF033C1940A14005FA04F438
:1007E400013C2240002842EA01024FEA0212A9BF5A
:1007F40000F16040064BD2B200F56140BBBF00F08F
:100804000F00D2B280F800231A5430BD00ED00E08E
:1008140014ED00E00138B0F1807F0AD2F021064BDC
:10082400064A586082F823100020072298601A6054
:1008340070470120704700BF10E000E000ED00E0C9
:100844002DE9F74F002426466C4F6D4BDFF8B8E1D5
:10085400DFF8B8C10A6832FA06F502D103B0BDE880
:10086400F08F4FF0010808FA06F802EA08029045F2
:1008740040F084804D68122D00F0B18000F2878032
:10088400022D00F0A9807BD8002D00F08C80012D72
:1008940000F0A0804FF00F09FF2A93BF824606F1B3
:1008A4008045083DD0F800B092BFB500D0F804B040
:1008B400AD0009FA05F82BEA080804FA05F588BF23
:1008C40000F1040A48EA0505CAF80050D1F804A06A
:1008D4001AF0805F52D0BD6926F0030845F0010587
:1008E400BD61BD6908F1804805F00105019508F571
:1008F400803806F0030B019D4FEA8B0BD8F80850A3
:1009040009FA0BF925EA09093E4DA8426CD005F510
:100914008065A8426AD005F58065A84268D005F5CF
:100924008065A84266D005F58065A84264D070450C
:100934000CBF0525062505FA0BF545EA0905C8F897
:1009440008501D681AF4803F14BF154395431D6079
:100954005D681AF4003F14BF154395435D609D68BC
:100964001AF4801F14BF154395439D60DD681AF483
:10097400001F14BF2A4325EA0202DA60013669E740
:10098400032D25D0112D85D1CC68043482E765452B
:1009940009D012D8DFF878904D4504D009F5803994
:1009A4004D457FF477AF8C68E4B1012C0CBFC0F8DF
:1009B4001080C0F8148008246CE7DFF858904D4587
:1009C400F1D009F580394D45EDD0A9F58019E7E757
:1009D40000245FE7CC685DE7CC6808345AE7CC684C
:1009E4000C3457E7042455E70025A4E70125A2E7C2
:1009F4000225A0E703259EE704259CE7001002409A
:100A04000004014000080140001C014000002110C6
:100A14000000111000003110016800224B6913F42A
:100A2400806310D06FF480634B612023026380F8ED
:100A34003D3080F83E20036C80F83C2043F00403F2
:100A4400036401207047184670472DE9F8430446B3
:100A540017469946C1F307488EB22568B8F1010FCD
:100A64000CBF6B69AB6936EA030314BF0120002095
:100A740008B9BDE8F8836B695A0516D52B6820229E
:100A840043F400732B606FF480636B610023236372
:100A940084F83D2084F83E30226C42F00402226443
:100AA40084F83C300120BDE8F8837B1CD5D0FFF7E7
:100AB400F9FBA0EB0900874201D3002FCDD100231D
:100AC4002022236384F83D2084F83E30226C42F0D7
:100AD4002002E4E770B504460D46164623685B69B8
:100AE4005B0701D5002070BD2046FFF795FFA8B92C
:100AF4006A1CF3D0FFF7D6FB801B854201D3002D7F
:100B0400ECD100232022236384F83D2084F83E3076
:100B1400226C84F83C3042F020022264012070BD33
:100B24002DE9F843044690461F46089EC1F3074941
:100B34008DB22368B9F1010F0CBF5B699B6935EA7B
:100B440003030CBF01230023434502D00020BDE86A
:100B5400F8837B1CEDD0FFF7A5FB801B874201D3F4
:100B6400002FE6D100232022236384F83D2084F85B
:100B74003E30226C84F83C3042F020022264012092
:100B8400BDE8F88370B504460D46164623685B69D4
:100B94001B0601D5002070BD2046FFF73DFFA8B914
:100BA4006A1CF3D0FFF77EFB801B854201D3002D26
:100BB400ECD100232022236384F83D2084F83E30C6
:100BC400226C84F83C3042F020022264012070BD83
:100BD4002DE9FF4115460268984613680B9E43F4BD
:100BE400807313600F4600960A9B00224FF0011198
:100BF4000446FFF795FF18B1012004B0BDE8F08169
:100C0400236807F0FE071F610A9A334616492046F7
:100C1400FFF71BFF0028EFD1236803905A690A9954
:100C240003929B69324603932046039BFFF7AAFF76
:100C340040B1236C042B01BF2268136843F4007392
:100C44001360D9E7B8F1010F236802D1EDB21D6139
:100C5400D3E72A0A1A610A9932462046FFF792FF1F
:100C64000028E6D12368F1E70200010070B50446CC
:100C740008B9012070BD90F83D3003F0FF021BB9A4
:100C840080F83C2000F044FE2423226884F83D30A0
:100C9400136823F00103136000F094FB6568414B73
:100CA4009D424DD8404B9842E3D940492268B0FB5D
:100CB400F1F1536823F03F030B435360136A23F0AD
:100CC4003F03013119431162D169364B21F44F417D
:100CD4009D4221F0FF0100F1FF3048D86D00B0FBC8
:100CE400F5F00130C0F30B03042B38BF04230B438E
:100CF400D3611168206AE36921F0C00103430B4307
:100D040013609168E068236921F40341034321F0EF
:100D1400FF010B439360D168A069636921F0FF016F
:100D240003430B43D3601368002043F001031360B3
:100D34002023206484F83D30206384F83E0070BD95
:100D44001B4B984295D9194E4FF49671B0FBF6F6A9
:100D540022687143536823F03F0333434FF47A7698
:100D64005360136AB1FBF6F123F03F03A9E7A368CC
:100D740053B905EB4503B0FBF3F0431CC3F30B037A
:100D84006BB143F40043B2E719236B43B0FBF3F0B8
:100D9400431CC3F30B0313B143F44043A7E70123FC
:100DA400A5E700BFA08601007F841E0040420F001B
:100DB400FF083D002DE9F743044699460F46904647
:100DC4000C9EFFF76FFA94F83D300546202B03D0B4
:100DD400022003B0BDE8F0830090192301223B49AF
:100DE4002046FFF79DFE0028F2D194F83C30012BF9
:100DF400EED0012384F83C30236820461A68D107DA
:100E040058BF1A6839465CBF42F001021A601A687A
:100E140022F400621A60212384F83D30402384F8D0
:100E24003E30002323640A9B01956362BDF82C3095
:100E340000966385638D42462385254BE3624B46CA
:100E4400FFF7C6FE00282AD00120C2E7FFF79AFE6A
:100E540040B1236C042B01BF2268136843F4007370
:100E64001360F1E7636A27681A4612F8011B3961B7
:100E74006262628D218D013A92B262857A69481E5E
:100E840080B2520720850AD548B15A7802333A61B4
:100E94006362638D0239013B9BB221856385238D97
:100EA4002A4631462046002BD0D1FFF713FE0028F6
:100EB400CFD12268136843F400731360202384F8AD
:100EC4003C0084F83D3084F83E0082E702001000C4
:100ED4000000FFFF2DE9F341054608B901203CE07D
:100EE4000368DB0710D42B689F075DD42B681907B0
:100EF40000F194802B685A0700F1BE80E86900284D
:100F040040F02C81002028E08F4C636803F00C0330
:100F1400042B07D0636803F00C03082B09D1636822
:100F2400DE0306D523689C03DDD56B68002BDAD17C
:100F3400D4E76B68B3F5803F12D1236843F4803360
:100F44002360FFF7AFF9064623689803CBD4FFF775
:100F5400A9F9801B6428F7D9032002B0BDE8F08109
:100F64009BB9236823F480332360236823F480230C
:100F74002360FFF797F9064623689903B3D5FFF773
:100F840091F9801B6428F7D9E6E7B3F5A02F23680D
:100F940003D143F480232360CFE723F48033236019
:100FA400236823F48023CBE7674C636813F00C0FAA
:100FB40007D0636803F00C03082B10D16368DA03CD
:100FC4000DD423689B0702D52B69012B86D1236896
:100FD4006A6923F0F80343EAC203236086E72A69B7
:100FE4005A4B6AB101221A60FFF75CF9064623687E
:100FF4009F07ECD4FFF756F9801B0228F7D9ABE71B
:101004001A60FFF74FF90646236898077FF56EAF1D
:10101400FFF748F9801B0228F6D99DE7AA694A4CD4
:101024004B4BDAB101221A60FFF73CF90646636ABA
:101034009B070DD54FF4FA52464B1B68B3FBF2F3F2
:10104400019300BF019B5A1E0192002BF9D151E775
:10105400FFF728F9801B0228E9D97DE71A60FFF71A
:1010640021F90646636A9F077FF544AFFFF71AF933
:10107400801B0228F6D96FE7334CE369D80024D4E7
:101084000127E36943F08053E361E36903F080538C
:101094000093009B304E3368D90518D5EB68012BBB
:1010A40026D1236A43F001032362FFF7FBF841F2E0
:1010B40088368046236A9B073FD5002F3FF41EAF36
:1010C400E36923F08053E36118E70027E2E733681C
:1010D40043F480733360FFF7E5F880463368DA053C
:1010E400DCD4FFF7DFF8A0EB08006428F6D933E777
:1010F400ABB9236A41F2883823F001032362236ADF
:1011040023F004032362FFF7CDF80646236A980709
:10111400D3D5FFF7C7F8801B4045F7D91CE7052B4B
:10112400236A03D143F004032362BAE723F00103E3
:101134002362236A23F00403B6E7FFF7B3F8A0EBB6
:101144000800B042B6D907E700100240000042424E
:101154008004424208000020007000402A4B5A6874
:101164001C4602F00C02082A3DD00023274E022818
:1011740033602BD1FFF796F80746236899011FD4F3
:101184002B6AB3F5803F05D16268A96822F4003266
:101194000A436260696A62680B4322F4741213435F
:1011A400636001233360FFF77DF8054623689A01E5
:1011B4003FF5A8AEFFF776F8401B0228F6D9CBE638
:1011C400FFF770F8C01B0228D7D9C5E6FFF76AF805
:1011D400054623689B017FF595AEFFF763F8401B36
:1011E4000228F6D9B8E601283FF4B7AE58682B6A4E
:1011F40000F480329A427FF471AE6B6A00F470108E
:10120400C01A18BF0120A8E6001002406000424244
:1012140030B5194B87B002AC03F1100522461868AB
:101224005968083303C2AB421446F7D101238DF841
:101234000430022311498DF805304B6803F00C0289
:10124400082A17D1C3F3834206A80244DB0312F829
:10125400102C0CD54B680A48C3F34043504306AAEC
:10126400134413F8143CB0FBF3F007B030BD054849
:101274005043FAE70248F8E7941A000800100240C5
:1012840000127A0000093D002DE9F0410D460446A4
:1012940010B90120BDE8F081454A136803F0070343
:1012A4008B4229D321688E0731D4CA0744D4404ADB
:1012B400136803F007039D4267D322683D4D12F083
:1012C400040F6ED1130706D56B68226923F46053AB
:1012D40043EAC2036B60FFF79BFF6B68364AC3F3B4
:1012E4000313D35CD840354B1860354B1868FEF7B0
:1012F40097FF0020BDE8F081136823F007030B4338
:101304001360136803F007039942C2D1CAE7294B5B
:1013140011F0040F1EBF5A6842F4E0625A600807D5
:1013240042BF5A6842F460525A605A68A06822F078
:10133400F00202435A60B8E762681E4E012A33681D
:101344001BD113F4003FA4D0736841F2883823F012
:10135400030313437360FEF7A5FF074673686268CF
:1013640003F00C03B3EB820FA1D0FEF79BFFC01B6D
:101374004045F3D90320BDE8F081022A02D113F0DD
:10138400007FE0E713F0020FDDE7136823F00703A3
:101394002B431360136803F007039D427FF479AF76
:1013A4008BE76B68E16823F4E0630B436B6089E7C8
:1013B4000020024000100240B41A00080800002077
:1013C40004000020044B054A5B68C3F30223D35C8A
:1013D400034A1068D840704700100240C41A00083D
:1013E40008000020044B054A5B68C3F3C223D35CA6
:1013F400034A1068D840704700100240C41A00081D
:101404000800002003682DE9F341D907054620D5DB
:10141400354CE369DA0032D40127E36943F08053A1
:10142400E361E36903F080530193019B2F4E33681A
:10143400DB0526D5236A13F4407336D1236A6A6820
:1014440023F44073134323621FB1E36923F08053F1
:10145400E3612868830706D5234AA968536823F4FF
:1014640040430B43536010F010001BD01E4A6969BF
:101474005368002023F480030B43536012E00027D9
:10148400D4E7336843F480733360FEF70BFF804680
:101494003368D805CED4FEF705FFA0EB0800642816
:1014A400F6D9032002B0BDE8F0816A6802F4407204
:1014B4009342C3D001200E4A236A1060002023F413
:1014C400407110602162D907B8D5FEF7EBFE41F2F6
:1014D40088380646236A9A07B0D4FEF7E3FE801BD9
:1014E4004045F7D9DDE700BF00100240007000401E
:1014F40040044242024670B53B4B86B002AD03F154
:1015040010062C4618685968083303C4B3422546AC
:10151400F7D101238DF804300223501E8DF80530D5
:101524000F285ED8DFE800F032515D2D5D5D5D2D42
:101534005D5D5D5D5D5D5D082C4B5968186810F05C
:10154400807037D0C1F3834206A8024412F8100C0D
:10155400CA0341BF5A6806A9C2F34042521844BFA5
:1015640012F8141C224A5B684CBFB2FBF1F2214A08
:101574005B0202FB00F01DD403234000B0FBF3F038
:1015840018E006B0BDE87040FFF742BE40F20231F9
:10159400164A136A1940B1F5817F1FD003F44073D2
:1015A400B3F5007F08D149F64040536A13F0020FA7
:1015B40008BF002006B070BDB3F5407F11D1136899
:1015C4004FF2244013F4003FF2E7FFF70BFF074B01
:1015D4005B68C3F3813301335B00CFE74FF4004012
:1015E400E8E70020E6E700BFA41A00080010024064
:1015F40000127A0000093D0000230160027143716A
:101604008371C37170471FB564230479C271029357
:101614000123C21D009201930A4600682146FFF788
:10162400C9FB04B010BD0000F8B5304C05460022DB
:1016340020460321FFF7E7FF42F21072B5FBF2F3F5
:101644004FF47A7702FB13539BB2B3FBF7F3284EA4
:101654002046F25C0221FFF7D6FF20460222032136
:10166400FFF7D1FF204600220321FFF7CCFFB5FB93
:10167400F7F207FB1252642792B2B2FBF7F220464C
:10168400B25C0221FFF7BFFF204608220321FFF7C7
:10169400BAFF204600220321FFF7B5FFB5FBF7F39D
:1016A40007FB13530A279BB2B3FBF7F32046F25C04
:1016B4000221FFF7A8FF204620220321FFF7A3FF02
:1016C400204600220321FFF79EFFB5FBF7F307FB3B
:1016D4001355ADB2725D20460221FFF794FF2046F8
:1016E400BDE8F84080220321FFF78DBF8000002071
:1016F400B800002030B597B0282200210CA800F0D3
:10170400B3F91422002101A800F0AEF91822002137
:101714000DEB020000F0A8F9012302251093102319
:1017240000240CA811930C95FFF7D4FB0F2321463A
:1017340001A801930294039404940594FFF7A4FD73
:1017440006A806950894FFF75DFE17B030BD0000AB
:10175400BFB50024FEF788FDFFF7CCFF3C4B3D4EA0
:101764009A69304642F010029A619A693A4D02F041
:1017740010020092009A9A69012742F004029A61C9
:101784009A6902F004020192019A9A6942F00802ED
:101794009A619B69314A03F008030293029B304B20
:1017A400F46086E81C004FF4804374613361B461D3
:1017B400F4613462FFF75AFA2A4B28462B604FF43F
:1017C40060230394EB6104940594AC602C732C7532
:1017D4006C602F61FEF74EFF0A2303A9284603938A
:1017E40004970594FEF706FEC0221F4B31461A707B
:1017F400F9225A70A4229A70B022DA7099221A71CE
:1018040092225A7183229A71D822DA7180221A7232
:10181400902216485A724222FFF7EEFE2246062113
:101824001248FFF7F0FE224607211048FFF7EBFEAF
:101834002846FEF79BFE64212846FEF739FD002862
:10184400F6D12846FEF7D2FD80B2FFF7EDFEEFE7B2
:10185400001002402C0000208800002000540040AA
:10186400A086010000240140B80000208000002070
:101874000E4B82B09A6942F001029A619A6902F0B1
:1018840001020092009ADA6942F08052DA61DB695F
:10189400074A03F080530193019B536823F0E063EC
:1018A40043F00073536002B0704700BF0010024061
:1018B4000000014010B5044686B01022002102A8A1
:1018C40000F0D2F82268104B9A421BD103F56C4306
:1018D4009A6902A942F400729A619A690B4802F467
:1018E40000720092009A9A6942F010029A619B6910
:1018F40003F010030193019B012302930323039339
:10190400FEF79EFF06B010BD002401400010014008
:1019140010B5044686B01022002102A800F0A4F8F5
:101924002268114B9A421CD1104C02A9A369104899
:1019340043F00803A361A36903F008030093009B29
:10194400C02302931223039303230593FEF778FF26
:10195400E36943F40013E361E36903F400130193BF
:10196400019B06B010BD00BF0054004000100240AF
:10197400000C01407047FEE7FEE7FEE7FEE7704714
:1019840070477047FEF782BC0F4B1A6842F00102A1
:101994001A6059680D4A0A405A601A6822F0847223
:1019A40022F480321A601A6822F480221A605A687B
:1019B40022F4FE025A604FF41F029A604FF0006254
:1019C400034B9A60704700BF001002400000FFF80C
:1019D40000ED00E0002103E00B4B5B584350043161
:1019E4000A480B4B42189A42F6D30A4A02E00023F3
:1019F40042F8043B084B9A42F9D3FFF7C5FF00F0C5
:101A04000FF8FFF7A5FE7047D41A00080000002065
:101A14000C0000200C000020C4000020FEE70000A1
:101A240070B500250C4E0D4CA41BA410A54209D181
:101A340000F022F800250A4E0A4CA41BA410A5426B
:101A440005D170BD56F8253098470135EEE756F8B4
:101A5400253098470135F2E7CC1A0008CC1A000863
:101A6400CC1A0008D01A000803460244934200D15D
:101A7400704703F8011BF9E7F8B500BFF8BC08BCD0
:101A84009E467047F8B500BFF8BC08BC9E46704738
:101A940002030405060708090A0B0C0D0E0F1010AB
:101AA40002030405060708090A0B0C0D0E0F10109B
:101AB40000000000000000000102030406070809FA
:081AC400000000000102030410
:041ACC000902000803
:041AD000E501000824
:0C1AD40001000000100000000024F400DD
:04000005080019D9FD
:00000001FF
