:020000040800F2
:1000000000800120B1160008D1150008D3150008A2
:10001000D5150008D7150008D91500080000000004
:10002000000000000000000000000000DB150008D8
:10003000DD15000800000000DF150008E1150008CC
:10004000F9160008F9160008F9160008F916000854
:10005000F9160008F9160008F9160008F916000844
:10006000F9160008F9160008F9160008F916000834
:10007000F9160008F9160008F9160008F916000824
:10008000F9160008F9160008F9160008F916000814
:10009000F9160008F9160008F9160008F916000804
:1000A000F9160008F9160008F9160008F9160008F4
:1000B000F9160008F9160008F9160008F9160008E4
:1000C000F9160008F9160008F9160008F9160008D4
:1000D000F9160008F9160008F9160008F9160008C4
:1000E000F9160008F9160008F9160008F9160008B4
:1000F000F9160008F9160008F9160008F9160008A4
:10010000F9160008F9160008F9160008F916000893
:10011000F9160008F9160008F9160008F916000883
:10012000F9160008F9160008F9160008F916000873
:1001300000000000000000000000000000000000BF
:1001400000000000000000000000000000000000AF
:10015000000000000000000000000000000000009F
:10016000000000000000000000000000000000008F
:10017000000000000000000000000000000000007F
:10018000000000000000000000000000000000006F
:10019000000000000000000000000000000000005F
:1001A000000000000000000000000000000000004F
:1001B000000000000000000000000000000000003F
:1001C000000000000000000000000000000000002F
:1001D000000000000000000000000000000000001F
:0401E0005FF8E0F1F3
:1001E40010B5054C237833B9044B13B10448AFF36D
:1001F40000800123237010BD700000200000000067
:100204006825000808B5034B1BB103490348AFF345
:10021400008008BD0000000074000020682500086C
:1002240038B50E4B054618784FF47A73B3FBF0F3E8
:100234000B4A1068B0FBF3F000F0FEFA044658B91C
:100244000F2D09D8024629464FF0FF3000F0C0FABE
:10025400044B20461D6038BD012038BD000000203D
:100264000800002004000020074A08B51368032092
:1002740043F01003136000F099FA0020FFF7D0FF59
:1002840001F018F9002008BD00200240034A044B85
:1002940011681B780B441360704700BF980000205E
:1002A40000000020014B1868704700BF9800002030
:1002B40038B50446FFF7F6FF0546631C1EBF044B22
:1002C4001B78E418FFF7EEFF401B8442FAD838BDD0
:1002D40000000020F7B5002604460D460196FFF7FE
:1002E400E1FF236807469A68D20508D50120A36A6E
:1002F40084F8246043F02003A36203B0F0BD5A687D
:10030400D60503D4DB6A13F4700F3BD03A4B0220BA
:100314001E6800F0A3FE2368384A1969B6FBF0F0A2
:100324001142374A4FD1DE6836490E424BD1196922
:10033400114259D1DA68344B1A4214BF29231423C9
:1003440000FB03F6019B9E4220D96B1C05D05DB1D6
:10035400FFF7A8FFC01B854206D3019B013301931D
:10036400F0E7681C0FD045B9A36A032043F00403E7
:10037400A362002384F82430BFE7FFF793FFC01B78
:100384008542F1D3226813689907EAD56FF0120306
:1003940022681360A36A43F40073A362936803F4AE
:1003A4006023B3F5602F25D1237B1BBBA36A23F401
:1003B4008073A362A06A10F480501BD1A36A43F037
:1003C4000103A36299E71969114203D1D9680E4A5E
:1003D40011420BD019690D4A114209D1DB6813424D
:1003E40014BFFC235423ABE72923A9E75423A7E72D
:1003F400FC23A5E7002080E708000020244992247C
:1004040092244912244992009224490049922400DA
:100414000368D86C70470000002373B5019390F80B
:100424002430012B74D001234D6880F82430062D2C
:1004340002684FEA85030C6825D82B441F25566BA8
:10044400053B9D4026EA050504FA03F32B43536359
:10045400092C4FEA44038D682FD907262344D16819
:100464001E3B9E4021EA060105FA03F30B43D360C9
:10047400A4F11003012B2BD90023002280F824209F
:10048400184602B070BD0C2D0BD82B441F25166BDB
:10049400233B9D4026EA050504FA03F32B4313632B
:1004A400D6E72B441F25D66A413B9D4026EA050525
:1004B40004FA03F32B43D362CAE7072611692344E2
:1004C4009E4021EA060105FA03F30B431361CFE7CB
:1004D400104B9A4216D193681B02CDD49368102C0A
:1004E40043F400039360C7D10B4B0C4A1B68B3FB66
:1004F400F2F20A2353430193019B002BBCD0019BCE
:10050400013BF8E7836A43F0200383620123B4E7E5
:100514000223B5E7002401400800002040420F00F8
:10052400002373B50193036804469A68D20702D581
:10053400002002B070BD9A6842F001029A60124B2A
:10054400124A1B68B3FBF2F30193019BC3B9FFF793
:10055400A9FE064623689D6815F00105E8D1FFF75A
:10056400A1FE801B0228F5D9A36A84F8245043F025
:100574001003A362E36A012043F00103E362D8E7B6
:10058400019B013BE0E700BF0800002040420F0050
:1005940090F8243010B5012B044654D0012380F880
:1005A4002430FFF7BDFF002849D1A36A274A23F46A
:1005B400407323F0010343F48073A36223689342DE
:1005C40004D123494A6812F4702F2ED1A26A22F46E
:1005D4008012A2625A68520541BFA26A22F44052B4
:1005E40042F48052A262A26A12F480521CBFE26AF0
:1005F40022F00602E262002284F824206FF0020254
:100604001A609A6802F46022B2F5602F13D10F4A7F
:10061400934205D1A2F58062526812F4702F0AD178
:100624009A6842F4A0029A6010BDA26A42F4801251
:10063400A2624A68CFE79A6842F48012F3E7002383
:1006440084F8243010BD022010BD00BF00280140F2
:100654000024014038B5036804469A68D20701D4DF
:10066400002038BD9A6822F001029A60FFF71AFE52
:10067400054623689B68DB07F2D5FFF713FE401B92
:100684000228F6D9A36A012043F01003A362E36AA7
:1006940043F00103E36238BDF8B50446002877D07F
:1006A400836A23B9C36280F8243000F025FF204612
:1006B400FFF7D0FFA36A13F010036BD1002869D1B0
:1006C400A26A374922F4885222F0020242F002025E
:1006D400A26294E824008A42E16904D1B1F5402F72
:1006E40008BF4FF40021267B45EA46052943A56847
:1006F400B5F5807F35D0012D08BF4FF48073277D79
:10070400012F06D17EBBA669013E43EA463343F47A
:1007140000635668B5F5807F26F4694643EA06030C
:10072400536096681F4B03EA060343EA0103936090
:1007340001D0012D20D12369013B1B05D56A25F485
:1007440070052B43D3629268174B1340994215D11D
:100754000023E362A36A23F0030343F00103A362CB
:10076400F8BD2B46CBE7A66A46F02006A662E66AE9
:1007740046F00106E662CCE70023DFE7A36A23F034
:10078400120343F01003A362E36A43F00103E3623C
:100794000120F8BDA36A43F01003A362F8E700BF89
:1007A400003C0140FDF7E1FFFE0E1FFF074A000277
:1007B400D36800F4E06023F4E0631B041B0C43F0F3
:1007C400BF6343F400330343D360704700ED00E09C
:1007D400174B30B5DC68C4F30224C4F10703251DAC
:1007E400042B28BF0423062D4FF0010598BF0024D5
:1007F40005FA03F303F1FF3388BF033C1940A1401A
:1008040005FA04F4013C2240002842EA01024FEABE
:100814000212A9BF00F16040064BD2B200F561405C
:10082400BBBF00F00F00D2B280F800231A5430BDD1
:1008340000ED00E014ED00E00138B0F1807F0AD251
:10084400F021064B064A586082F823100020072244
:1008540098601A6070470120704700BF10E000E004
:1008640000ED00E02DE9F74F002426466C4F6D4B58
:10087400DFF8B8E1DFF8B8C10A6832FA06F502D148
:1008840003B0BDE8F08F4FF0010808FA06F802EA59
:100894000802904540F084804D68122D00F0B1802C
:1008A40000F28780022D00F0A9807BD8002D00F093
:1008B4008C80012D00F0A0804FF00F09FF2A93BF18
:1008C400824606F18045083DD0F800B092BFB500DD
:1008D400D0F804B0AD0009FA05F82BEA080804FAC8
:1008E40005F588BF00F1040A48EA0505CAF8005076
:1008F400D1F804A01AF0805F52D0BD6926F0030835
:1009040045F00105BD61BD6908F1804805F00105A8
:10091400019508F5803806F0030B019D4FEA8B0B17
:10092400D8F8085009FA0BF925EA09093E4DA842FE
:100934006CD005F58065A8426AD005F58065A842AB
:1009440068D005F58065A84266D005F58065A842A3
:1009540064D070450CBF0525062505FA0BF545EA5C
:100964000905C8F808501D681AF4803F14BF1543E0
:1009740095431D605D681AF4003F14BF1543954309
:100984005D609D681AF4801F14BF154395439D60F4
:10099400DD681AF4001F14BF2A4325EA0202DA6054
:1009A400013669E7032D25D0112D85D1CC68043497
:1009B40082E7654509D012D8DFF878904D4504D018
:1009C40009F580394D457FF477AF8C68E4B1012C8B
:1009D4000CBFC0F81080C0F8148008246CE7DFF85E
:1009E40058904D45F1D009F580394D45EDD0A9F524
:1009F4008019E7E700245FE7CC685DE7CC6808343A
:100A04005AE7CC680C3457E7042455E70025A4E7DB
:100A14000125A2E70225A0E703259EE704259CE71C
:100A2400001002400004014000080140001C014085
:100A34000000211000001110000031102DE9F341D5
:100A4400054608B901203CE00368DB0710D42B6895
:100A54009F075DD42B68190700F194802B685A070F
:100A640000F1BE80E869002840F02C81002028E0D5
:100A74008F4C636803F00C03042B07D0636803F006
:100A84000C03082B09D16368DE0306D523689C0395
:100A9400DDD56B68002BDAD1D4E76B68B3F5803F02
:100AA40012D1236843F480332360FFF7FBFB06462F
:100AB40023689803CBD4FFF7F5FB801B6428F7D990
:100AC400032002B0BDE8F0819BB9236823F480338E
:100AD4002360236823F480232360FFF7E3FB0646A7
:100AE40023689903B3D5FFF7DDFB801B6428F7D98E
:100AF400E6E7B3F5A02F236803D143F480232360F2
:100B0400CFE723F480332360236823F48023CBE7E7
:100B1400674C636813F00C0F07D0636803F00C0391
:100B2400082B10D16368DA030DD423689B0702D520
:100B34002B69012B86D123686A6923F0F80343EA01
:100B4400C203236086E72A695A4B6AB101221A60FC
:100B5400FFF7A8FB064623689F07ECD4FFF7A2FB28
:100B6400801B0228F7D9ABE71A60FFF79BFB064608
:100B7400236898077FF56EAFFFF794FB801B02286C
:100B8400F6D99DE7AA694A4C4B4BDAB101221A60A7
:100B9400FFF788FB0646636A9B070DD54FF4FA52AC
:100BA400464B1B68B3FBF2F3019300BF019B5A1E33
:100BB4000192002BF9D151E7FFF774FB801B022847
:100BC400E9D97DE71A60FFF76DFB0646636A9F0764
:100BD4007FF544AFFFF766FB801B0228F6D96FE769
:100BE400334CE369D80024D40127E36943F08053EC
:100BF400E361E36903F080530093009B304E336854
:100C0400D90518D5EB68012B26D1236A43F00103DB
:100C14002362FFF747FB41F288368046236A9B072D
:100C24003FD5002F3FF41EAFE36923F08053E36107
:100C340018E70027E2E7336843F480733360FFF773
:100C440031FB80463368DA05DCD4FFF72BFBA0EBDD
:100C540008006428F6D933E7ABB9236A41F288382F
:100C640023F001032362236A23F004032362FFF7C2
:100C740019FB0646236A9807D3D5FFF713FB801B9D
:100C84004045F7D91CE7052B236A03D143F004033D
:100C94002362BAE723F001032362236A23F00403E7
:100CA400B6E7FFF7FFFAA0EB0800B042B6D907E7B2
:100CB400001002400000424280044242080000202A
:100CC400007000402A4B5A681C4602F00C02082AA5
:100CD4003DD00023274E022833602BD1FFF7E2FAE0
:100CE4000746236899011FD42B6AB3F5803F05D1C9
:100CF4006268A96822F400320A436260696A626821
:100D04000B4322F474121343636001233360FFF72F
:100D1400C9FA054623689A013FF5A8AEFFF7C2FA5F
:100D2400401B0228F6D9CBE6FFF7BCFAC01B022809
:100D3400D7D9C5E6FFF7B6FA054623689B017FF5C8
:100D440095AEFFF7AFFA401B0228F6D9B8E60128A2
:100D54003FF4B7AE58682B6A00F480329A427FF4AD
:100D640071AE6B6A00F47010C01A18BF0120A8E6B7
:100D7400001002406000424230B5194B87B002AC0B
:100D840003F11005224618685968083303C2AB42C0
:100D94001446F7D101238DF80430022311498DF84C
:100DA40005304B6803F00C02082A17D1C3F38342C1
:100DB40006A80244DB0312F8102C0CD54B680A4831
:100DC400C3F34043504306AA134413F8143CB0FB46
:100DD400F3F007B030BD05485043FAE70248F8E79E
:100DE400802500080010024000127A0000093D002E
:100DF4002DE9F0410D46044610B90120BDE8F0810B
:100E0400454A136803F007038B4229D321688E07F0
:100E140031D4CA0744D4404A136803F007039D42FF
:100E240067D322683D4D12F0040F6ED1130706D527
:100E34006B68226923F4605343EAC2036B60FFF7D3
:100E44009BFF6B68364AC3F30313D35CD840354B1E
:100E54001860354B1868FFF7E3F90020BDE8F0810E
:100E6400136823F007030B431360136803F00703AD
:100E74009942C2D1CAE7294B11F0040F1EBF5A6828
:100E840042F4E0625A60080742BF5A6842F4605272
:100E94005A605A68A06822F0F00202435A60B8E728
:100EA40062681E4E012A33681BD113F4003FA4D09C
:100EB400736841F2883823F0030313437360FFF728
:100EC400F1F907467368626803F00C03B3EB820F11
:100ED400A1D0FFF7E7F9C01B4045F3D90320BDE8D3
:100EE400F081022A02D113F0007FE0E713F0020F31
:100EF400DDE7136823F007032B431360136803F043
:100F040007039D427FF479AF8BE76B68E16823F4B4
:100F1400E0630B436B6089E700200240001002404D
:100F2400A82500080800002004000020044B054AFE
:100F34005B68C3F30223D35C034A1068D84070474C
:100F440000100240B825000808000020044B054AA0
:100F54005B68C3F3C223D35C034A1068D84070476C
:100F640000100240B82500080800002003682DE99D
:100F7400F341D907054620D5354CE369DA0032D46C
:100F84000127E36943F08053E361E36903F080538D
:100F94000193019B2F4E3368DB0526D5236A13F496
:100FA400407336D1236A6A6823F44073134323627F
:100FB4001FB1E36923F08053E3612868830706D5F2
:100FC400234AA968536823F440430B43536010F049
:100FD40010001BD01E4A69695368002023F4800363
:100FE4000B43536012E00027D4E7336843F4807363
:100FF4003360FFF757F980463368D805CED4FFF73E
:1010040051F9A0EB08006428F6D9032002B0BDE82A
:10101400F0816A6802F440729342C3D001200E4A00
:10102400236A1060002023F4407110602162D90704
:10103400B8D5FFF737F941F288380646236A9A078C
:10104400B0D4FFF72FF9801B4045F7D9DDE700BF87
:10105400001002400070004040044242024670B555
:101064003B4B86B002AD03F110062C461868596854
:10107400083303C4B3422546F7D101238DF8043065
:101084000223501E8DF805300F285ED8DFE800F0EB
:1010940032515D2D5D5D5D2D5D5D5D5D5D5D5D0868
:1010A4002C4B5968186810F0807037D0C1F3834214
:1010B40006A8024412F8100CCA0341BF5A6806A9D4
:1010C400C2F34042521844BF12F8141C224A5B680F
:1010D4004CBFB2FBF1F2214A5B0202FB00F01DD4CB
:1010E40003234000B0FBF3F018E006B0BDE8704005
:1010F400FFF742BE40F20231164A136A1940B1F5B5
:10110400817F1FD003F44073B3F5007F08D149F603
:101114004040536A13F0020F08BF002006B070BDB0
:10112400B3F5407F11D113684FF2244013F4003F0C
:10113400F2E7FFF70BFF074B5B68C3F3813301331F
:101144005B00CFE74FF40040E8E70020E6E700BF8C
:10115400902500080010024000127A0000093D00AA
:1011640038B505460368C1681A69192422F4405247
:101174000A431A6182680069D9680243686921F4E4
:10118400B05121F00C0102430A43DA605A69A9699B
:1011940022F440720A435A610D4A934214D1FFF774
:1011A400D5FE60436C686422A400B0FBF4F0B0FB8D
:1011B400F2F402FB14031B013233B3FBF2F329688C
:1011C40003EB04138B6038BDFFF7B0FEE9E700BF03
:1011D40000380140F8B504460E4617461D462168FE
:1011E4000B6836EA030301D10020F8BD6B1CF7D06D
:1011F40095B923680320DA6822F4D072DA605A6958
:1012040022F001025A61202384F8393084F83A30FC
:10121400002384F83830F8BDFFF744F8C01B85423A
:10122400DDD2E6E710B5044640B390F8393003F058
:10123400FF021BB980F8382000F08CF924232268BF
:1012440084F83930D368204623F40053D360FFF781
:1012540087FF236800201A6922F490421A615A69B0
:1012640022F02A025A61DA6842F40052DA6020233A
:10127400E06384F8393084F83A3010BD012010BDA1
:101284002DE9F0411F4690F839300446202B0D46D5
:1012940090464ED1002949D0002A47D090F83830E2
:1012A400012B46D0012380F838300023C363212367
:1012B40080F83930FEF7F6FF0646A4F82480A4F837
:1012C4002680E38C9BB26BB93B46324640212046D4
:1012D400FFF780FFA8B9202384F8380084F8393058
:1012E400BDE8F081E38C3246013B9BB2E384A36802
:1012F4008021B3F5805F20463B460ED1FFF76AFF9D
:1013040010B10320BDE8F0812B882268C3F30803E1
:101314005360236943B90235D3E7FFF75BFF002825
:10132400EFD123682A785A600135CAE70120BDE865
:10133400F0810220BDE8F08130B597B02822002169
:101344000CA800F003FA1422002101A800F0FEF911
:10135400182200210DEB020000F0F8F90123022508
:101364001093102300240CA811930C95FFF766FB2F
:101374000F23214601A80193029403940494059435
:10138400FFF736FD06A806950894FFF7EFFD17B0A2
:1013940030BD0000F0B589B0FEF766FFFFF7CCFF63
:1013A400102200210DEB020000F0D0F93A4B04A901
:1013B4009A693A4842F008029A619A69384C02F0F4
:1013C40008020192019A9A69002542F480729A6196
:1013D4009A69012602F480720292029A9A6902279B
:1013E40042F004029A619B6903F004030393039B94
:1013F40040230493FFF736FA2A4B204623604FF428
:101404008073A3604FF460230495059506952573B6
:10141400E36165602675A6612761FFF73DF908233E
:1014240004A92046049306950596FEF7F5FF0923C3
:1014340004A9204604930597FEF7EEFF4FF4E13329
:1014440019481A4A856080E80C000C23C5600561C0
:101454008561C5614361FFF7E5FE154D2046FFF741
:1014640097F80A212046FEF735FF2046FEF7D0FF05
:1014740006462046FFF78CF80A212046FEF72AFF8D
:101484002046FEF7C5FF31460246284600F066F9BD
:101494000A20FEF70DFFE1E70010024000200140A2
:1014A4009C00002000240140CC00002000380140B2
:1014B400A02500080E4B82B09A6942F001029A619D
:1014C4009A6902F001020092009ADA6942F08052AD
:1014D400DA61DB69074A03F080530193019B536887
:1014E40023F0E06343F00073536002B0704700BF21
:1014F400001002400000014010B5044686B01022DE
:10150400002102A800F022F92268104B9A421AD155
:1015140003F56C439A6902A942F400729A619A69CC
:101524000B4802F400720092009A9A6942F0080291
:101534009A619B6903F008030193019B03230293BF
:101544000393FFF78FF906B010BD00BF00240140DC
:10155400000C014010B5044686B01022002102A8F8
:1015640000F0F4F82268174B9A4228D103F5584347
:101574009A6902A942F480429A619A69124802F473
:1015840080420092009A9A6942F004029A619B692F
:1015940003F004030193019B4FF4007302930223AD
:1015A400039303230593FFF75DF94FF480630293DC
:1015B400002302A9044803930493FFF753F906B0E8
:1015C40010BD00BF00380140000801407047FEE72D
:1015D400FEE7FEE7FEE7704770477047FEF756BE2A
:1015E40070B50E4615460C46A31B9D4201DC2846E9
:1015F40070BDAFF3008004F8010BF5E710B5642368
:101604001446034892B2FFF73BFE204610BD00BFCC
:10161400CC00002008B50A4B0246196809B90949EB
:1016240019606946186802448A4206D900F064F8D1
:101634000C2303604FF0FF3008BD1A6008BD00BFE3
:101644008C000020100100204FF0FF3070474FF451
:10165400005300204B607047012070470020704702
:101664000F4B1A6842F001021A6059680D4A0A4089
:101674005A601A6822F0847222F480321A601A685E
:1016840022F480221A605A6822F4FE025A604FF44F
:101694001F029A604FF00062034B9A60704700BFCC
:1016A400001002400000FFF800ED00E0002103E01C
:1016B4000B4B5B58435004310A480B4B42189A4277
:1016C400F6D30A4A02E0002342F8043B084B9A424C
:1016D400F9D3FFF7C5FF00F015F8FFF75BFE70477D
:1016E4006026000800000020700000207000002028
:1016F40010010020FEE70000014B1868704700BF8E
:101704000C00002070B500250C4E0D4CA41BA41039
:10171400A54209D100F026FF00250A4E0A4CA41B5D
:10172400A410A54205D170BD56F82530984701355F
:10173400EEE756F8253098470135F2E758260008B9
:1017440058260008582600085C2600080346024470
:10175400934200D1704703F8011BF9E70FB40A4B19
:1017640013B51C6824B1A36913B9204600F04EF8E0
:1017740005AB049AA1682046019300F057F902B022
:10178400BDE8104004B070470C000020014900F08F
:10179400A9B800BF09230008002310B5044603605C
:1017A4004360836081814366C281036143618361D5
:1017B400194608225C30FFF7C9FF054B24626362B7
:1017C400044BA362044BE362044B236310BD00BFCC
:1017D400AD1F0008CF1F0008072000082B200008B9
:1017E40070B568254A1E55430E4605F1740100F094
:1017F40097F8044640B1002180E842000C30A06014
:1018040005F16802FFF7A2FF204670BD836910B599
:10181400044633BB8364C3640365124B124A1B68DA
:101824008262984204BF0123836100F01FF8606064
:10183400204600F01BF8A060204600F017F80022B4
:10184400E06004216068FFF7A7FF01220921A06876
:10185400FFF7A2FF02221221E068FFF79DFF012398
:10186400A36110BDC025000891170008F8B51C4BF2
:1018740007461E68B36913B93046FFF7C7FF4836F9
:10188400B4687368013B03D5336833B13668F7E74E
:10189400B4F90C506DB16834F4E704213846FFF70D
:1018A4009FFF30600028F1D10C2304463B602046A2
:1018B400F8BD4FF6FF73E38101236566A3812560BC
:1018C400A560656025616561A5610822294604F16A
:1018D4005C00FFF73BFF6563A563A564E564E6E789
:1018E400C02500082DE9F84380468946002600F10A
:1018F400480414B93046BDE8F883A5686768013F19
:1019040001D52468F5E7AB89012B07D9B5F90E3069
:10191400013303D029464046C84706436835EEE7FD
:1019240070B5CD1C25F0030508350C2D38BF0C25EA
:10193400002D064601DBA94203D90C2333600020A5
:1019440070BD00F08DFD234A1468214691B9224CE4
:1019540023681BB9304600F017FB20602946304647
:1019640000F012FB431C26D10C233046336000F0F8
:1019740078FDE4E70B685B1B1AD40B2B0FD90B60C3
:10198400CC18CD50304600F06CFD04F10B00231D43
:1019940020F00700C31A1BD05A42E25070BD8C429B
:1019A4000BBF63684B681360636018BF0C46E9E7BC
:1019B4000C464968CAE7C41C24F00304A04205D0BD
:1019C400211A304600F0E0FA0130CDD02560D9E785
:1019D40070BD00BF9000002094000020936810B4F4
:1019E400013B002B936008DA9469A34202DBCBB27B
:1019F4000A2B02D110BC00F01BBB1368581C1060EA
:101A04001970C8B210BC7047F8B506460F461446A4
:101A1400D518AC4201D1002007E03A4614F8011B66
:101A24003046FFF7DBFF431CF3D1F8BD2DE9F04F3F
:101A34009DB00C4617460393064618B183690BB94B
:101A4400FFF7E4FE7C4B9C4257D17468A3891807C6
:101A54005DD52369002B5AD00023099320238DF8E8
:101A6400293030234FF0010B8DF82A30B846454613
:101A740015F8013B002B55D1B8EB070A0BD05346A0
:101A84003A4621463046FFF7BFFF013000F0C480DC
:101A9400099B5344099398F80030002B00F0BC8054
:101AA40000234FF0FF3204930793059206938DF8B9
:101AB40053301A9305222978604800F0C3FC05F1DD
:101AC4000108049B002831D1D90644BF20228DF897
:101AD40053201A0744BF2B228DF853202A782A2A30
:101AE4002CD000210A20079AA84698F80030013526
:101AF400303B092B6DD971B326E0514B9C4201D187
:101B0400B468A3E74F4B9C4208BFF4689EE72146A4
:101B1400304600F0F1FA00289ED04FF0FF301DB09F
:101B2400BDE8F08F252BA7D0A846A0E7434A454639
:101B3400801A0BFA00F018430490BBE7039A111DB6
:101B440012680391002A01DB079204E0524243F039
:101B540002030792049398F800302E2B10D198F8C2
:101B6400013008F101012A2B37D1039B08F1020847
:101B74001A1D1B680392002BB8BF4FF0FF33059367
:101B8400314D032298F80010284600F05BFC40B168
:101B94004023401B03FA00F0049B08F101080343AF
:101BA400049398F800100622284808F101078DF8DC
:101BB400281000F047FC002834D0254B03BB039BBE
:101BC400073323F0070308330393099B4B4409931A
:101BD4004CE700FB0232012186E700230A25184660
:101BE4000593884698F800200131303A092A03D930
:101BF400002BC5D00590C3E705FB00200123F0E7C7
:101C040003AB00932246134B04A93046AFF3008084
:101C1400B0F1FF3F8146D8D1A3895B063FF57DAF84
:101C240009987CE703AB009322460A4B04A930468B
:101C340000F08AF8ECE700BFE42500082426000839
:101C440004260008C42500082A2600082E260008B9
:101C5400000000000D1A00082DE9F04791461F46C8
:101C64008A680B6906469342B8BF1346C9F8003028
:101C740091F843200C46DDF8208012B10133C9F8F5
:101C840000302368990642BFD9F800300233C9F8FE
:101C94000030256815F0060507D104F1190AE36838
:101CA400D9F800209B1A9D422ADB94F8433022681D
:101CB400003318BF012392062FD404F1430239469E
:101CC4003046C047013022D02368E56803F006039C
:101CD400042B18BF0025D9F800204FF0000908BFD5
:101CE400AD1AA368226908BF25EAE5759342C4BF0B
:101CF4009B1AED181A344D451BD10020BDE8F0871E
:101D04000123524639463046C047013003D14FF0D3
:101D1400FF30BDE8F0870135C1E73020E11881F8D4
:101D240043005A1C94F845102244023382F84310AD
:101D3400C3E70123224639463046C0470130E6D086
:101D440009F10109D7E700002DE9F04317460A7E9F
:101D540085B06E2A984606460C460C9B01F1430E4C
:101D640000F0BC801AD8632A2ED00AD8002A00F0CA
:101D7400C880582A00F08A8004F1420584F8422081
:101D84002AE0642A01D0692AF6D121681A6811F080
:101D9400800F23D0111D1960136827E0732A00F007
:101DA400B48008D86F2A2AD0702AE5D10A6842F094
:101DB40020020A6003E0752A21D0782ADCD1782237
:101DC4006F4984F8452064E01A6801F14205111D49
:101DD4001960136884F842300123A3E011F0400F26
:101DE40002F104011960D7D0B2F90030002B03DAF4
:101DF4002D225B4284F8432062490A2217E02068BE
:101E0400196810F0800F03D0081D18600B6806E0F5
:101E140010F0400F01F104001860F7D00B886F2A0E
:101E240014BF0A2208225749002084F84300656839
:101E3400002DA560C0F29C80206820F00400206082
:101E4400002B3FD1002D40F095807546082A0BD118
:101E54002368DA0708D5236962689A42DEBF302313
:101E640005F8013C05F1FF35AEEB05032361CDF820
:101E740000803B4603AA21463046FFF7EDFE0130C1
:101E840055D14FF0FF3005B0BDE8F08381F845200F
:101E94003C492268186812F0800F00F104051D60A7
:101EA40001D0036802E05506FBD50388D00744BF80
:101EB40042F0200222601BB9226822F02002226034
:101EC4001022B1E77546B3FBF2F002FB1033CB5C92
:101ED40005F8013D03460028F5D1B7E708681A68FC
:101EE40010F0800F496904D0101D18601368196040
:101EF40007E010F0400F02F1040018601368F6D0F8
:101F04001980002375462361B1E71A68111D196011
:101F1400156800216268284600F094FA08B1401B55
:101F2400606063682361002384F843309FE723697A
:101F34002A4639463046C0470130A2D023689B0761
:101F440007D5002504F11909E368039A9B1A9D42F9
:101F540005DBE068039B9842B8BF184693E701236A
:101F64004A4639463046C04701308AD00135EBE74E
:101F7400002BA7D10B7804F1420584F8423065E7C1
:101F8400462600083526000838B50023054C0546CA
:101F940008462360FFF73EFB431C02D1236803B1CC
:101FA4002B6038BD0C01002010B50C46B1F90E10A1
:101FB40000F0A4FA0028ABBF636DA3891B1823F4B7
:101FC4008053ACBF6365A38110BD2DE9F0411F466A
:101FD4008B890546DB050C46164605D502230022EF
:101FE400B1F90E1000F0B8F9A389324623F48053F6
:101FF400A381B4F90E103B462846BDE8F04100F039
:1020040069B810B50C46B1F90E1000F0A5F9431CDF
:10201400A38915BF606523F4805343F48053A381DF
:1020240018BFA38110BDB1F90E1000F0D3B80000A1
:10203400F8B50E461446054618B183690BB9FFF787
:10204400E5FB214B9C422AD16C68A369A360A38958
:102054001A072ED5236963B323692068F6B2C01A20
:1020640063693746984204DB2146284600F04AF962
:1020740028BBA3680130013BA36023685A1C22607B
:102084001E706369984204D0A389DB0719D50A2E10
:1020940017D12146284600F035F990B10FE00B4BDB
:1020A4009C4201D1AC68D0E7094B9C4208BFEC6864
:1020B400CBE72146284600F01FF80028CCD04FF08B
:1020C400FF373846F8BD00BFE425000804260008A1
:1020D400C425000838B50546084611460022054CBB
:1020E40022601A46FFF78AFA431C02D1236803B11F
:1020F4002B6038BD0C010020324B70B51D680646BC
:102104000C4625B1AB6913B92846FFF77FFB2E4B6C
:102114009C420FD16C68B4F90C309AB215072CD4D8
:10212400D00611D40922326043F04003A3814FF05A
:10213400FF3070BD254B9C4201D1AC68EBE7244BCA
:102144009C4208BFEC68E6E7510712D5616B41B1C8
:1021540004F14403994202D0304600F083F900238D
:102164006363A38923F02403A381002363602369A9
:102174002360A38943F00803A38123694BB9A3898E
:1021840003F42073B3F5007F03D02146304600F0FA
:1021940019F9A28912F001030CD00023A36063692A
:1021A4005B42A361236953B9B4F90C3013F0800086
:1021B400BAD170BD920758BF6369A360F2E70020EB
:1021C400F7E700BF0C000020E425000804260008FF
:1021D400C425000838B50023054C0546084623608D
:1021E400FFF732FA431C02D1236803B12B6038BDD8
:1021F4000C0100208A892DE9F041054610070C46A0
:102204005AD44B68002B05DC0B6C002B02DC00203D
:10221400BDE8F081E66A002EF9D0002312F4805262
:102224002F682B6033D0606DA3895A0705D5636886
:10223400C01A636B0BB1236CC01A00230246E66A12
:10224400216A2846B047431CA38906D129681D2961
:102254004BD82B4ACA40D60747D500226260226970
:10226400D904226004D5421C01D12B6803B96065EE
:10227400616B2F600029CAD004F14403994202D053
:10228400284600F0EFF800206063BDE8F081216A81
:1022940001232846B047411CC6D12B68002BC3D06C
:1022A4001D2B01D0162B01D12F60B0E7A38943F079
:1022B4004003A381BDE8F0810F69002FA7D09307E5
:1022C40018BF00230E6808BF4B69A6EB07080F6010
:1022D4008B60B8F1000F9ADD43463A46216A2846DE
:1022E400A66AB047002807DCA38943F04003A38112
:1022F4004FF0FF30BDE8F0810744A8EB0008E8E7A1
:102304000100402038B50B6905460C46DBB118B115
:1023140083690BB9FFF77AFA0C4B9C4209D16C68BC
:10232400B4F90C307BB121462846BDE83840FFF7AC
:1023340061BF074B9C4201D1AC68F1E7054B9C425D
:1023440008BFEC68ECE7002038BD00BFE4250008B6
:1023540004260008C425000838B505460846114679
:102364000022054C22601A46FFF778F9431C02D17B
:10237400236803B12B6038BD0C01002070B50E46F4
:10238400B1F90E1090B0002914461D4607DA002357
:102394002B60B3891A0610D44FF480630EE001AAAF
:1023A40000F0BEF80028F2DB029A02F47042A2F5B3
:1023B40000535A425A412A60EEE74023002023602A
:1023C40010B070BD8B8973B59D0706460C4607D5C2
:1023D40004F14703236023610123636102B070BDEC
:1023E40001AB6A46FFF7CAFF009905463046FFF77E
:1023F40097FA48B9B4F90C309A05EFD423F00303E3
:1024040043F00203A381E3E70D4BB362A389206089
:1024140043F08003A381009B20616361019B5BB156
:10242400B4F90E10304600F08DF828B1A38923F0DA
:10243400030343F00103A381A3891D43A581CDE7D1
:102444009117000810B5C9B202449042034601D165
:10245400002010BD1C7801308C42F6D1184610BD06
:102464007047704738B50546002943D051F8043CFD
:102474000C1F002BB8BFE418FFF7F2FF1E4A1368C5
:10248400104633B9636014602846BDE83840FFF74E
:10249400E8BFA3420BD921686218934201BF1A68AE
:1024A4005B685218226063600460EDE713465A6863
:1024B4000AB1A242FAD919685818A0420BD120686F
:1024C4000144581882421960DED1106852680144F0
:1024D40019605A60D8E702D90C232B60D4E720682E
:1024E40021188A4201BF116852680918216062608C
:1024F4005C60C9E738BD00BF9000002038B50546D0
:10250400084611460022054C22601A46FFF768F877
:10251400431C02D1236803B12B6038BD0C01002099
:1025240038B50023064C0546084611462360FFF7DC
:102534008EF8431C02D1236803B12B6038BD00BF61
:102544000C01002038B50023054C054608462360DD
:10255400FFF782F8431C02D1236803B12B6038BD16
:102564000C010020F8B500BFF8BC08BC9E467047BB
:0C257400F8B500BFF8BC08BC9E467047DC
:1025800002030405060708090A0B0C0D0E0F1010B4
:1025900002030405060708090A0B0C0D0E0F1010A4
:1025A00025642C25640D0A000000000000000000D6
:1025B00001020304060708090000000001020304E9
:1025C00010000020000000000000000000000000DB
:1025D00000000000000000000000000000000000FB
:1025E00000000000000000000000000000000000EB
:1025F00000000000000000000000000000000000DB
:1026000000000000000000000000000000000000CA
:1026100000000000000000000000000000000000BA
:1026200000000000232D302B2000686C4C006566F4
:102630006745464700303132333435363738394113
:102640004243444546003031323334353637383929
:0826500061626364656600002D
:04265800090200086B
:04265C00E50100088C
:1026600001000000100000000024F4001000002011
:1026700000000000E425000804260008C425000826
:10268000000000000000000000000000000000004A
:10269000000000000000000000000000000000003A
:1026A000000000000000000000000000000000002A
:1026B000000000000000000000000000000000001A
:1026C000000000000000000000000000000000000A
:04000005080016B128
:00000001FF
