:020000040800F2
:1000000000800120F11100089111000893110008EF
:1000100095110008971100089911000800000000D0
:100020000000000000000000000000009B1100081C
:100030009D110008000000009F110008A111000898
:100040003912000839120008391200083912000864
:100050003912000839120008391200083912000854
:100060003912000839120008391200083912000844
:100070003912000839120008391200083912000834
:100080003912000839120008391200083912000824
:100090003912000839120008391200083912000814
:1000A0003912000839120008391200083912000804
:1000B00039120008391200083912000839120008F4
:1000C00039120008391200083912000839120008E4
:1000D00039120008391200083912000839120008D4
:1000E00039120008391200083912000839120008C4
:1000F00039120008391200083912000839120008B4
:1001000039120008391200083912000839120008A3
:100110003912000839120008391200083912000893
:100120003912000839120008391200083912000883
:1001300000000000000000000000000000000000BF
:1001400000000000000000000000000000000000AF
:10015000000000000000000000000000000000009F
:10016000000000000000000000000000000000008F
:10017000000000000000000000000000000000007F
:10018000000000000000000000000000000000006F
:10019000000000000000000000000000000000005F
:1001A000000000000000000000000000000000004F
:1001B000000000000000000000000000000000003F
:1001C000000000000000000000000000000000002F
:1001D000000000000000000000000000000000001F
:0401E0005FF8E0F1F3
:1001E40010B5054C237833B9044B13B10448AFF36D
:1001F40000800123237010BD0C00002000000000CB
:100204009412000808B5034B1BB103490348AFF32C
:10021400008008BD000000001000002094120008B7
:1002240038B50E4B054618784FF47A73B3FBF0F3E8
:100234000B4A1068B0FBF3F000F092F8044658B98A
:100244000F2D09D8024629464FF0FF3000F054F82C
:10025400044B20461D6038BD012038BD000000203D
:100264000800002004000020074A08B51368032092
:1002740043F01003136000F02DF80020FFF7D0FFC7
:1002840000F0E0FE002008BD00200240034A044BB9
:1002940011681B780B441360704700BF28000020CE
:1002A40000000020014B1868704700BF28000020A0
:1002B40038B50446FFF7F6FF0546631C1EBF044B22
:1002C4001B78E418FFF7EEFF401B8442FAD838BDD0
:1002D40000000020074A0002D36800F4E06023F421
:1002E400E0631B041B0C43F0BF6343F4003303437C
:1002F400D360704700ED00E0174B30B5DC68C4F301
:100304000224C4F10703251D042B28BF0423062D52
:100314004FF0010598BF002405FA03F303F1FF33FE
:1003240088BF033C1940A14005FA04F4013C224073
:10033400002842EA01024FEA0212A9BF00F160401C
:10034400064BD2B200F56140BBBF00F00F00D2B241
:1003540080F800231A5430BD00ED00E014ED00E0F5
:100364000138B0F1807F0AD2F021064B064A58606A
:1003740082F823100020072298601A607047012039
:10038400704700BF10E000E000ED00E02DE9F74FFA
:10039400002426466C4F6D4BDFF8B8E1DFF8B8C196
:1003A4000A6832FA06F502D103B0BDE8F08F4FF0C7
:1003B400010808FA06F802EA0802904540F0848031
:1003C4004D68122D00F0B18000F28780022D00F0FC
:1003D400A9807BD8002D00F08C80012D00F0A08036
:1003E4004FF00F09FF2A93BF824606F18045083D6E
:1003F400D0F800B092BFB500D0F804B0AD0009FA4F
:1004040005F82BEA080804FA05F588BF00F1040A88
:1004140048EA0505CAF80050D1F804A01AF0805F34
:1004240052D0BD6926F0030845F00105BD61BD69E0
:1004340008F1804805F00105019508F5803806F0BB
:10044400030B019D4FEA8B0BD8F8085009FA0BF9FE
:1004540025EA09093E4DA8426CD005F58065A842FD
:100464006AD005F58065A84268D005F58065A84284
:1004740066D005F58065A84264D070450CBF05259B
:10048400062505FA0BF545EA0905C8F808501D6864
:100494001AF4803F14BF154395431D605D681AF438
:1004A400003F14BF154395435D609D681AF4801F97
:1004B40014BF154395439D60DD681AF4001F14BFF3
:1004C4002A4325EA0202DA60013669E7032D25D0C2
:1004D400112D85D1CC68043482E7654509D012D842
:1004E400DFF878904D4504D009F580394D457FF407
:1004F40077AF8C68E4B1012C0CBFC0F81080C0F851
:10050400148008246CE7DFF858904D45F1D009F5C4
:1005140080394D45EDD0A9F58019E7E700245FE760
:10052400CC685DE7CC6808345AE7CC680C3457E7EC
:10053400042455E70025A4E70125A2E70225A0E746
:1005440003259EE704259CE70010024000040140B7
:1005540000080140001C014000002110000011109F
:10056400000031100AB1016170470904FBE7C36858
:100574000B4214BF41610161704700002DE9F34152
:10058400054608B901203CE00368DB0710D42B685A
:100594009F075DD42B68190700F194802B685A07D4
:1005A40000F1BE80E869002840F02C81002028E09A
:1005B4008F4C636803F00C03042B07D0636803F0CB
:1005C4000C03082B09D16368DE0306D523689C035A
:1005D400DDD56B68002BDAD1D4E76B68B3F5803FC7
:1005E40012D1236843F480332360FFF75BFE064691
:1005F40023689803CBD4FFF755FE801B6428F7D9F2
:10060400032002B0BDE8F0819BB9236823F4803352
:100614002360236823F480232360FFF743FE064608
:1006240023689903B3D5FFF73DFE801B6428F7D9EF
:10063400E6E7B3F5A02F236803D143F480232360B6
:10064400CFE723F480332360236823F48023CBE7AC
:10065400674C636813F00C0F07D0636803F00C0356
:10066400082B10D16368DA030DD423689B0702D5E5
:100674002B69012B86D123686A6923F0F80343EAC6
:10068400C203236086E72A695A4B6AB101221A60C1
:10069400FFF708FE064623689F07ECD4FFF702FE27
:1006A400801B0228F7D9ABE71A60FFF7FBFD06466B
:1006B400236898077FF56EAFFFF7F4FD801B0228CF
:1006C400F6D99DE7AA694A4C4B4BDAB101221A606C
:1006D400FFF7E8FD0646636A9B070DD54FF4FA520F
:1006E400464B1B68B3FBF2F3019300BF019B5A1EF8
:1006F4000192002BF9D151E7FFF7D4FD801B0228AA
:10070400E9D97DE71A60FFF7CDFD0646636A9F07C6
:100714007FF544AFFFF7C6FD801B0228F6D96FE7CB
:10072400334CE369D80024D40127E36943F08053B0
:10073400E361E36903F080530093009B304E336818
:10074400D90518D5EB68012B26D1236A43F00103A0
:100754002362FFF7A7FD41F288368046236A9B0790
:100764003FD5002F3FF41EAFE36923F08053E361CC
:1007740018E70027E2E7336843F480733360FFF738
:1007840091FD80463368DA05DCD4FFF78BFDA0EBDE
:1007940008006428F6D933E7ABB9236A41F28838F4
:1007A40023F001032362236A23F004032362FFF787
:1007B40079FD0646236A9807D3D5FFF773FD801B9E
:1007C4004045F7D91CE7052B236A03D143F0040302
:1007D4002362BAE723F001032362236A23F00403AC
:1007E400B6E7FFF75FFDA0EB0800B042B6D907E714
:1007F40000100240000042428004424208000020EF
:10080400007000402A4B5A681C4602F00C02082A69
:100814003DD00023274E022833602BD1FFF742FD41
:100824000746236899011FD42B6AB3F5803F05D18D
:100834006268A96822F400320A436260696A6268E5
:100844000B4322F474121343636001233360FFF7F4
:1008540029FD054623689A013FF5A8AEFFF722FD5E
:10086400401B0228F6D9CBE6FFF71CFDC01B02286B
:10087400D7D9C5E6FFF716FD054623689B017FF52A
:1008840095AEFFF70FFD401B0228F6D9B8E6012804
:100894003FF4B7AE58682B6A00F480329A427FF472
:1008A40071AE6B6A00F47010C01A18BF0120A8E67C
:1008B400001002406000424230B5194B87B002ACD0
:1008C40003F11005224618685968083303C2AB4285
:1008D4001446F7D101238DF80430022311498DF811
:1008E40005304B6803F00C02082A17D1C3F3834286
:1008F40006A80244DB0312F8102C0CD54B680A48F6
:10090400C3F34043504306AA134413F8143CB0FB0A
:10091400F3F007B030BD05485043FAE70248F8E762
:10092400AC1200080010024000127A0000093D00D9
:100934002DE9F0410D46044610B90120BDE8F081CF
:10094400454A136803F007038B4229D321688E07B5
:1009540031D4CA0744D4404A136803F007039D42C4
:1009640067D322683D4D12F0040F6ED1130706D5EC
:100974006B68226923F4605343EAC2036B60FFF798
:100984009BFF6B68364AC3F30313D35CD840354BE3
:100994001860354B1868FFF743FC0020BDE8F08170
:1009A400136823F007030B431360136803F0070372
:1009B4009942C2D1CAE7294B11F0040F1EBF5A68ED
:1009C40042F4E0625A60080742BF5A6842F4605237
:1009D4005A605A68A06822F0F00202435A60B8E7ED
:1009E40062681E4E012A33681BD113F4003FA4D061
:1009F400736841F2883823F0030313437360FFF7ED
:100A040051FC07467368626803F00C03B3EB820F72
:100A1400A1D0FFF747FCC01B4045F3D90320BDE834
:100A2400F081022A02D113F0007FE0E713F0020FF5
:100A3400DDE7136823F007032B431360136803F007
:100A440007039D427FF479AF8BE76B68E16823F479
:100A5400E0630B436B6089E7002002400010024012
:100A6400BC1200080800002004000020036A70B5CE
:100A740023F001030362036A446882690D6822F06B
:100A840073022A438D6823F002032B430E4DA842C0
:100A940002D00E4EB04210D1CE6823F00803334387
:100AA400A84223F0040302D0084DA84205D14D69A1
:100AB4008E6924F4407435432C43446082614A684F
:100AC4004263036270BD00BF002C0140003401404A
:100AD400036A70B523F480730362036A4468C269CD
:100AE4000D6822F073022A438D6823F4007343EAED
:100AF4000523114DA84203D005F50065A84214D181
:100B0400CD6823F4006343EA05230B4D23F480638B
:100B1400A84203D005F50065A84206D14D698E6947
:100B240024F44054354344EA05144460C2614A68DD
:100B3400C263036270BD00BF002C0140036A30B57C
:100B440023F480530362036A4468C2690D6822F483
:100B5400E64242EA05228D6823F4005343EA053352
:100B6400084DA84203D005F50065A84204D14D699B
:100B740024F4804444EA85144460C2614A680264EF
:100B8400036230BD002C0140304A0368904212D009
:100B940002F5006290420ED0B0F1804F0BD0A2F566
:100BA4009832904207D002F58062904203D002F559
:100BB4008062904219D14A6823F070031343234A98
:100BC400904229D002F50062904225D0B0F1804FC6
:100BD40022D0A2F5983290421ED002F58062904253
:100BE4001AD002F58062904216D0194A904213D06E
:100BF40002F5806290420FD002F5806290420BD0E1
:100C0400A2F59E32904207D002F58062904203D052
:100C140002F58062904203D1CA6823F440731343FF
:100C24004A6923F08003134303608B68C3620B6833
:100C34008362064B984203D003F50063984201D1C6
:100C44000B69036301234361704700BF002C01401B
:100C5400004C014010B50446A0B190F83D3003F0BB
:100C6400FF021BB980F83C2000F00EFA0223206832
:100C740084F83D30211DFFF787FF0123002084F80D
:100C84003D3010BD012010BD036A70B523F0100380
:100C94000362036A446882690D6822F4E64242EA08
:100CA40005228D6823F0200343EA0513104DA84262
:100CB40003D005F50065A84214D1CD6823F0800364
:100CC40043EA05130A4D23F04003A84203D005F577
:100CD4000065A84206D14D698E6924F44064354309
:100CE40044EA8504446082614A688263036270BD99
:100CF400002C014038B590F83C300446012B4FF0ED
:100D0400020025D0012384F83D0084F83C300C2AED
:100D140018D8DFE802F0071717171E1717172F1731
:100D2400171740002068FFF7A1FE236809699A6934
:100D340042F008029A619A6922F004029A619A695F
:100D44000A439A610123002084F83D3084F83C0072
:100D540038BD2068FFF798FF236809699A6942F44F
:100D640000629A619A6922F480629A619A6942EAFD
:100D74000122E6E72068FFF7ABFE23680969DA6918
:100D840042F00802DA61DA6922F00402DA61DA690F
:100D94000A43DA61D6E72068FFF7D0FE23680969C1
:100DA400DA6942F40062DA61DA6922F48062DA61B3
:100DB400DA6942EA0122ECE710B50124036A01F082
:100DC4001F018C4023EA04030362036A8A401A4326
:100DD400026210BD10B5044601220068FFF7ECFF63
:100DE40023680B4A93420ED002F5006293420AD064
:100DF4009A6802F00702062A03D01A6842F0010238
:100E04001A60002010BD5A6C42F400425A64EFE7A5
:100E1400002C014010B50424036A01F01F018C402A
:100E240023EA04030362036A8A401A43026210BD80
:100E340010B5044604220068FFF7ECFF2368002085
:100E44005A6C42F400425A649A6802F00702062A75
:100E54001EBF1A6842F001021A6010BD90F83C30BF
:100E640030B5012B4FF0020314D0046880F83D30F4
:100E74006268A3680D68496822F0700223F0800359
:100E84000B432A436260A360012380F83D300023B2
:100E940080F83C30184630BD00B591B028220021BE
:100EA40006A800F0EDF91422002101A800F0E8F9E9
:100EB4000223069301230A93102306A80B93FFF73A
:100EC4005DFB00210F2301A801930291039104917A
:100ED4000591FFF72DFD11B05DF804FB80B58CB0D2
:100EE400FFF7C2F9FFF7D8FF1022002105A800F090
:100EF400C7F94F4B4FF480619A694E4842F004029F
:100F04009A619A69002402F004020092009A9A6994
:100F14004FF0480842F008029A619A69C82702F023
:100F240008020192019A9A69602642F480729A61D9
:100F34009B69002203F480730293029BFFF712FB68
:100F44004FF48063059301230693022305A93948CE
:100F540008930794FFF71AFA1C22214605A8039464
:100F6400049400F08DF94FF08043334D284685E812
:100F74000801AC602C61AC61EF60FFF76BFE03A964
:100F8400284603940494FFF769FF224605A92846DE
:100F94000694079409940596FFF7ACFE082205A968
:100FA4002846FFF7A7FE0C2205A92846FFF7A2FE54
:100FB400284600F08DF8214D1C22214605A80394F3
:100FC400049400F05DF91E4B284685E80801AC60E6
:100FD4002C61AC61EF60FFF73DFE03A92846039442
:100FE4000494FFF73BFF224605A92846069407947C
:100FF40009940596FFF77EFE284600F069F821461D
:101004002846FFF7E7FE21462846FFF711FF642232
:101014002B6804F180445A6304F5903420464FF45D
:101024008061FFF7A4FA4FF47A70FFF741F9F5E70E
:1010340000100240002001406C0000202C00002021
:10104400000C00400E4B82B09A6942F001029A6192
:101054009A6902F001020092009ADA6942F0805221
:10106400DA61DB69074A03F080530193019B5368FB
:1010740023F0E06343F00073536002B0704700BF95
:101084000010024000000140036882B0B3F1804FB9
:101094000CD103F50433DA6942F00102DA61DB6949
:1010A40003F001030093009B02B07047064A934289
:1010B400FAD1064BDA6942F00802DA61DB6903F01F
:1010C40008030193019BEFE7000C0040001002406D
:1010D400102210B5044688B000210DEB020000F088
:1010E400CFF82368B3F1804F2FD103F504339A6905
:1010F400022442F008029A619A6904A902F00802E3
:101104000192019A9A691C4842F004029A619B690F
:10111400059403F004030293029B4FF44063079485
:101124000493FFF733F94FF4004304A913480493DD
:1011340005940794FFF72AF9114A536843F0E063D2
:1011440043F44073536008B010BD0E4A9342FAD181
:101154000D4B04A99A69094842F004029A619B69FB
:1011640003F004030393039B0123049302230593D5
:101174000793FFF70BF9E6E7000C01400008014074
:1011840000000140000C0040001002407047FEE7E0
:10119400FEE7FEE7FEE7704770477047FFF776B853
:1011A4000F4B1A6842F001021A6059680D4A0A404E
:1011B4005A601A6822F0847222F480321A601A6823
:1011C40022F480221A605A6822F4FE025A604FF414
:1011D4001F029A604FF00062034B9A60704700BF91
:1011E400001002400000FFF800ED00E0002103E0E1
:1011F4000B4B5B58435004310A480B4B42189A423C
:10120400F6D30A4A02E0002342F8043B084B9A4210
:10121400F9D3FFF7C5FF00F00FF8FFF75FFE704743
:10122400D4120008000000200C0000200C00002054
:10123400AC000020FEE7000070B500250C4E0D4CFC
:10124400A41BA410A54209D100F022F800250A4EDF
:101254000A4CA41BA410A54205D170BD56F8253034
:1012640098470135EEE756F8253098470135F2E7FF
:10127400CC120008CC120008CC120008D0120008CE
:1012840003460244934200D1704703F8011BF9E777
:10129400F8B500BFF8BC08BC9E467047F8B500BF5F
:0812A400F8BC08BC9E4670472F
:1012AC0002030405060708090A0B0C0D0E0F10109B
:1012BC0000000000000000000102030406070809FA
:0412CC00090200080B
:0412D000E50100082C
:0C12D40001000000100000000024F400E5
:04000005080011F1ED
:00000001FF
