:020000040800F2
:1000000000800120E9170008091700080B170008F5
:100010000D1700080F170008111700080000000056
:10002000000000000000000000000000131700089E
:10003000151700080000000017170008191700081E
:10004000311800083118000831180008311800086C
:10005000311800083118000831180008311800085C
:10006000311800083118000831180008311800084C
:10007000311800083118000831180008311800083C
:10008000311800083118000831180008311800082C
:10009000311800083118000831180008311800081C
:1000A000311800083118000831180008311800080C
:1000B00031180008311800083118000831180008FC
:1000C00031180008311800083118000831180008EC
:1000D00031180008311800083118000831180008DC
:1000E00031180008311800083118000831180008CC
:1000F00031180008311800083118000831180008BC
:1001000031180008311800083118000831180008AB
:10011000311800083118000831180008311800089B
:10012000311800083118000831180008311800088B
:1001300000000000000000000000000000000000BF
:1001400000000000000000000000000000000000AF
:10015000000000000000000000000000000000009F
:10016000000000000000000000000000000000008F
:10017000000000000000000000000000000000007F
:10018000000000000000000000000000000000006F
:10019000000000000000000000000000000000005F
:1001A000000000000000000000000000000000004F
:1001B000000000000000000000000000000000003F
:1001C000000000000000000000000000000000002F
:1001D000000000000000000000000000000000001F
:0401E0005FF8E0F1F3
:1001E40010B5054C237833B9044B13B10448AFF36D
:1001F40000800123237010BD700000200000000067
:10020400A026000808B5034B1BB103490348AFF30C
:10021400008008BD0000000074000020A026000833
:1002240038B50E4B054618784FF47A73B3FBF0F3E8
:100234000B4A1068B0FBF3F000F092F8044658B98A
:100244000F2D09D8024629464FF0FF3000F054F82C
:10025400044B20461D6038BD012038BD000000203D
:100264000800002004000020074A08B51368032092
:1002740043F01003136000F02DF80020FFF7D0FFC7
:1002840001F0B0F9002008BD00200240034A044BED
:1002940011681B780B441360704700BF980000205E
:1002A40000000020014B1868704700BF9800002030
:1002B40038B50446FFF7F6FF0546631C1EBF044B22
:1002C4001B78E418FFF7EEFF401B8442FAD838BDD0
:1002D40000000020074A0002D36800F4E06023F421
:1002E400E0631B041B0C43F0BF6343F4003303437C
:1002F400D360704700ED00E0174B30B5DC68C4F301
:100304000224C4F10703251D042B28BF0423062D52
:100314004FF0010598BF002405FA03F303F1FF33FE
:1003240088BF033C1940A14005FA04F4013C224073
:10033400002842EA01024FEA0212A9BF00F160401C
:10034400064BD2B200F56140BBBF00F00F00D2B241
:1003540080F800231A5430BD00ED00E014ED00E0F5
:100364000138B0F1807F0AD2F021064B064A58606A
:1003740082F823100020072298601A607047012039
:10038400704700BF10E000E000ED00E02DE9F74FFA
:10039400002426466C4F6D4BDFF8B8E1DFF8B8C196
:1003A4000A6832FA06F502D103B0BDE8F08F4FF0C7
:1003B400010808FA06F802EA0802904540F0848031
:1003C4004D68122D00F0B18000F28780022D00F0FC
:1003D400A9807BD8002D00F08C80012D00F0A08036
:1003E4004FF00F09FF2A93BF824606F18045083D6E
:1003F400D0F800B092BFB500D0F804B0AD0009FA4F
:1004040005F82BEA080804FA05F588BF00F1040A88
:1004140048EA0505CAF80050D1F804A01AF0805F34
:1004240052D0BD6926F0030845F00105BD61BD69E0
:1004340008F1804805F00105019508F5803806F0BB
:10044400030B019D4FEA8B0BD8F8085009FA0BF9FE
:1004540025EA09093E4DA8426CD005F58065A842FD
:100464006AD005F58065A84268D005F58065A84284
:1004740066D005F58065A84264D070450CBF05259B
:10048400062505FA0BF545EA0905C8F808501D6864
:100494001AF4803F14BF154395431D605D681AF438
:1004A400003F14BF154395435D609D681AF4801F97
:1004B40014BF154395439D60DD681AF4001F14BFF3
:1004C4002A4325EA0202DA60013669E7032D25D0C2
:1004D400112D85D1CC68043482E7654509D012D842
:1004E400DFF878904D4504D009F580394D457FF407
:1004F40077AF8C68E4B1012C0CBFC0F81080C0F851
:10050400148008246CE7DFF858904D45F1D009F5C4
:1005140080394D45EDD0A9F58019E7E700245FE760
:10052400CC685DE7CC6808345AE7CC680C3457E7EC
:10053400042455E70025A4E70125A2E70225A0E746
:1005440003259EE704259CE70010024000040140B7
:1005540000080140001C014000002110000011109F
:1005640000003110016800224B6913F4806310D03D
:100574006FF480634B612023026380F83D3080F880
:100584003E20036C80F83C2043F004030364012004
:100594007047184670472DE9F843044617469946B4
:1005A400C1F307488EB22568B8F1010F0CBF6B691F
:1005B400AB6936EA030314BF0120002008B9BDE883
:1005C400F8836B695A0516D52B68202243F400730F
:1005D4002B606FF480636B610023236384F83D20F8
:1005E40084F83E30226C42F00402226484F83C30E9
:1005F4000120BDE8F8837B1CD5D0FFF753FEA0EBA8
:100604000900874201D3002FCDD100232022236388
:1006140084F83D2084F83E30226C42F02002E4E766
:1006240070B504460D46164623685B695B0701D521
:10063400002070BD2046FFF795FFA8B96A1CF3D0CF
:10064400FFF730FE801B854201D3002DECD100233F
:100654002022236384F83D2084F83E30226C84F801
:100664003C3042F020022264012070BD70B5044683
:100674000D4616462068436913F0400301D000205C
:1006840070BD4269D2060ED56FF01002426120227D
:10069400236384F83D2084F83E30226C226484F87D
:1006A4003C30012070BDFFF7FDFD801BA84201D83E
:1006B400002DDFD100232022236384F83D2084F819
:1006C4003E30226C42F02002E8E72DE9F84304466C
:1006D40090461F46089EC1F307498DB22368B9F1BD
:1006E400010F0CBF5B699B6935EA03030CBF01234F
:1006F4000023434502D00020BDE8F8837B1CEDD0E5
:10070400FFF7D0FD801B874201D3002FE6D10023E1
:100714002022236384F83D2084F83E30226C84F840
:100724003C3042F0200222640120BDE8F88370B519
:1007340004460D46164623685B691B0601D5002056
:1007440070BD2046FFF70EFFA8B96A1CF3D0FFF76F
:10075400A9FD801B854201D3002DECD1002320226A
:10076400236384F83D2084F83E30226C84F83C30C6
:1007740042F020022264012070BD000070B50446DE
:1007840008B9012070BD90F83D3003F0FF021BB999
:1007940080F83C2000F048FF2423226884F83D3090
:1007A400136823F00103136000F04AFD6568414BB0
:1007B4009D424DD8404B9842E3D940492268B0FB52
:1007C400F1F1536823F03F030B435360136A23F0A2
:1007D4003F03013119431162D169364B21F44F4172
:1007E4009D4221F0FF0100F1FF3048D86D00B0FBBD
:1007F400F5F00130C0F30B03042B38BF04230B4383
:10080400D3611168206AE36921F0C00103430B43FB
:1008140013609168E068236921F40341034321F0E4
:10082400FF010B439360D168A069636921F0FF0164
:1008340003430B43D3601368002043F001031360A8
:100844002023206484F83D30206384F83E0070BD8A
:100854001B4B984295D9194E4FF49671B0FBF6F69E
:1008640022687143536823F03F0333434FF47A768D
:100874005360136AB1FBF6F123F03F03A9E7A368C1
:1008840053B905EB4503B0FBF3F0431CC3F30B036F
:100894006BB143F40043B2E719236B43B0FBF3F0AD
:1008A400431CC3F30B0313B143F44043A7E70123F1
:1008B400A5E700BFA08601007F841E0040420F0010
:1008C400FF083D002DE9FF4104461F460D469046B2
:1008D400FFF7E8FC94F83D300646202B04D00225AF
:1008E400284604B0BDE8F08100901923012258493C
:1008F4002046FFF7EAFE0028F1D194F83C30012BA2
:10090400EDD0012384F83C3023681A68D2075EBF17
:100914001A6842F001021A601A6822F400621A602E
:10092400212284F83D20102284F83E2000222264F3
:100934006785628DC4F824802285464AE262E26AB1
:10094400082A04D0012A02D012F5803F04D11A6883
:1009540042F480721A6002E0226B122AF7D00096E9
:100964000A9B00224FF001112046FFF7AEFE08B1AA
:100974000125B5E723692268B3F5804F13D105F04B
:10098400FE05156133460A9A33492046FFF703FEF4
:1009940005460028ECD1236803905A6903929B69A9
:1009A4000393039B44E0EB1103F0060343F0F003CD
:1009B40013612A4933460A9A2046FFF7ECFD0028C2
:1009C400D6D12368EDB21D61DCE732460A99204690
:1009D400FFF7ADFE40B1236C042B01BF22681368FE
:1009E40043F400731360C3E7636A20681A4612F87D
:1009F400011B01616262628D013A92B26285228DAD
:100A04004769511E89B27F0721850AD549B15978B2
:100A1400023301616362638D023A013B9BB26385D9
:100A2400228532460A992046FFF7FAFD0028D2D1E2
:100A3400238D002BC9D121680A6842F400720A6030
:100A4400202284F83C3084F83D2084F83E3047E787
:100A5400020010000000FFFF020001000800010076
:100A64002DE9F043044689B098460F469146109EFE
:100A7400FFF718FC94F83D300546202B04D00227DC
:100A8400384609B0BDE8F0830090192301229C493F
:100A94002046FFF71AFE0028F1D194F83C30012BD0
:100AA400EDD0012384F83C3023681A68D0075EBF78
:100AB4001A6842F001021A601A6822F400621A608D
:100AC400222284F83D20102284F83E200022226451
:100AD400A4F82A80628DC4F824902285894AE262AF
:100AE400E26A1968082A41F48061196004D0012A75
:100AF40002D012F5803F04D11A6842F480721A6061
:100B040002E0226B112AF7D00095334600224FF001
:100B140001112046FFF7D9FD08B10127B0E7236989
:100B2400B3F5804F236843D147F00107FFB21F613B
:100B34002B46324674492046FFF72DFD0746002810
:100B4400EBD1228D2368002A66D0012A77D11A6856
:100B540022F480621A6072B6236804975A69049278
:100B64009A690492049A1A6842F400721A6062B68E
:100B7400DFF89C81238D002B58D0032B00F2CA8010
:100B8400012B78D12A4631462046FFF76FFD002815
:100B9400C3D12268636A12691A70636A013363629B
:100BA400238D013B2385638D013B9BB26385E1E784
:100BB4004FEAE71808F0060848F0F0021A615349B2
:100BC4002B4632462046FFF7E6FC0028A5D12368D1
:100BD400FFB21F6132462B464B492046FFF7DBFC30
:100BE4000246002899D12368079059692046079145
:100BF400996907910799196841F480711960009502
:100C040033464FF00111FFF760FD002885D12268BB
:100C140048F0F10313618BE703975A6903929A69C9
:100C24000392039A1A6842F400721A60202384F82B
:100C34003D30002384F83E3084F83C3020E7022A1B
:100C44001A680ED142F400621A6072B623680597DE
:100C54005A6905929A690592059A1A6822F4806283
:100C640084E742F480621A6006975A6906929B6987
:100C74000693069B7CE7022B009533464FF0000257
:100C84004146204619D1FFF720FD00287FF445AFE7
:100C940072B623681A6842F400721A601B69626AA9
:100CA4001370636A01336362238D013B2385638D73
:100CB400013B9BB2638562B66BE7FFF706FD024614
:100CC40000287FF42AAF21680B6823F480630B604B
:100CD40072B62168636A096920461970636A0095CF
:100CE40001336362238D4146013B2385638D013BC0
:100CF4009BB263853346FFF7E8FC0028C9D00CE7B4
:100D0400020010000000FFFF0200010008000100C3
:100D1400040001002A4631462046FFF7A7FC0028BC
:100D24007FF4FBAE2268636A12691A70626A531C0C
:100D34006362238D013B2385638D013B9BB26385F5
:100D44002368596949077FF515AF1B69537024E778
:100D54002DE9F341054608B901203CE00368DB07AF
:100D640010D42B689F075DD42B68190700F1948079
:100D74002B685A0700F1BE80E869002840F02C81F6
:100D8400002028E08F4C636803F00C03042B07D089
:100D9400636803F00C03082B09D16368DE0306D5EE
:100DA40023689C03DDD56B68002BDAD1D4E76B682C
:100DB400B3F5803F12D1236843F480332360FFF7F7
:100DC40071FA064623689803CBD4FFF76BFA801BAD
:100DD4006428F7D9032002B0BDE8F0819BB92368E9
:100DE40023F480332360236823F480232360FFF7F4
:100DF40059FA064623689903B3D5FFF753FA801BC3
:100E04006428F7D9E6E7B3F5A02F236803D143F4A8
:100E140080232360CFE723F480332360236823F403
:100E24008023CBE7674C636813F00C0F07D063682B
:100E340003F00C03082B10D16368DA030DD4236884
:100E44009B0702D52B69012B86D123686A6923F09D
:100E5400F80343EAC203236086E72A695A4B6AB15E
:100E640001221A60FFF71EFA064623689F07ECD496
:100E7400FFF718FA801B0228F7D9ABE71A60FFF7CF
:100E840011FA0646236898077FF56EAFFFF70AFA52
:100E9400801B0228F6D99DE7AA694A4C4B4BDAB16C
:100EA40001221A60FFF7FEF90646636A9B070DD517
:100EB4004FF4FA52464B1B68B3FBF2F3019300BFA5
:100EC400019B5A1E0192002BF9D151E7FFF7EAF971
:100ED400801B0228E9D97DE71A60FFF7E3F906468B
:100EE400636A9F077FF544AFFFF7DCF9801B022894
:100EF400F6D96FE7334CE369D80024D40127E369BA
:100F040043F08053E361E36903F080530093009B53
:100F1400304E3368D90518D5EB68012B26D1236AE6
:100F240043F001032362FFF7BDF941F2883680469E
:100F3400236A9B073FD5002F3FF41EAFE36923F0DC
:100F44008053E36118E70027E2E7336843F48073D2
:100F54003360FFF7A7F980463368DA05DCD4FFF77E
:100F6400A1F9A0EB08006428F6D933E7ABB9236AEA
:100F740041F2883823F001032362236A23F0040337
:100F84002362FFF78FF90646236A9807D3D5FFF744
:100F940089F9801B4045F7D91CE7052B236A03D147
:100FA40043F004032362BAE723F001032362236AB4
:100FB40023F00403B6E7FFF775F9A0EB0800B0428D
:100FC400B6D907E7001002400000424280044242C2
:100FD40008000020007000402A4B5A681C4602F0AA
:100FE4000C02082A3DD00023274E022833602BD15F
:100FF400FFF758F90746236899011FD42B6AB3F504
:10100400803F05D16268A96822F400320A43626015
:10101400696A62680B4322F4741213436360012308
:101024003360FFF73FF9054623689A013FF5A8AE00
:10103400FFF738F9401B0228F6D9CBE6FFF732F95F
:10104400C01B0228D7D9C5E6FFF72CF9054623684B
:101054009B017FF595AEFFF725F9401B0228F6D9D1
:10106400B8E601283FF4B7AE58682B6A00F4803222
:101074009A427FF471AE6B6A00F47010C01A18BF04
:101084000120A8E6001002406000424230B5194B2E
:1010940087B002AC03F1100522461868596808337A
:1010A40003C2AB421446F7D101238DF80430022366
:1010B40011498DF805304B6803F00C02082A17D14A
:1010C400C3F3834206A80244DB0312F8102C0CD5A8
:1010D4004B680A48C3F34043504306AA134413F829
:1010E400143CB0FBF3F007B030BD05485043FAE7B9
:1010F4000248F8E7B82600080010024000127A00FF
:1011040000093D002DE9F0410D46044610B90120C7
:10111400BDE8F081454A136803F007038B4229D3E5
:1011240021688E0731D4CA0744D4404A136803F0B7
:1011340007039D4267D322683D4D12F0040F6ED120
:10114400130706D56B68226923F4605343EAC2038C
:101154006B60FFF79BFF6B68364AC3F30313D35CE2
:10116400D840354B1860354B1868FFF759F8002004
:10117400BDE8F081136823F007030B431360136881
:1011840003F007039942C2D1CAE7294B11F0040FB7
:101194001EBF5A6842F4E0625A60080742BF5A68A8
:1011A40042F460525A605A68A06822F0F002024386
:1011B4005A60B8E762681E4E012A33681BD113F4E3
:1011C400003FA4D0736841F2883823F0030313432B
:1011D4007360FFF767F807467368626803F00C03EF
:1011E400B3EB820FA1D0FFF75DF8C01B4045F3D9E4
:1011F4000320BDE8F081022A02D113F0007FE0E76A
:1012040013F0020FDDE7136823F007032B43136089
:10121400136803F007039D427FF479AF8BE76B6893
:10122400E16823F4E0630B436B6089E7002002402C
:1012340000100240D226000808000020040000200C
:10124400044B054A5B68C3F30223D35C034A10686A
:10125400D840704700100240E22600080800002031
:10126400044B054A5B68C3F3C223D35C034A10688A
:10127400D840704700100240E22600080800002011
:1012840038B505460368C1681A69192422F4405226
:101294000A431A6182680069D9680243686921F4C3
:1012A400B05121F00C0102430A43DA605A69A9697A
:1012B40022F440720A435A610D4A934214D1FFF753
:1012C400CFFF60436C686422A400B0FBF4F0B0FB71
:1012D400F2F402FB14031B013233B3FBF2F329686B
:1012E40003EB04138B6038BDFFF7AAFFE9E700BFE7
:1012F40000380140F8B504460E4617461D462168DD
:101304000B6836EA030301D10020F8BD6B1CF7D04B
:1013140095B923680320DA6822F4D072DA605A6936
:1013240022F001025A61202384F8393084F83A30DB
:10133400002384F83830F8BDFEF7B4FFC01B8542A3
:10134400DDD2E6E710B5044640B390F8393003F037
:10135400FF021BB980F8382000F098F92423226892
:1013640084F83930D368204623F40053D360FFF760
:1013740087FF236800201A6922F490421A615A698F
:1013840022F02A025A61DA6842F40052DA60202319
:10139400E06384F8393084F83A3010BD012010BD80
:1013A4002DE9F0411F4690F839300446202B0D46B4
:1013B40090464ED1002949D0002A47D090F83830C1
:1013C400012B46D0012380F838300023C363212346
:1013D40080F83930FEF766FF0646A4F82480A4F8A6
:1013E4002680E38C9BB26BB93B46324640212046B3
:1013F400FFF780FFA8B9202384F8380084F8393037
:10140400BDE8F081E38C3246013B9BB2E384A368E0
:101414008021B3F5805F20463B460ED1FFF76AFF7B
:1014240010B10320BDE8F0812B882268C3F30803C0
:101434005360236943B90235D3E7FFF75BFF002804
:10144400EFD123682A785A600135CAE70120BDE844
:10145400F0810220BDE8F081014B1860704700BFA5
:101464009C00002030B5012485B00D4D04AA02F87B
:10147400080D2346009490212868FFF723FA00946E
:10148400022303AA90212868FFF7EAFA9DF80C309A
:101494009DF80D0040EA0320000905B030BD00BFEF
:1014A4009C00002010B50446C020FFF7DBFF20801D
:1014B400D020FFF7D7FF6080E020FFF7D3FFA080A4
:1014C400F020FFF7CFFFE08010BD00B591B02822D7
:1014D400002106A800F0D6F91422002101A800F08A
:1014E400D1F90223069301230A93102306A80B9330
:1014F400FFF72EFC00210F2301A801930291039111
:1015040004910591FFF7FEFD11B05DF804FB0000A6
:101514007FB5FEF7A9FEFFF7D8FF1022002102A82D
:1015240000F0B0F9264B00259A6902A942F00402A2
:101534009A619A69234802F004020092009A9A6917
:10154400214C42F008029A619B6903F0080301935D
:10155400019B082302931D4B0393FEF717FF1C4ABC
:101564001C4B204684E82C004FF48043E560236143
:101574006561A561E5612562FFF700F94FF4E13388
:1015840015481649856080E80A000C23C56043614C
:1015940005618561C561FFF7D5FE2046FFF75CFF55
:1015A4000F4C02A8FFF77EFFBDF80A20BDF8081013
:1015B400204600F06FF96420FEF77AFEF1E700BFE1
:1015C4000010024000080140A0000020000031107B
:1015D40000540040A0860100F400002000380140BF
:1015E400C82600080E4B82B09A6942F001029A6143
:1015F4009A6902F001020092009ADA6942F080527C
:10160400DA61DB69074A03F080530193019B536855
:1016140023F0E06343F00073536002B0704700BFEF
:10162400001002400000014010B5044686B01022AC
:10163400002102A800F026F92268114B9A421CD11D
:10164400104C02A9A369104843F00803A361A369DD
:1016540003F008030093009BC02302931223039317
:1016640003230593FEF792FEE36943F40013E36159
:10167400E36903F400130193019B06B010BD00BF9E
:101684000054004000100240000C014010B5044614
:1016940086B01022002102A800F0F4F82268174B4B
:1016A4009A4228D103F558439A6902A942F4804228
:1016B4009A619A69124802F480420092009A9A69E7
:1016C40042F004029A619B6903F004030193019BB5
:1016D4004FF4007302930223039303230593FEF74D
:1016E40055FE4FF480630293002302A90448039338
:1016F4000493FEF74BFE06B010BD00BF0038014056
:10170400000801407047FEE7FEE7FEE7FEE770478A
:1017140070477047FEF7BABD70B50E4615460C46C5
:10172400A31B9D4201DC284670BDAFF3008004F882
:10173400010BF5E710B564231446034892B2FFF792
:101744002FFE204610BD00BFF400002008B50A4B50
:101754000246196809B909491960694618680244BA
:101764008A4206D900F064F80C2303604FF0FF307E
:1017740008BD1A6008BD00BF8C000020380100209D
:101784004FF0FF3070474FF4005300204B60704718
:1017940001207047002070470F4B1A6842F0010285
:1017A4001A6059680D4A0A405A601A6822F0847215
:1017B40022F480321A601A6822F480221A605A686D
:1017C40022F4FE025A604FF41F029A604FF0006246
:1017D400034B9A60704700BF001002400000FFF8FE
:1017E40000ED00E0002103E00B4B5B584350043153
:1017F4000A480B4B42189A42F6D30A4A02E00023E5
:1018040042F8043B084B9A42F9D3FFF7C5FF00F0B6
:1018140015F8FFF77DFE70478C27000800000020B4
:10182400700000207000002038010020FEE7000056
:10183400014B1868704700BF0C00002070B50025EC
:101844000C4E0D4CA41BA410A54209D100F026FF98
:1018540000250A4E0A4CA41BA410A54205D170BD54
:1018640056F8253098470135EEE756F82530984765
:101874000135F2E78427000884270008842700083C
:101884008827000803460244934200D1704703F8B6
:10189400011BF9E70FB40A4B13B51C6824B1A36903
:1018A40013B9204600F0C0F905AB049AA16820469C
:1018B400019300F079FB02B0BDE8104004B070471A
:1018C4000C000020F8B50E461446054618B183698D
:1018D4000BB900F0A9F9214B9C422AD16C68A36989
:1018E400A360A3891A072ED5236963B323692068EB
:1018F400F6B2C01A63693746984204DB214628468B
:1019040000F028F928BBA3680130013BA3602368D9
:101914005A1C22601E706369984204D0A389DB07B5
:1019240019D50A2E17D12146284600F013F990B193
:101934000FE00B4B9C4201D1AC68D0E7094B9C42B1
:1019440008BFEC68CBE72146284600F00DF80028D4
:10195400CCD04FF0FF373846F8BD00BF1027000841
:1019640030270008F0260008324B70B51D68064683
:101974000C4625B1AB6913B9284600F055F92E4B36
:101984009C420FD16C68B4F90C309AB215072CD470
:10199400D00611D40922326043F04003A3814FF0F2
:1019A400FF3070BD254B9C4201D1AC68EBE7244B62
:1019B4009C4208BFEC68E6E7510712D5616B41B160
:1019C40004F14403994202D0304600F01BFA00238C
:1019D4006363A38923F02403A38100236360236941
:1019E4002360A38943F00803A38123694BB9A38926
:1019F40003F42073B3F5007F03D02146304600F092
:101A0400C1F9A28912F001030CD00023A360636919
:101A14005B42A361236953B9B4F90C3013F080001D
:101A2400BAD170BD920758BF6369A360F2E7002082
:101A3400F7E700BF0C00002010270008302700083B
:101A4400F02600088A892DE9F041054610070C4666
:101A54005AD44B68002B05DC0B6C002B02DC0020F5
:101A6400BDE8F081E66A002EF9D0002312F480521A
:101A74002F682B6033D0606DA3895A0705D563683E
:101A8400C01A636B0BB1236CC01A00230246E66ACA
:101A9400216A2846B047431CA38906D129681D2919
:101AA4004BD82B4ACA40D60747D500226260226928
:101AB400D904226004D5421C01D12B6803B96065A6
:101AC400616B2F600029CAD004F14403994202D00B
:101AD400284600F097F900206063BDE8F081216A90
:101AE40001232846B047411CC6D12B68002BC3D024
:101AF4001D2B01D0162B01D12F60B0E7A38943F031
:101B04004003A381BDE8F0810F69002FA7D093079C
:101B140018BF00230E6808BF4B69A6EB07080F60C7
:101B24008B60B8F1000F9ADD43463A46216A284695
:101B3400A66AB047002807DCA38943F04003A381C9
:101B44004FF0FF30BDE8F0810744A8EB0008E8E758
:101B54000100402038B50B6905460C46DBB118B1CD
:101B640083690BB900F060F80C4B9C4209D16C6896
:101B7400B4F90C307BB121462846BDE83840FFF764
:101B840061BF074B9C4201D1AC68F1E7054B9C4215
:101B940008BFEC68ECE7002038BD00BF1027000840
:101BA40030270008F0260008014900F0A9B800BF5A
:101BB400591B0008002310B504460360436083608A
:101BC40081814366C28103614361836119460822AE
:101BD4005C30FFF757FE054B24626362044BA3623B
:101BE400044BE362044B236310BD00BF29250008A6
:101BF4004B25000883250008A725000870B5682533
:101C04004A1E55430E4605F1740100F047F9044697
:101C140040B1002180E842000C30A06005F1680268
:101C2400FFF730FE204670BD836910B5044633BB10
:101C34008364C3640365124B124A1B688262984230
:101C440004BF0123836100F01FF86060204600F0A8
:101C54001BF8A060204600F017F80022E060042181
:101C64006068FFF7A7FF01220921A068FFF7A2FF20
:101C740002221221E068FFF79DFF0123A36110BD3A
:101C8400EC260008AD1B0008F8B51C4B07461E687F
:101C9400B36913B93046FFF7C7FF4836B4687368B1
:101CA400013B03D5336833B13668F7E7B4F90C5018
:101CB4006DB16834F4E704213846FFF79FFF3060C4
:101CC4000028F1D10C2304463B602046F8BD4FF6B2
:101CD400FF73E38101236566A3812560A5606560C8
:101CE40025616561A5610822294604F15C00FFF7BE
:101CF400C9FD6563A563A564E564E6E7EC26000811
:101D04002DE9F84380468946002600F1480414B9B9
:101D14003046BDE8F883A5686768013F01D52468AB
:101D2400F5E7AB89012B07D9B5F90E30013303D0A0
:101D340029464046C84706436835EEE770B50E4667
:101D4400B1F90E1090B0002914461D4607DA00239D
:101D54002B60B3891A0610D44FF480630EE001AAF5
:101D640000F046FC0028F2DB029A02F47042A2F56D
:101D740000535A425A412A60EEE740230020236070
:101D840010B070BD8B8973B59D0706460C4607D508
:101D940004F14703236023610123636102B070BD32
:101DA40001AB6A46FFF7CAFF00990546304600F0CA
:101DB40075F848B9B4F90C309A05EFD423F003034D
:101DC40043F00203A381E3E70D4BB362A3892060D0
:101DD40043F08003A381009B20616361019B5BB19D
:101DE400B4F90E10304600F015FC28B1A38923F095
:101DF400030343F00103A381A3891D43A581CDE718
:101E0400AD1B000838B50546002943D051F8043C01
:101E14000C1F002BB8BFE41800F02CFC1E4A1368FA
:101E2400104633B9636014602846BDE8384000F0BA
:101E340022BCA3420BD921686218934201BF1A68DD
:101E44005B685218226063600460EDE713465A68C9
:101E54000AB1A242FAD919685818A0420BD12068D5
:101E64000144581882421960DED110685268014456
:101E740019605A60D8E702D90C232B60D4E7206894
:101E840021188A4201BF11685268091821606260F2
:101E94005C60C9E738BD00BF9000002070B5CD1C60
:101EA40025F0030508350C2D38BF0C25002D0646FA
:101EB40001DBA94203D90C233360002070BD00F07C
:101EC400D9FB234A1468214691B9224C23681BB9D3
:101ED400304600F017FB20602946304600F012FB24
:101EE400431C26D10C233046336000F0C4FBE4E7E6
:101EF4000B685B1B1AD40B2B0FD90B60CC18CD507D
:101F0400304600F0B8FB04F10B00231D20F007005D
:101F1400C31A1BD05A42E25070BD8C420BBF636897
:101F24004B681360636018BF0C46E9E70C464968C8
:101F3400CAE7C41C24F00304A04205D0211A304689
:101F440000F0E0FA0130CDD02560D9E770BD00BFC4
:101F54009000002094000020936810B4013B002BF3
:101F6400936008DA9469A34202DBCBB20A2B02D154
:101F740010BCFFF7A7BC1368581C10601970C8B2D6
:101F840010BC7047F8B506460F461446D518AC4247
:101F940001D1002007E03A4614F8011B3046FFF750
:101FA400DBFF431CF3D1F8BD2DE9F04F9DB00C4687
:101FB40017460393064618B183690BB9FFF734FE3D
:101FC4007C4B9C4257D17468A38918075DD523695B
:101FD400002B5AD00023099320238DF82930302375
:101FE4004FF0010B8DF82A30B846454615F8013BF1
:101FF400002B55D1B8EB070A0BD053463A4621467D
:102004003046FFF7BFFF013000F0C480099B534402
:10201400099398F80030002B00F0BC8000234FF0A7
:10202400FF3204930793059206938DF853301A9365
:1020340005222978604800F00FFB05F10108049B94
:10204400002831D1D90644BF20228DF853201A0725
:1020540044BF2B228DF853202A782A2A2CD0002121
:102064000A20079AA84698F800300135303B092B1E
:102074006DD971B326E0514B9C4201D1B468A3E7FA
:102084004F4B9C4208BFF4689EE721463046FFF759
:102094006BFC00289ED04FF0FF301DB0BDE8F08FE0
:1020A400252BA7D0A846A0E7434A4546801A0BFA39
:1020B40000F018430490BBE7039A111D12680391C2
:1020C400002A01DB079204E0524243F00203079224
:1020D400049398F800302E2B10D198F8013008F1B1
:1020E40001012A2B37D1039B08F102081A1D1B6832
:1020F4000392002BB8BF4FF0FF330593314D0322F9
:1021040098F80010284600F0A7FA40B14023401B7D
:1021140003FA00F0049B08F101080343049398F8C0
:1021240000100622284808F101078DF8281000F055
:1021340093FA002834D0254B03BB039B073323F0C9
:10214400070308330393099B4B4409934CE700FBB3
:102154000232012186E700230A25184605938846A2
:1021640098F800200131303A092A03D9002BC5D050
:102174000590C3E705FB00200123F0E703AB0093C0
:102184002246134B04A93046AFF30080B0F1FF3F61
:102194008146D8D1A3895B063FF57DAF09987CE7DA
:1021A40003AB009322460A4B04A9304600F08AF898
:1021B400ECE700BF1027000850270008302700086C
:1021C400F0260008562700085A27000800000000DF
:1021D400891F00082DE9F04791461F468A680B695C
:1021E40006469342B8BF1346C9F8003091F843201D
:1021F4000C46DDF8208012B10133C9F800302368A1
:10220400990642BFD9F800300233C9F80030256876
:1022140015F0060507D104F1190AE368D9F800207E
:102224009B1A9D422ADB94F843302268003318BF7E
:10223400012392062FD404F1430239463046C047A5
:10224400013022D02368E56803F00603042B18BF8D
:102254000025D9F800204FF0000908BFAD1AA36883
:10226400226908BF25EAE5759342C4BF9B1AED189D
:102274001A344D451BD10020BDE8F0870123524696
:1022840039463046C047013003D14FF0FF30BDE836
:10229400F0870135C1E73020E11881F843005A1C6A
:1022A40094F845102244023382F84310C3E7012313
:1022B400224639463046C0470130E6D009F10109CB
:1022C400D7E700002DE9F04317460A7E85B06E2A51
:1022D400984606460C460C9B01F1430E00F0BC8068
:1022E4001AD8632A2ED00AD8002A00F0C880582AA7
:1022F40000F08A8004F1420584F842202AE0642A2E
:1023040001D0692AF6D121681A6811F0800F23D010
:10231400111D1960136827E0732A00F0B48008D8EF
:102324006F2A2AD0702AE5D10A6842F020020A6096
:1023340003E0752A21D0782ADCD178226F4984F809
:10234400452064E01A6801F14205111D1960136803
:1023540084F842300123A3E011F0400F02F104019C
:102364001960D7D0B2F90030002B03DA2D225B427A
:1023740084F8432062490A2217E02068196810F0A3
:10238400800F03D0081D18600B6806E010F0400FA2
:1023940001F104001860F7D00B886F2A14BF0A22D9
:1023A40008225749002084F843006568002DA56081
:1023B400C0F29C80206820F004002060002B3FD1F4
:1023C400002D40F095807546082A0BD12368DA0762
:1023D40008D5236962689A42DEBF302305F8013CC0
:1023E40005F1FF35AEEB05032361CDF800803B46D4
:1023F40003AA21463046FFF7EDFE013055D14FF0D8
:10240400FF3005B0BDE8F08381F845203C492268DF
:10241400186812F0800F00F104051D6001D00368F4
:1024240002E05506FBD50388D00744BF42F02002E2
:1024340022601BB9226822F0200222601022B1E738
:102444007546B3FBF2F002FB1033CB5C05F8013D9B
:1024540003460028F5D1B7E708681A6810F0800F22
:10246400496904D0101D18601368196007E010F062
:10247400400F02F1040018601368F6D0198000239D
:1024840075462361B1E71A68111D196015680021AA
:102494006268284600F0E0F808B1401B6060636899
:1024A4002361002384F843309FE723692A46394691
:1024B4003046C0470130A2D023689B0707D50025CA
:1024C40004F11909E368039A9B1A9D4205DBE0684D
:1024D400039B9842B8BF184693E701234A463946FE
:1024E4003046C04701308AD00135EBE7002BA7D135
:1024F4000B7804F1420584F8423065E7722700083E
:102504006127000838B50023054C054608462360BA
:10251400FFF71CF9431C02D1236803B12B6038BDBB
:102524003401002010B50C46B1F90E1000F0A4F8E7
:102534000028ABBF636DA3891B1823F48053ACBF81
:102544006365A38110BD2DE9F0411F468B890546C3
:10255400DB050C46164605D502230022B1F90E1000
:1025640000F068F8A389324623F48053A381B4F9B8
:102574000E103B462846BDE8F04100F017B810B5F0
:102584000C46B1F90E1000F055F8431CA38915BF91
:10259400606523F4805343F48053A38118BFA3815F
:1025A40010BDB1F90E1000F013B8000038B505469F
:1025B400084611460022054C22601A46FFF7BAF875
:1025C400431C02D1236803B12B6038BD34010020C1
:1025D40038B50023054C054608462360FFF7D0F8BC
:1025E400431C02D1236803B12B6038BD34010020A1
:1025F40038B50023064C0546084611462360FFF70C
:10260400C2F8431C02D1236803B12B6038BD00BF5C
:102614003401002038B50023054C054608462360E4
:10262400FFF7B6F8431C02D1236803B12B6038BD11
:102634003401002038B50546084611460022054CF1
:1026440022601A46FFF7A6F8431C02D1236803B19F
:102654002B6038BD3401002010B5C9B20244904249
:10266400034601D1002010BD1C7801308C42F6D104
:10267400184610BD7047704738B5054608461146E0
:102684000022054C22601A46FFF746F8431C02D18B
:10269400236803B12B6038BD34010020F8B500BFB6
:1026A400F8BC08BC9E467047F8B500BFF8BC08BC2F
:0426B4009E46704787
:1026B80002030405060708090A0B0C0D0E0F10107B
:1026C80025642C202564200D0A000000000000006D
:1026D80000000102030406070809000000000102C7
:1026E80003040000100000200000000000000000AB
:1026F80000000000000000000000000000000000D2
:1027080000000000000000000000000000000000C1
:1027180000000000000000000000000000000000B1
:1027280000000000000000000000000000000000A1
:102738000000000000000000000000000000000091
:102748000000000000000000232D302B2000686CE2
:102758004C006566674546470030313233343536BC
:1027680037383941424344454600303132333435F5
:0C27780036373839616263646566000022
:04278400090200083E
:04278800E50100085F
:10278C0001000000100000000024F40010000020E4
:10279C00000000001027000830270008F026000871
:1027AC00000000000000000000000000000000001D
:1027BC00000000000000000000000000000000000D
:1027CC0000000000000000000000000000000000FD
:1027DC0000000000000000000000000000000000ED
:1027EC0000000000000000000000000000000000DD
:04000005080017E9EF
:00000001FF
