:020000040800F2
:1000000000800120196600082D640008396400088A
:100010003F640008456400084B64000800000000CD
:100020000000000000000000000000005164000813
:100030005D64000800000000696400087564000841
:100040006166000861660008616600086166000874
:100050006166000861660008616600086166000864
:100060006166000861660008616600086166000854
:100070006166000861660008616600086166000844
:100080006166000861660008616600086166000834
:100090006166000861660008616600086166000824
:1000A0006166000861660008616600086166000814
:1000B0006166000861660008616600086166000804
:1000C00061660008616600086166000861660008F4
:1000D00061660008616600086166000861660008E4
:1000E00061660008616600086166000861660008D4
:1000F00061660008616600086166000861660008C4
:100100006166000881640008616600086166000895
:1001100061660008616600086166000861660008A3
:100120006166000861660008616600086166000893
:1001300000000000000000000000000000000000BF
:1001400000000000000000000000000000000000AF
:10015000000000000000000000000000000000009F
:10016000000000000000000000000000000000008F
:10017000000000000000000000000000000000007F
:10018000000000000000000000000000000000006F
:10019000000000000000000000000000000000005F
:1001A000000000000000000000000000000000004F
:1001B000000000000000000000000000000000003F
:1001C000000000000000000000000000000000002F
:1001D000000000000000000000000000000000001F
:0401E0005FF8E0F1F3
:1001E40010B5054C237833B9044B13B10448AFF36D
:1001F40000800123237010BD700000200000000067
:10020400D074000808B5034B1BB103490348AFF38E
:10021400008008BD0000000074000020D0740008B5
:1002240080B500AF084A084B1B6843F01003136005
:10023400032000F043F9002000F008F806F014F859
:100244000023184680BD00BF0020024080B582B064
:1002540000AF7860124B1A68124B1B7819464FF4A2
:100264007A73B3FBF1F3B2FBF3F3184600F05BF9D6
:100274000346002B01D001230EE07B680F2B0AD824
:10028400002279684FF0FF3000F023F9064A7B68BA
:100294001360002300E0012318460837BD4680BDE3
:1002A40008000020040000200000002080B400AFFB
:1002B400054B1B781A46054B1B681344034A13600D
:1002C40000BFBD4680BC704704000020C40000206D
:1002D40080B400AF024B1B681846BD4680BC704713
:1002E400C400002080B584B000AF7860FFF7F0FF51
:1002F400B8607B68FB60FB68B3F1FF3F05D0094B36
:100304001B781A46FB681344FB6000BFFFF7E0FF4D
:100314000246BB68D21AFB689A42F7D300BF103773
:10032400BD4680BD0400002080B485B000AF786075
:100334007B6803F00703FB600C4BDB68BB60BA68A7
:100344004FF6FF031340BB60FB681A02BB681343FC
:1003540043F0BF6343F40033BB60044ABB68D3601B
:1003640000BF1437BD4680BC704700BF00ED00E0FD
:1003740080B400AF044BDB681B0A03F00703184684
:10038400BD4680BC704700BF00ED00E080B483B080
:1003940000AF0346FB7197F90730002B0BDB0849CC
:1003A40097F907305B09FA7902F01F02012000FA7D
:1003B40002F241F8232000BF0C37BD4680BC7047D1
:1003C40000E100E080B483B000AF03463960FB7104
:1003D40097F90730002B0ADB0D4997F907303A6883
:1003E400D2B21201D2B20B4483F800230AE00949C5
:1003F400FB7903F00F03043B3A68D2B21201D2B284
:100404000B441A7600BF0C37BD4680BC704700BF52
:1004140000E100E000ED00E080B489B000AFF860D6
:10042400B9607A60FB6803F00703FB61FB69C3F101
:100434000703042B28BF0423BB61FB690433062B89
:1004440002D9FB69033B00E000237B610122BB6905
:1004540002FA03F35A1EBB681A407B699A400121D1
:100464007B6901FA03F3591E7B680B40134318465A
:100474002437BD4680BC704780B582B000AF786039
:100484007B68013BB3F1807F01D301230FE00A4A6B
:100494007B68013B53600F214FF0FF30FFF792FF61
:1004A400054B00229A60044B07221A600023184669
:1004B4000837BD4680BD00BF10E000E080B582B0C3
:1004C40000AF78607868FFF72FFF00BF0837BD469C
:1004D40080BD80B586B000AF0346B9607A60FB7317
:1004E40000237B61FFF744FF78617A68B968786913
:1004F400FFF792FF024697F90F3011461846FFF7AF
:1005040061FF00BF1837BD4680BD80B582B000AF23
:100514000346FB7197F907301846FFF737FF00BF12
:100524000837BD4680BD80B582B000AF786078687A
:10053400FFF7A2FF034618460837BD4680BD0000FA
:1005440080B584B000AF78600023FB737B6893F8B8
:100554002130022B05D07B6804229A630123FB73AC
:10056400ECE07B681B687A681268126822F00E025D
:100574001A607B681B687A681268126822F00102AC
:100584001A607B681B681A466F4B9A4263D96F4A9C
:100594007B681B6819466E4B994259D07B681B686F
:1005A40019466C4B994251D07B681B6819466A4BBB
:1005B400994248D07B681B681946684B99423FD0E2
:1005C4007B681B681946664B994236D07B681B686A
:1005D4001946644B99422DD07B681B6819465A4BC7
:1005E400994224D07B681B6819465F4B99421CD002
:1005F4007B681B6819465D4B994214D07B681B6865
:1006040019465B4B99420BD07B681B681946594BC2
:10061400994202D14FF480531BE04FF4803318E029
:100624004FF4807315E0102313E0012311E04FF021
:1006340080730EE04FF480130BE04FF4803308E036
:100644004FF4805305E04FF4807302E0102300E080
:100654000123536062E0484A7B681B6819463C4B9F
:10066400994259D07B681B6819463A4B994251D03C
:100674007B681B681946384B994248D07B681B68D5
:100684001946364B99423FD07B681B681946344B58
:10069400994236D07B681B681946324B99422DD05B
:1006A4007B681B681946284B994224D07B681B68D9
:1006B40019462D4B99421CD07B681B6819462B4B5D
:1006C400994214D07B681B681946294B99420BD078
:1006D4007B681B681946274B994202D14FF480531B
:1006E4001BE04FF4803318E04FF4807315E01023BF
:1006F40013E0012311E04FF080730EE04FF48013F8
:100704000BE04FF4803308E04FF4805305E04FF4DE
:10071400807302E0102300E0012353607B68012210
:1007240083F821207B68002283F820207B685B6BA0
:10073400002B03D07B685B6B78689847FB7B18467B
:100744001037BD4680BD00BF800002400004024057
:10075400080002401C0002403000024044000240F5
:10076400580002406C000240080402401C0402408D
:1007740030040240440402400000024080B48BB0C4
:1007840000AF7860396000237B6200233B6233E171
:1007940001227B6A02FA03F3FB613B681A68FB6976
:1007A4001340BB61BA69FB699A4240F022813B68FD
:1007B4005B68122B34D0122B0DD8022B2BD0022BBA
:1007C40004D8002B31D0012B1CD048E0032B43D09C
:1007D400112B1BD043E08F4A934226D08D4A93427B
:1007E40006D88D4A934220D08C4A93421DD036E0DD
:1007F4008B4A934219D08B4A934216D08A4A934229
:1008040013D02CE03B68DB683B6228E03B68DB6884
:1008140004333B6223E03B68DB6808333B621EE041
:100824003B68DB680C333B6219E03B689B68002B38
:1008340002D104233B6212E03B689B68012B05D183
:1008440008233B627B68FA691A6108E008233B626B
:100854007B68FA695A6102E000233B6200BFBB690E
:10086400FF2B01D87B6801E07B6804337B61BB69A3
:10087400FF2B02D87B6A9B0002E07B6A083B9B004B
:100884003B617B691A680F213B6901FA03F3DB437F
:100894001A40396A3B6901FA03F31A437B691A6007
:1008A4003B685B6803F08053002B00F0A2805F4A32
:1008B4005E4B9B6943F0010393615C4B9B6903F0BE
:1008C4000103BB60BB685A4A7B6A9B08023352F837
:1008D4002330FB607B6A03F003039B000F2202FAC0
:1008E40003F3DB43FA681340FB607B68514A93428D
:1008F4001FD07B68504A934219D07B684F4A934279
:1009040013D07B684E4A93420DD07B684D4A934284
:1009140007D07B684C4A934201D105230AE00623A1
:1009240008E0042306E0032304E0022302E0012399
:1009340000E000237A6A02F0030292009340FA680E
:100944001343FB603A497B6A9B080233FA6841F817
:1009540023203B685B6803F48033002B06D03B49BB
:100964003A4B1A68BB6913430B6006E03749374BAF
:100974001A68BB69DB4313400B603B685B6803F494
:100984000033002B06D03149304B5A68BB691343FE
:100994004B6006E02D492D4B5A68BB69DB4313407D
:1009A4004B603B685B6803F48013002B06D0274937
:1009B400264B9A68BB6913438B6006E02349234B9B
:1009C4009A68BB69DB4313408B603B685B6803F444
:1009D4000013002B06D01D491C4BDA68BB69134376
:1009E400CB6006E01949194BDA68BB69DB43134055
:1009F400CB607B6A01337B623B681A687B6A22FAAC
:100A040003F3002B7FF4C4AE00BF2C37BD4680BC7B
:100A1400704700BF000021100000111000001210E8
:100A240000003110000032100000221000100240BB
:100A34000000014000080140000C0140001001408A
:100A44000014014000180140001C01400004014052
:100A540080B586B000AF78607B68002B01D101239C
:100A64006CE27B681B6803F00103002B00F08780B5
:100A7400924B5B6803F00C03042B0CD08F4B5B6828
:100A840003F00C03082B12D18C4B5B6803F4803306
:100A9400B3F5803F0BD1894B1B6803F40033002B63
:100AA4006CD07B685B68002B68D1012346E27B68CD
:100AB4005B68B3F5803F06D1804A804B1B6843F4E2
:100AC400803313602EE07B685B68002B0CD17B4A7B
:100AD4007A4B1B6823F480331360784A774B1B6886
:100AE40023F4802313601DE07B685B68B3F5A02FBB
:100AF4000CD1724A714B1B6843F4802313606F4A14
:100B04006E4B1B6843F4803313600BE06B4A6B4BF2
:100B14001B6823F480331360684A684B1B6823F412
:100B2400802313607B685B68002B13D0FFF7D0FB36
:100B3400386108E0FFF7CCFB02463B69D31A642B0B
:100B440001D90323FAE15D4B1B6803F40033002B46
:100B5400F0D014E0FFF7BCFB386108E0FFF7B8FB06
:100B640002463B69D31A642B01D90323E6E1534BB4
:100B74001B6803F40033002BF0D100E000BF7B6856
:100B84001B6803F00203002B63D04C4B5B6803F03B
:100B94000C03002B0BD0494B5B6803F00C03082BB0
:100BA4001CD1464B5B6803F48033002B16D1434BB6
:100BB4001B6803F00203002B05D07B681B69012B23
:100BC40001D00123BAE13D493C4B1B6823F0F802F4
:100BD4007B685B69DB0013430B603AE07B681B694D
:100BE400002B20D0364B01221A60FFF771FB3861CD
:100BF40008E0FFF76DFB02463B69D31A022B01D9CB
:100C040003239BE12D4B1B6803F00203002BF0D060
:100C14002A492A4B1B6823F0F8027B685B69DB00D6
:100C240013430B6015E0264B00221A60FFF750FBBC
:100C3400386108E0FFF74CFB02463B69D31A022BEC
:100C440001D903237AE11D4B1B6803F00203002B37
:100C5400F0D17B681B6803F00803002B3AD07B6853
:100C64009B69002B19D0174B01221A60FFF730FB48
:100C7400386108E0FFF72CFB02463B69D31A022BCC
:100C840001D903235AE10D4B5B6A03F00203002BE5
:100C9400F0D0012000F0DAFA1CE00A4B00221A60BE
:100CA400FFF716FB38610FE0FFF712FB02463B69C2
:100CB400D31A022B08D9032340E100BF00100240DD
:100CC40000004242800442429E4B5B6A03F00203EE
:100CD400002BE9D17B681B6803F00403002B00F0B0
:100CE400A6800023FB75974BDB6903F08053002B30
:100CF4000DD1944A934BDB6943F08053D361914BFC
:100D0400DB6903F08053BB60BB680123FB758E4B2A
:100D14001B6803F48073002B18D18B4A8A4B1B6821
:100D240043F480731360FFF7D3FA386108E0FFF7E8
:100D3400CFFA02463B69D31A642B01D90323FDE0A1
:100D4400814B1B6803F48073002BF0D07B68DB6855
:100D5400012B06D17B4A7B4B1B6A43F001031362D0
:100D64002DE07B68DB68002B0CD1764A754B1B6A3F
:100D740023F001031362734A724B1B6A23F00403CA
:100D840013621CE07B68DB68052B0CD16D4A6D4B4C
:100D94001B6A43F0040313626A4A6A4B1B6A43F0FA
:100DA400010313620BE0674A664B1B6A23F00103DD
:100DB4001362644A634B1B6A23F0040313627B6867
:100DC400DB68002B15D0FFF783FA38610AE0FFF7E0
:100DD4007FFA02463B69D31A41F28832934201D921
:100DE4000323ABE0574B1B6A03F00203002BEED046
:100DF40014E0FFF76DFA38610AE0FFF769FA02467A
:100E04003B69D31A41F28832934201D9032395E016
:100E14004C4B1B6A03F00203002BEED1FB7D012B2C
:100E240005D1484A474BDB6923F08053D3617B6883
:100E3400DB69002B00F08180424B5B6803F00C03FC
:100E4400082B61D07B68DB69022B46D13F4B002223
:100E54001A60FFF73DFA386108E0FFF739FA0246F5
:100E64003B69D31A022B01D9032367E0354B1B6876
:100E740003F00073002BF0D17B681B6AB3F5803F4D
:100E840008D130492F4B5B6823F400327B689B68A0
:100E940013434B602B482B4B5B6823F474127B6821
:100EA400196A7B685B6A0B4313434360274B012237
:100EB4001A60FFF70DFA386108E0FFF709FA0246F5
:100EC4003B69D31A022B01D9032337E01D4B1B685E
:100ED40003F00073002BF0D02FE01C4B00221A60AB
:100EE400FFF7F6F9386108E0FFF7F2F902463B69CB
:100EF400D31A022B01D9032320E0124B1B6803F001
:100F04000073002BF0D118E07B68DB69012B01D161
:100F1400012313E00B4B5B68FB60FB6803F4803236
:100F24007B681B6A9A4206D1FB6803F470127B68E3
:100F34005B6A9A4201D0012300E000231846183767
:100F4400BD4680BD00100240007000406000424277
:100F540080B584B000AF786039607B68002B01D124
:100F64000123D0E06A4B1B6803F007023B689A42F6
:100F740010D26749664B1B6823F007023B68134392
:100F84000B60634B1B6803F007023B689A4201D075
:100F94000123B8E07B681B6803F00203002B20D018
:100FA4007B681B6803F00403002B05D0594A594B96
:100FB4005B6843F4E06353607B681B6803F00803D9
:100FC400002B05D0534A534B5B6843F46053536082
:100FD4005049504B5B6823F0F0027B689B681343D5
:100FE4004B607B681B6803F00103002B40D07B68D7
:100FF4005B68012B07D1474B1B6803F40033002BBC
:1010040015D101237FE07B685B68022B07D1414B3C
:101014001B6803F00073002B09D1012373E03D4BDF
:101024001B6803F00203002B01D101236BE0394953
:10103400384B5B6823F003027B685B6813434B60A7
:10104400FFF746F9F8600AE0FFF742F90246FB6849
:10105400D31A41F28832934201D9032353E02D4B32
:101064005B6803F00C027B685B689B009A42EBD1DF
:10107400274B1B6803F007023B689A4210D92449A6
:10108400234B1B6823F007023B6813430B60204B80
:101094001B6803F007023B689A4201D0012332E047
:1010A4007B681B6803F00403002B08D01949194B13
:1010B4005B6823F4E0627B68DB6813434B607B6806
:1010C4001B6803F00803002B09D01249114B5B681D
:1010D40023F460527B681B69DB0013434B6000F010
:1010E40021F801460B4B5B681B0903F00F030A4A06
:1010F400D35C21FA03F3094A1360094B1B681846B1
:10110400FFF7A4F8002318461037BD4680BD00BF82
:101114000020024000100240207600080800002051
:101124000000002090B48AB000AF2A4B3C1D0FCBC6
:1011340084E80F00284B1B883B800023FB610023BD
:10114400BB6100237B6200237B6100233B62234B52
:101154005B68FB61FB6903F00C03042B02D0082BD2
:1011640003D02DE01E4B3B622DE0FB699B0C03F08A
:101174000F0307F12802134413F8243C7B61FB6935
:1011840003F48033002B13D0144B5B685B0C03F027
:10119400010307F12802134413F8283CBB617B695F
:1011A4000F4A02FB03F2BB69B2FBF3F37B6204E078
:1011B4007B690C4A02FB03F37B627B6A3B6202E0BD
:1011C400074B3B6200BF3B6A18462837BD4690BCBC
:1011D400704700BFE8740008F8740008001002406B
:1011E40000127A0000093D0080B400AF024B1B6876
:1011F4001846BD4680BC70470800002080B500AF8B
:10120400FFF7F2FF0146054B5B681B0A03F0070377
:10121400034AD35C21FA03F3184680BD0010024050
:101224003076000880B500AFFFF7DEFF0146054BBE
:101234005B68DB0A03F00703034AD35C21FA03F378
:10124400184680BD001002403076000880B485B096
:1012540000AF78600A4B1B680A4AA2FB03235B0AAF
:101264007A6802FB03F3FB6000BFFB685A1EFA6056
:10127400002BF9D100BF1437BD4680BC704700BFB6
:1012840008000020D34D621080B582B000AF7860B2
:101294007B68002B01D1012322E07B6893F8343072
:1012A400DBB2002B05D17B6800221A77786805F041
:1012B4000DF87B68032283F83420786800F014F872
:1012C4000346002B01D001230AE07B6800229A63C5
:1012D4007B6800221A637B68012283F83420002390
:1012E40018460837BD4680BDB0B58EB004AF7860EF
:1012F4000023BB600023FB6000233B6100237B6170
:101304000023BB617623FB617B681D686C4607F193
:10131400140393E8070084E8070007F108030ECBE1
:10132400284601F0FBFB034687F8273097F827305F
:10133400002B01D0012331E01A4B00221A607B6894
:101344001B68184601F030FC164B01221A607868BD
:1013540001F07EF838623B6A002B0BD07B680122D7
:1013640083F834207B689A6B3B6A1A437B689A63E0
:10137400012313E0786800F09EFF38623B6A002B7B
:101384000BD07B68012283F834207B689A6B3B6A1C
:101394001A437B689A63012300E000231846283728
:1013A400BD46B0BDA000304280B592B000AFF86039
:1013B400B9607A603B60FEF78BFF38637B68BB6380
:1013C400BB687B63BB68002B07D1FB689B6B43F056
:1013D4000062FB689A630123D9E1FB6893F8343017
:1013E400DBB2012B40F0CC81FB6800229A63BA6B1C
:1013F4003B681A44FB68DB6D9A4207D9FB689B6B18
:1014040043F00072FB689A630123C0E1FB68032286
:1014140083F83420FB681B680022DA62FB685B6C8B
:10142400012B02D0BB6B5B02BB63FB681B684FF4F0
:101434000071184601F046FC78647B6C002B0FD0D9
:10144400FB681B689B4A9A63FB689A6B7B6C1A4324
:10145400FB689A63FB68012283F83420012396E138
:101464004FF0FF337B613B685B02BB619023FB6100
:1014740002233B6200237B620123BB62FB681B687F
:1014840007F114021146184601F0F1FB3B68012BE9
:101494000AD9FB6802221A63FB681B68B96B1846F9
:1014A40001F054FC786409E0FB6801221A63FB68CC
:1014B4001B68B96B184601F027FC78647B6C002B21
:1014C40012D0FB681B687B4A9A63FB689A6B7B6C3F
:1014D4001A43FB689A63FB68012283F83420FB6893
:1014E40000221A63012352E1BB69FB6361E0FB68DC
:1014F4001B685B6B03F40043002B3CD0FB6B002B9D
:1015040039D000233B6433E0FB681B68184601F0C4
:101514002FFBF862FB6ADAB27B6B1A707B6B0133C8
:101524007B63FB6B013BFB63FB6A1B0ADAB27B6BDD
:101534001A707B6B01337B63FB6B013BFB63FB6AC0
:101544001B0CDAB27B6B1A707B6B01337B63FB6B16
:10155400013BFB63FB6A1B0EDAB27B6B1A707B6B7D
:1015640001337B63FB6B013BFB633B6C01333B64EB
:101574003B6C072BC8D9FEF7ABFE02463B6BD21A75
:101584003B6D9A4202D23B6D002B12D1FB681B6863
:10159400484A9A63FB689B6B43F00042FB689A637A
:1015A400FB68012283F83420FB6800221A630323BA
:1015B400EDE0FB681B685A6B40F22A331340002BA2
:1015C40095D0FB681B685B6B03F48073002B22D0FF
:1015D4003B68012B1FD9FB685B6C032B1BD0FB689A
:1015E4001B68184601F018FC78647B6C002B12D041
:1015F400FB681B682F4A9A63FB689A6B7B6C1A43DF
:10160400FB689A63FB68012283F83420FB6800229C
:101614001A630123BBE0FB681B685B6B03F00803E0
:10162400002B12D0FB681B68224A9A63FB689B6BF1
:1016340043F00802FB689A63FB68012283F83420B4
:10164400FB6800221A630123A1E0FB681B685B6B43
:1016540003F00203002B12D0FB681B68154A9A633F
:10166400FB689B6B43F00202FB689A63FB680122F0
:1016740083F83420FB6800221A63012387E0FB68A7
:101684001B685B6B03F02003002B64D0FB681B68B2
:10169400084A9A63FB689B6B43F02002FB689A63D9
:1016A400FB68012283F83420FB6800221A630123BB
:1016B4006DE000BFFF054000FB681B68184601F0A1
:1016C40057FAF862FB6ADAB27B6B1A707B6B0133F0
:1016D4007B63FB6B013BFB63FB6A1B0ADAB27B6B2C
:1016E4001A707B6B01337B63FB6B013BFB63FB6A0F
:1016F4001B0CDAB27B6B1A707B6B01337B63FB6B65
:10170400013BFB63FB6A1B0EDAB27B6B1A707B6BCB
:1017140001337B63FB6B013BFB63FEF7D9FD0246A0
:101724003B6BD21A3B6D9A4202D23B6D002B12D115
:10173400FB681B68184A9A63FB689B6B43F0004282
:10174400FB689A63FB68012283F83420FB6800225B
:101754001A6301231BE0FB681B685B6B03F4001333
:10176400002B02D0FB6B002BA6D1FB681B6840F258
:101774003A529A63FB68012283F83420002306E07E
:10178400FB689B6B43F00052FB689A630123184685
:101794004837BD4680BD00BFFF05400080B592B00C
:1017A40000AFF860B9607A603B60FEF791FD386382
:1017B4007B68BB63BB687B63BB68002B07D1FB689A
:1017C4009B6B43F00062FB689A63012384E1FB682E
:1017D40093F83430DBB2012B40F07781FB680022B0
:1017E4009A63BA6B3B681A44FB68DB6D9A4207D96B
:1017F400FB689B6B43F00072FB689A6301236BE107
:10180400FB68032283F83420FB681B680022DA6239
:10181400FB685B6C012B02D0BB6B5B02BB63FB6898
:101824001B684FF40071184601F04CFA78647B6C25
:10183400002B0FD0FB681B689D4A9A63FB689A6B68
:101844007B6C1A43FB689A63FB68012283F834209B
:10185400012341E14FF0FF33BB613B685B02FB6155
:1018640090233B6200237B620023BB620123FB6263
:10187400FB681B6807F118021146184601F0F7F9D6
:101884003B68012B0AD9FB6820221A63FB681B689A
:10189400B96B184601F09EFA786409E0FB681022DF
:1018A4001A63FB681B68B96B184601F071FA786417
:1018B4007B6C002B12D0FB681B687D4A9A63FB6823
:1018C4009A6B7B6C1A43FB689A63FB68012283F86A
:1018D4003420FB6800221A630123FDE0FB69FB63EB
:1018E40065E0FB681B685B6B03F48043002B40D00E
:1018F400FB6B002B3DD000233B6437E07B6B1B78F4
:101904007B617B6B01337B63FB6B013BFB637B6B19
:101914001B781A027B6913437B617B6B01337B6306
:10192400FB6B013BFB637B6B1B781A047B691343E2
:101934007B617B6B01337B63FB6B013BFB637B6BE9
:101944001B781A067B6913437B617B6B01337B63D2
:10195400FB6B013BFB63FB681B6807F11402114638
:10196400184601F011F93B6C01333B643B6C072BC7
:10197400C4D9FEF7ADFC02463B6BD21A3B6D9A42CA
:1019840002D23B6D002B12D1FB681B68484A9A6354
:10199400FB689A6B7B6C1A43FB689A63FB680122B1
:1019A40083F83420FB6800221A63032394E0FB6865
:1019B4001B685A6B40F21A331340002B91D0FB681A
:1019C4001B685B6B03F48073002B22D03B68012BF4
:1019D4001FD9FB685B6C032B1BD0FB681B68184684
:1019E40001F01AFA78647B6C002B12D0FB681B6838
:1019F4002F4A9A63FB689A6B7B6C1A43FB689A6361
:101A0400FB68012283F83420FB6800221A63012357
:101A140062E0FB681B685B6B03F00803002B12D0C9
:101A2400FB681B68224A9A63FB689B6B43F00802BD
:101A3400FB689A63FB68012283F83420FB68002268
:101A44001A63012348E0FB681B685B6B03F0020325
:101A5400002B12D0FB681B68154A9A63FB689B6BCA
:101A640043F00202FB689A63FB68012283F8342086
:101A7400FB6800221A6301232EE0FB681B685B6B82
:101A840003F01003002B15D0FB681B68084A9A6307
:101A9400FB689B6B43F01002FB689A63FB680122AE
:101AA40083F83420FB6800221A63012314E000BF8A
:101AB400FF054000FB681B6840F23A529A63FB68DA
:101AC400012283F83420002306E0FB689B6B43F07B
:101AD4000052FB689A63012318464837BD4680BD0F
:101AE40080B584B000AF78607B681B6BFB607B685B
:101AF4001B685B6B03F40043002B08D0FB6803F006
:101B04000803002B03D0786800F058FD65E17B687A
:101B14001B685B6B03F48073002B00F08F807B6881
:101B24001B684FF480729A637B681A687B681B6831
:101B3400DB6B23F4434323F03A03D3637B681B68D2
:101B44007A681268D26A22F00102DA62FB6803F052
:101B54000803002B39D0FB6803F00203002B04D1E7
:101B6400FB6803F02003002B11D07B681B68184628
:101B740001F052F9B860BB68002B08D07B689A6BFF
:101B8400BB681A437B689A63786800F02FF97B6816
:101B94001B6840F23A529A637B68012283F834202E
:101BA4007B6800221A63FB6803F00103002B04D155
:101BB400FB6803F00203002B03D0786804F0FAF901
:101BC4000BE1786804F0ECF907E1FB6803F08003AB
:101BD400002B00F00281FB6803F02003002B11D0DE
:101BE4007B681B68184601F017F9B860BB68002BC6
:101BF40008D07B689A6BBB681A437B689A637868E1
:101C040000F0F4F8FB6803F00103002B40F0E580DA
:101C1400FB6803F00203002B40F0DF807B681B6845
:101C24007A681268D26A22F00802DA627B680122BA
:101C340083F83420786804F0B3F9CEE07B681B683D
:101C44005B6B03F48043002B08D0FB6803F00803AC
:101C5400002B03D0786800F002FDBEE07B681B68AF
:101C64005A6B40F23A231340002B00F0B6807B6895
:101C74001B685B6B03F00203002B05D07B689B6B36
:101C840043F002027B689A637B681B685B6B03F01A
:101C94000803002B05D07B689B6B43F008027B682C
:101CA4009A637B681B685B6B03F02003002B05D0F1
:101CB4007B689B6B43F020027B689A637B681B689C
:101CC4005B6B03F01003002B05D07B689B6B43F028
:101CD40010027B689A637B681B685B6B03F4007378
:101CE400002B05D07B689B6B43F008027B689A63EA
:101CF4007B681B6840F23A729A637B681A687B6857
:101D04001B68DB6B23F44E7323F00203D3637B68FD
:101D14001B68184601F080F802467B689B6B1A43E7
:101D24007B689A63FB6803F00803002B0AD07B6886
:101D3400012283F834207B6800221A63786800F05B
:101D440055F84AE0FB6803F08003002B45D0FB689C
:101D540003F01003002B04D1FB6803F02003002BD5
:101D640011D07B68DB6B1F4A5A637B68DB6B1846B8
:101D7400FEF7E6FB0346002B2FD07B68DB6B18468F
:101D840000F02BFA29E0FB6803F00103002B04D1D7
:101D9400FB6803F00203002B11D07B681B6C124A12
:101DA4005A637B681B6C1846FEF7CAFB0346002B7C
:101DB40013D07B681B6C184600F046FA0DE07B6874
:101DC40000229A637B68012283F834207B68002216
:101DD4001A63786804F0DAF8FFE700BF1037BD46ED
:101DE40080BD00BFDF2100084D22000880B483B00D
:101DF40000AF786000BF0C37BD4680BC7047000060
:101E040080B483B000AF786039607B685B6E9B0FF1
:101E1400DAB23B681A707B685B6E9B0EDBB203F030
:101E24000F03DAB23B685A707B685B6E1B0EDBB241
:101E340003F00303DAB23B689A707B685B6E1B0C99
:101E4400DAB23B68DA707B685B6E1B0ADAB23B6815
:101E54001A717B685B6EDAB23B685A717B689B6E61
:101E64001B0D9AB23B68DA807B689B6E1B0CDBB25D
:101E740003F00F03DAB23B681A727B689B6EDB0BCC
:101E8400DBB203F00103DAB23B685A727B689B6EE3
:101E94009B0BDBB203F00103DAB23B689A727B68F6
:101EA4009B6E5B0BDBB203F00103DAB23B68DA72C0
:101EB4007B689B6E1B0BDBB203F00103DAB23B6859
:101EC4001A733B6800225A737B685B6C002B62D1E7
:101ED4007B689B6E9A0040F6FC7313407A68D26E5E
:101EE400920F1A433B681A617B68DB6EDB0EDBB230
:101EF40003F00703DAB23B681A757B68DB6E1B0ECE
:101F0400DBB203F00703DAB23B685A757B68DB6E19
:101F14005B0DDBB203F00703DAB23B689A757B68AA
:101F2400DB6E9B0CDBB203F00703DAB23B68DA75B5
:101F34007B68DB6EDB0BDBB203F00703DAB23B68D2
:101F44001A763B681B695A1C7B685A653B681B7E82
:101F5400DBB203F00703023301229A407B685B6D16
:101F640002FB03F27B685A653B681B7ADBB203F021
:101F74000F0301229A407B689A657B685B6D7A68DF
:101F8400926D520A02FB03F27B68DA657B684FF4B8
:101F940000721A6631E07B685B6C012B1DD17B6893
:101FA4009B6E1B0403F47C127B68DB6E1B0C1A43D0
:101FB4003B681A613B681B6901339A027B685A6566
:101FC4007B685A6D7B68DA657B684FF400729A65AA
:101FD4007B689A6D7B681A660FE07B681B68584AB9
:101FE4009A637B689B6B43F080527B689A637B683F
:101FF400012283F8342001239DE07B68DB6E9B0B78
:10200400DBB203F00103DAB23B685A767B68DB6E1D
:10201400DB09DBB203F07F03DAB23B689A767B68B4
:10202400DB6EDBB203F07F03DAB23B68DA767B68FF
:102034001B6FDB0FDAB23B681A777B681B6F5B0F91
:10204400DBB203F00303DAB23B685A777B681B6F99
:102054009B0EDBB203F00703DAB23B689A777B6826
:102064001B6F9B0DDBB203F00F03DAB23B68DA7728
:102074007B681B6F5B0DDBB203F00103DAB23B68D4
:1020840083F820203B68002283F821207B681B6FA3
:102094001B0CDBB203F00103DAB23B6883F82220A5
:1020A4007B681B6FDB0BDBB203F00103DAB23B6826
:1020B40083F823207B681B6F9B0BDBB203F00103C7
:1020C400DAB23B6883F824207B681B6F5B0BDBB2BE
:1020D40003F00103DAB23B6883F825207B681B6FA9
:1020E4001B0BDBB203F00103DAB23B6883F8262052
:1020F4007B681B6F9B0ADBB203F00303DAB23B6815
:1021040083F827207B681B6F1B0ADBB203F00303F1
:10211400DAB23B6883F828207B681B6F5B08DBB26C
:1021240003F07F03DAB23B6883F829203B6801227D
:1021340083F82A20002318460C37BD4680BC70471C
:10214400FF05400080B483B000AF786039607B68DD
:102154005A6C3B681A607B689A6C3B685A607B686F
:10216400DA6C3B689A607B681A6D3B68DA607B685E
:102174005A6D3B681A617B689A6D3B685A617B684B
:10218400DA6D3B689A617B681A6E3B68DA610023FA
:1021940018460C37BD4680BC704780B586B000AF8A
:1021A40078600023FB6007F10C031946786800F09F
:1021B400DDF978617B69002B05D07B689A6B7B69BC
:1021C4001A437B689A63FB685B0A03F00F033B6165
:1021D4003B6918461837BD4680BD80B584B000AF52
:1021E40078607B685B6AFB60FB681B6840F23A526C
:1021F4009A63F868FFF7D1FFB860FB68012283F89F
:102204003420FB6800221A63BB68062B02D0BB682B
:10221400052B0AD1FB681B68184600F0FDFD024639
:10222400FB689B6B1A43FB689A63FB689B6B002BF0
:1022340003D1F86803F0AAFE02E0F868FFF7D6FDC0
:1022440000BF1037BD4680BD80B584B000AF786054
:102254007B685B6AFB60FB681B6840F23A529A63D6
:10226400F868FFF79AFFB860FB68012283F834200E
:10227400FB6800221A63BB68062B02D0BB68052BDF
:102284000AD1FB681B68184600F0C6FD0246FB68CD
:102294009B6B1A43FB689A63FB689B6B002B03D10F
:1022A400F86803F073FE02E0F868FFF79FFD00BFD3
:1022B4001037BD4680BDB0B594B004AF786001233B
:1022C400FB817B681B68184600F07DFC0346002BED
:1022D40002D14FF08063B7E07B685B6C032B2FD097
:1022E4007B681B68184600F05EFEF863FB6B002BEE
:1022F40001D0FB6BA8E07B681B680021184600F046
:10230400A4FC02467B685A677B681B680421184654
:1023140000F09BFC02467B689A677B681B68082177
:10232400184600F092FC02467B68DA677B681B68FB
:102334000C21184600F089FC02467B68C3F8802013
:102344007B685B6C032B0DD07B681B6807F10E0266
:102354001146184600F064FEF863FB6B002B01D0B5
:10236400FB6B71E07B685B6C032B36D0FB891A46F0
:102374007B681A657B681A687B681B6D1B041946A9
:10238400104600F02EFEF863FB6B002B01D0FB6BB4
:102394005AE07B681B680021184600F056FC024690
:1023A4007B685A667B681B680421184600F04DFC64
:1023B40002467B689A667B681B680821184600F011
:1023C40044FC02467B68DA667B681B680C2118466D
:1023D40000F03BFC02467B681A677B681B6804219B
:1023E400184600F032FC03461A0D7B68DA6407F1E4
:1023F400100319467868FFF703FD0346002B02D04B
:102404004FF0805320E07B6819687B681B6D1B04C8
:102414004FF000041A462346084600F01FFDF863F7
:10242400FB6B002B01D0FB6B0EE07B681D687B68A7
:102434006C4603F1100207CA84E8070004330ECB8C
:10244400284600F06BFB002318464037BD46B0BD5C
:1024540080B586B000AF78600023BB6000237B6149
:1024640000233B617B681B68184600F01AFDF86086
:10247400FB68002B01D0FB6872E07B681B68184680
:1024840000F02DFDF860FB68002B0DD07B68002266
:102494009A647B681B68184600F003FDF860FB68CB
:1024A400002B04D0FB685BE07B6801229A647B68A4
:1024B4009B6C012B37D17B681B680021184600F008
:1024C4002DFDF860FB68002B2DD04FF0805347E0C2
:1024D4007B681B680021184600F020FDF860FB684B
:1024E400002B01D0FB683BE07B681B681E49184643
:1024F40000F036FDF860FB68002B02D04FF08053EB
:102504002EE07B681B680021184600F09EFB786172
:102514007B69DB0F012B01D1012300E000233B6128
:10252400BB680133BB60BB684FF6FE72934202D8AE
:102534003B69002BCCD0BB684FF6FE72934202D9A4
:102544004FF080730CE07B6903F08043002B03D0D1
:102554007B6801225A6402E07B6800225A640023EB
:1025640018461837BD4680BD000010C180B584B040
:1025740000AF786039603B68002B02D14FF00063F4
:1025840018E07B681A687B681B6D1B0419461046AB
:1025940000F067FDF860FB68002B01D0FB6809E0E0
:1025A4007B681B680021184600F04FFB02463B681D
:1025B4001A60002318461037BD4680BD80B586B02A
:1025C40000AF78607B689B6AFB607B68DB6A3B6179
:1025D4003B69002B3FD000237B6133E07B681B68A1
:1025E400184600F0C5FAB860BB68DAB2FB681A7026
:1025F400FB680133FB603B69013B3B61BB681B0A21
:10260400DAB2FB681A70FB680133FB603B69013B7B
:102614003B61BB681B0CDAB2FB681A70FB680133C0
:10262400FB603B69013B3B61BB681B0EDAB2FB6894
:102634001A70FB680133FB603B69013B3B617B69BA
:1026440001337B617B69072BC8D97B68FA689A627E
:102654007B683A69DA6200BF1837BD4680BD80B531
:1026640086B000AF78607B681B6AFB607B685B6A3E
:102674003B613B69002B43D000237B6137E0FB685F
:102684001B78BB60FB680133FB603B69013B3B612A
:10269400FB681B781A02BB681343BB60FB680133F9
:1026A400FB603B69013B3B61FB681B781A04BB6818
:1026B4001343BB60FB680133FB603B69013B3B6137
:1026C400FB681B781A06BB681343BB60FB680133C5
:1026D400FB603B69013B3B617B681B6807F10802B7
:1026E4001146184600F050FA7B6901337B617B691F
:1026F400072BC4D97B68FA681A627B683A695A6204
:1027040000BF1837BD4680BD80B582B000AF786089
:102714007B68002B01D101233FE07B6893F83930BB
:10272400DBB2002B06D17B68002283F8382078685E
:1027340003F02EFE7B68242283F839207B681B6813
:102744007A681268D26822F40052DA60786800F07D
:102754000BF97B681B687A681268126922F490424C
:102764001A617B681B687A681268526922F02A022F
:102774005A617B681B687A681268D26842F4005216
:10278400DA607B680022DA637B68202283F83920D0
:102794007B68202283F83A20002318460837BD4678
:1027A40080BD80B588B002AFF860B9603B60134665
:1027B400FB8000237B61FB6893F83930DBB2202B6C
:1027C40040F08280BB68002B02D0FB88002B01D133
:1027D40001237AE0FB6893F83830012B01D10223FE
:1027E40073E0FB68012283F83820FB680022DA6377
:1027F400FB68212283F83920FDF76AFD7861FB68C4
:10280400FA889A84FB68FA88DA8441E0FB68DB8CF6
:102814009BB2013B9AB2FB68DA84FB689B68B3F510
:10282400805F21D13B6800937B6900228021F86896
:1028340000F04FF80346002B01D0032345E0BB68AA
:102844003B61FB681B683A691288C2F308025A604C
:10285400FB681B69002B03D1BB680233BB6017E024
:10286400BB680133BB6013E03B6800937B690022C3
:102874008021F86800F02DF80346002B01D00323D3
:1028840023E0FB681A68BB68591CB9601B78536065
:10289400FB68DB8C9BB2002BB8D13B6800937B694F
:1028A40000224021F86800F014F80346002B01D000
:1028B40003230AE0FB68202283F83920FB68002206
:1028C40083F83820002300E0022318461837BD4659
:1028D40080BD80B584B000AFF860B9603B6013463A
:1028E400FB712CE0BB69B3F1FF3F28D0BB69002B1F
:1028F40007D0FDF7EDFC02463B68D21ABB699A4249
:102904001DD9FB681B68FA681268D26822F4D07279
:10291400DA60FB681B68FA681268526922F00102E7
:102924005A61FB68202283F83920FB68202283F84F
:102934003A20FB68002283F8382003230FE0FB6869
:102944001B681A68BB681A40BB689A420CBF012313
:102954000023DBB21A46FB799A42C3D000231846FF
:102964001037BD4680BD000090B585B000AF7860DB
:102974007B681B687A681268126922F440517A688D
:10298400D2680A431A617B689A687B681B691A4398
:102994007B685B691343FB607B681A687B681B6810
:1029A400DB6823F4B05323F00C03F9680B43D360C2
:1029B4007B681B687A681268526922F440717A68ED
:1029C40092690A435A617B681B68524A93424ED10A
:1029D400FEF728FCB8607B681968BA6813469B0048
:1029E40013449A001A447B685B689B00B2FBF3F3C0
:1029F400494AA2FB03235B091801BA6813469B00EA
:102A040013449A001A447B685B689B00B2FBF3F2A0
:102A1400414BA3FB02435B09642404FB03F3D31A75
:102A24001B0132333C4AA2FB03235B0903F0F0038E
:102A34001844BA6813469B0013449A001A447B68EE
:102A44005B689B00B2FBF3F2334BA3FB02435B09CD
:102A5400642404FB03F3D31A1B0132332E4AA2FB72
:102A640003235B0903F00F0303448B604DE0FEF77F
:102A7400C5FBB8607B681968BA6813469B001344A9
:102A84009A001A447B685B689B00B2FBF3F3224A0A
:102A9400A2FB03235B091801BA6813469B00134485
:102AA4009A001A447B685B689B00B2FBF3F21A4BF2
:102AB400A3FB02435B09642404FB03F3D31A1B0145
:102AC4003233154AA2FB03235B0903F0F0031844D5
:102AD400BA6813469B0013449A001A447B685B68E7
:102AE4009B00B2FBF3F20C4BA3FB02435B0964248F
:102AF40004FB03F3D31A1B013233074AA2FB03235B
:102B04005B0903F00F0303448B6000BF1437BD4619
:102B140090BD00BF003801401F85EB5184B080B4E4
:102B240085B000AF786007F11C0080E80E00002338
:102B3400FB60FA693B6A1A437B6A1A43BB6A1A430D
:102B4400FB6A1A433B6B1343FA681343FB607B68CD
:102B54005B6823F4FD4323F07F03FA681A437B6820
:102B64005A60002318461437BD4680BC04B0704731
:102B740080B483B000AF78607B68D3F880301846A7
:102B84000C37BD4680BC704780B483B000AF78601A
:102B940039603B681A687B68C3F8802000231846B4
:102BA4000C37BD4680BC704780B582B000AF7860FA
:102BB4007B6803221A600220FDF794FB0023184669
:102BC4000837BD4680BD80B483B000AF78607B68B1
:102BD4001B6803F0030318460C37BD4680BC7047DE
:102BE40080B485B000AF786039600023FB603B6837
:102BF4001A687B689A603B685A683B689B681A430A
:102C04003B68DB681A433B681B691343FA68134348
:102C1400FB607B68DB6823F47F6323F00F03FA68AF
:102C24001A437B68DA60002318461437BD4680BC1B
:102C3400704780B483B000AF78607B681B69DBB2F7
:102C440018460C37BD4680BC704780B485B000AFD1
:102C5400786039607B6814331A463B681344FB6020
:102C6400FB681B6818461437BD4680BC704780B4A7
:102C740085B000AF786039600023FB603B681A6858
:102C84007B685A623B685A687B689A623B689A68B8
:102C94003B68DB681A433B681B691A433B685B6902
:102CA4001343FA681343FB607B68DB6A23F0F70283
:102CB400FB681A437B68DA62002318461437BD4662
:102CC40080BC704780B588B000AF786039603B68DD
:102CD400BB601023FB6040233B6100237B614FF406
:102CE4008063BB6107F1080319467868FFF778FF32
:102CF40041F288321021786800F0FEF9F861FB692E
:102D040018462037BD4680BD80B588B000AF7860D6
:102D140039603B68BB601123FB6040233B610023A7
:102D24007B614FF48063BB6107F10803194678683F
:102D3400FFF756FF41F288321121786800F0DCF980
:102D4400F861FB6918462037BD4680BD80B588B060
:102D540000AF786039603B68BB601223FB6040239E
:102D64003B6100237B614FF48063BB6107F108037F
:102D740019467868FFF734FF41F2883212217868E7
:102D840000F0BAF9F861FB6918462037BD4680BDEA
:102D940080B588B000AF786039603B68BB601823A9
:102DA400FB6040233B6100237B614FF48063BB6184
:102DB40007F1080319467868FFF712FF41F28832D9
:102DC4001821786800F098F9F861FB6918462037F3
:102DD400BD4680BD80B588B000AF786039603B687F
:102DE400BB601923FB6040233B6100237B614FF4EC
:102DF4008063BB6107F1080319467868FFF7F0FEAA
:102E040041F288321921786800F076F9F861FB699B
:102E140018462037BD4680BD80B588B000AF7860C5
:102E24000023BB600C23FB6040233B6100237B61D8
:102E34004FF48063BB6107F1080319467868FFF714
:102E4400CFFE054A0C21786800F056F9F861FB6959
:102E540018462037BD4680BD00E1F50580B58AB02F
:102E640000AFF860C7E900233B683B6107237B613F
:102E74004023BB610023FB614FF480633B6207F195
:102E840010031946F868FFF7ABFE41F288320721B8
:102E9400F86800F031F978627B6A18462837BD4635
:102EA40080BD80B588B000AF78600023BB6000238C
:102EB400FB6000233B6100237B614FF48063BB61B3
:102EC40007F1080319467868FFF78AFE786800F06E
:102ED400EBF8F861FB6918462037BD4680BD80B524
:102EE40088B000AF78604FF4D573BB600823FB60F3
:102EF40040233B6100237B614FF48063BB6107F196
:102F0400080319467868FFF76BFE786800F0D4FA76
:102F1400F861FB6918462037BD4680BD80B588B08E
:102F240000AF786039603B68BB603723FB604023A7
:102F34003B6100237B614FF48063BB6107F10803AD
:102F440019467868FFF74CFE41F2883237217868D9
:102F540000F0D2F8F861FB6918462037BD4680BD01
:102F640080B588B000AF786039603B6843F00043B7
:102F740043F48013BB602923FB6040233B6100239F
:102F84007B614FF48063BB6107F1080319467868DD
:102F9400FFF726FE786800F0E1F9F861FB6918464E
:102FA4002037BD4680BD80B588B000AF786000236F
:102FB400BB600223FB60C0233B6100237B614FF4B1
:102FC4008063BB6107F1080319467868FFF708FEC0
:102FD400786800F07DF9F861FB6918462037BD4632
:102FE40080BD80B588B000AF786039603B68BB6055
:102FF4000923FB60C0233B6100237B614FF48063A2
:10300400BB6107F1080319467868FFF7E9FD7868A2
:1030140000F05EF9F861FB6918462037BD4680BDB3
:1030240080B588B000AF786039600023BB600323AB
:10303400FB6040233B6100237B614FF48063BB61F1
:1030440007F1080319467868FFF7CAFD3A680321B7
:10305400786800F0BDF9F861FB6918462037BD4671
:1030640080BD80B588B000AF786039603B68BB60D4
:103074000D23FB6040233B6100237B614FF480639D
:10308400BB6107F1080319467868FFF7A9FD41F20F
:1030940088320D21786800F02FF8F861FB69184632
:1030A4002037BD4680BD000090B482B000AF786088
:1030B4000F4B1B680F4AA2FB03235B0A41F28832C1
:1030C40002FB03F423465C1E002B02D14FF00043A5
:1030D40009E07B685B6B03F08003002BF2D07B6814
:1030E400C5229A63002318460837BD4690BC704732
:1030F40008000020D34D621090B587B000AFF8608F
:103104000B467A60FB726F4B1B686F4AA2FB03236A
:103114005B0A7A6802FB03F423465C1E002B02D18F
:103124004FF00043C9E0FB685B6B7B617B6903F094
:103134004503002BF0D07B6903F40063002BEBD133
:10314400FB685B6B03F00403002B04D0FB680422D0
:103154009A630423B1E0FB685B6B03F00103002B6B
:1031640004D0FB6801229A630123A6E0FB68C52210
:103174009A63F868FFF75DFD03461A46FB7A9342AB
:1031840001D0012399E00021F868FFF75EFD386162
:103194003A694E4B1340002B01D100238DE03B696B
:1031A400002B02DA4FF0007387E03B6903F08043A1
:1031B400002B01D0402380E03B6903F00053002B37
:1031C40001D0802379E03B6903F08053002B02D0C7
:1031D4004FF4807371E03B6903F00063002B02D06D
:1031E4004FF4007369E03B6903F08063002B02D065
:1031F4004FF4806361E03B6903F08073002B02D0DD
:103204004FF4006359E03B6903F40003002B02D040
:103214004FF4805351E03B6903F48003002B02D048
:103224004FF4005349E03B6903F40013002B02D030
:103234004FF4804341E03B6903F48013002B02D038
:103244004FF4004339E03B6903F48023002B02D0A0
:103254004FF4003331E03B6903F40033002B02D018
:103264004FF4802329E03B6903F48033002B02D020
:103274004FF4002321E03B6903F40043002B02D008
:103284004FF4801319E03B6903F48043002B02D010
:103294004FF4001311E03B6903F40053002B02D0F8
:1032A4004FF4800309E03B6903F00803002B02D0CC
:1032B4004FF4000301E04FF4803318461C37BD4639
:1032C40090BD00BF08000020D34D621008E0FFFD50
:1032D40090B484B000AF78601E4B1B681E4AA2FBFA
:1032E40003235B0A41F2883202FB03F423465C1E8B
:1032F400002B02D14FF0004326E07B685B6BFB6040
:10330400FB6803F04503002BF0D0FB6803F4006373
:10331400002BEBD17B685B6B03F00403002B04D020
:103324007B6804229A6304230EE07B685B6B03F0E2
:103334000103002B04D07B6801229A63012303E07C
:103344007B68C5229A63002318461037BD4690BC9B
:10335400704700BF08000020D34D621090B484B0C1
:1033640000AF7860184B1B68184AA2FB03235B0A62
:1033740041F2883202FB03F423465C1E002B02D187
:103384004FF000431BE07B685B6BFB60FB6803F062
:103394004503002BF0D0FB6803F40063002BEBD152
:1033A4007B685B6B03F00403002B04D07B6804226E
:1033B4009A63042303E07B68C5229A6300231846BA
:1033C4001037BD4690BC704708000020D34D6210F2
:1033D40090B587B000AFF8600B467A60FB72344B4F
:1033E4001B68344AA2FB03235B0A41F2883202FBC6
:1033F40003F423465C1E002B02D14FF0004352E03D
:10340400FB685B6B7B617B6903F04503002BF0D0A9
:103414007B6903F40063002BEBD1FB685B6B03F067
:103424000403002B04D0FB6804229A6304233AE0CB
:10343400FB685B6B03F00103002B04D0FB680122E3
:103444009A6301232FE0F868FFF7F3FB03461A465B
:10345400FB7A934201D0012325E0FB68C5229A63DD
:103464000021F868FFF7F1FB38613B6903F460431E
:10347400002B06D13B691B0C9AB27B681A8000238F
:1034840011E03B6903F48043002B02D04FF4005356
:1034940009E03B6903F40043002B02D04FF480534E
:1034A40001E04FF4803318461C37BD4690BD00BF81
:1034B40008000020D34D621090B484B000AF78604F
:1034C400214B1B68214AA2FB03235B0A41F2883289
:1034D40002FB03F423465C1E002B02D14FF0004391
:1034E4002CE07B685B6BFB60FB6803F04503002BFF
:1034F400F0D0FB6803F40063002BEBD17B685B6BBB
:1035040003F00403002B04D07B6804229A63042391
:1035140014E07B685B6B03F00103002B04D07B6831
:1035240001229A63012309E07B685B6B03F040038B
:10353400002B02D07B6840229A6300231846103780
:10354400BD4690BC704700BF08000020D34D6210F8
:1035540080B584B000AF0346FB71FB79084A9B0039
:1035640013445B685B68FA7905490A44127A104689
:1035740098470346FB73FB7B18461037BD4680BD56
:10358400AC00002080B584B000AF0346FB7100237B
:10359400FB73FB790D4AD35C002B11D1FB790B4AE9
:1035A4000121D154FB79094A9B0013445B681B68D1
:1035B400FA7906490A44127A104698470346FB737F
:1035C400FB7B18461037BD4680BD00BFAC00002011
:1035D40090B587B000AFB9607A603B600346FB7377
:1035E400FB7B0A4A9B0013445B689C68FB7B074A8D
:1035F4001344187A3B687A68B968A0470346FB7598
:10360400FB7D18461C37BD4690BD00BFAC000020B2
:1036140090B587B000AFB9607A603B600346FB7336
:10362400FB7B0A4A9B0013445B68DC68FB7B074A0C
:103634001344187A3B687A68B968A0470346FB7557
:10364400FB7D18461C37BD4690BD00BFAC00002072
:1036540080B584B000AF03463A60FB710B46BB7182
:10366400FB79094A9B0013445B681B69FA79064994
:103674000A44107AB9793A6898470346FB73FB7B8E
:1036840018461037BD4680BDAC00002080B582B01E
:1036940000AF0346FB710B4B01221A7002F004FCCD
:1036A4000346002B07D1074B1B78DBB223F0010341
:1036B400DAB2044B1A70034B1B78DBB21846083796
:1036C400BD4680BD0500002080B582B000AF034632
:1036D400FB710B4B01221A7002F03AFC0346002BDB
:1036E40007D1074B1B78DBB223F00103DAB2044B9A
:1036F4001A70034B1B78DBB218460837BD4680BDF1
:103704000500002080B586B000AFB9607A603B60E8
:103714000346FB730123FB750F4B3B610F4B3A6868
:103724007968B86802F0D8FB0346002B0ED106E096
:103734003B695A1E3A61002B01D1012307E002F0D4
:1037440007FC0346002BF3D10023FB75FB7D1846D1
:103754001837BD4680BD00BFA086010000E1F50515
:1037640080B586B000AFB9607A603B600346FB73F6
:103774000123FB750F4B3B610F4B3A687968B868BE
:1037840002F0C8FB0346002B0ED106E03B695A1E2B
:103794003A61002B01D1012307E002F0D9FB034673
:1037A400002BF3D10023FB75FB7D18461837BD466B
:1037B40080BD00BFA086010000E1F50580B58CB096
:1037C40000AF03463A60FB710B46BB71012387F8D7
:1037D4002F30244B1B78DBB203F00103002B01D004
:1037E40003233BE0BB79032B33D801A252F823F027
:1037F400053800080D380008253800083F3800084F
:10380400002387F82F3027E007F10C03184602F055
:10381400AFFB7A6A3B681A60002387F82F301BE0FD
:1038240007F10C03184602F0A3FBBB6A9AB23B688B
:103834001A80002387F82F300EE007F10C03184696
:1038440002F096FBBA6A3B681A60002387F82F30AF
:1038540002E0042387F82F3097F82F3018463037CA
:10386400BD4680BD0500002080B487B000AFF8607D
:10387400B9607A60FB687B61BB683B6107E07B6988
:103884005A1C7A613A69511C396112781A707B6842
:103894005A1E7A60002BF2D100BF1C37BD4680BC93
:1038A400704780B487B000AFF860B9607A60FB6895
:1038B4007B6105E07B695A1C7A61BA68D2B21A70DE
:1038C4007B685A1E7A60002BF4D100BF1C37BD46BA
:1038D40080BC704780B489B000AFF860B9607A608A
:1038E400FB68FB61BB68BB6100237B6100BF7B6835
:1038F4005A1E7A60002B0DD0FB695A1CFA611B78A2
:103904001946BB695A1CBA611B78CB1A7B617B6967
:10391400002BECD07B6918462437BD4680BC704729
:1039240080B483B000AF7860396002E07B68013313
:103934007B607B681B78002B05D07B681B781A465C
:103944003B689A42F2D17B681B7818460C37BD4617
:1039540080BC704780B485B000AF786039600023C4
:10396400BB60BB68FB6038E02F49FA6813465B0014
:1039740013449B000B441B68002B29D02A49FA6886
:1039840013465B0013449B000B441A687B68D3F80E
:1039940000329A421ED12449FA6813465B0013444C
:1039A4009B000B4404331A687B68D3F808329A42AC
:1039B40010D11D49FA6813465B0013449B000B4465
:1039C40008331A887B68B3F806329A4202D107E0BA
:1039D4000123BB60FB680133FB60FB68012BC3D987
:1039E400FB68022B09D1BB68002B02D13B68022B78
:1039F40001D1002313E0122311E03B68002B0BD10B
:103A04000949FA6813465B0013449B000B440A33CC
:103A14001B88B3F5807F01D1102300E000231846F2
:103A24001437BD4680BC70479400002080B483B036
:103A340000AF00237B6002E07B6801337B607B681E
:103A4400012B09D80A497A6813465B0013449B008A
:103A54000B441B68002BEFD17B68022B14BF01239E
:103A64000023DBB218460C37BD4680BC704700BF4C
:103A74009400002080B485B000AF786039600023E2
:103A8400FB602BE05549FA6813465B0013449B0026
:103A94000B441A687B68D3F800329A421BD14F4911
:103AA400FA6813465B0013449B000B4404331A6802
:103AB4007B68D3F808329A420DD14849FA68134614
:103AC4005B0013449B000B4408331A887B68B3F8EB
:103AD40006329A4206D0FB680133FB60FB68012B77
:103AE400D0D900E000BFFB68022B45D10023FB6066
:103AF40002E0FB680133FB60FB68012B09D83749FE
:103B0400FA6813465B0013449B000B441B68002BAC
:103B1400EFD1FB68022B01D100235AE07B68D3F874
:103B240000122E48FA6813465B0013449B000344BA
:103B340019607B68D3F808122848FA6813465B00BA
:103B440013449B000344043319607B68B3F80602F2
:103B54002249FA6813465B0013449B000B44083364
:103B640002461A801D49FA6813465B0013449B0001
:103B74000B440A3300221A803B68002B0CD01749EF
:103B8400FA6813465B0013449B000B440A331B88FA
:103B9400002B01D000231CE03B68002B0BD10F4904
:103BA400FA6813465B0013449B000B440A331B88DA
:103BB400013399B201E04FF480710848FA68134662
:103BC4005B0013449B0003440A330A461A80FB68D3
:103BD400013318461437BD4680BC7047940000205A
:103BE40080B485B000AF78607B68013B7B607B6804
:103BF400012B2ED81B497A6813465B0013449B00A3
:103C04000B440A331B88FB81FB89B3F5807F01D108
:103C14000023FB81FB89002B02D0FB89013BFB8144
:103C240010497A6813465B0013449B000B440A3323
:103C3400FA891A80FB89002B08D10A497A6813464D
:103C44005B0013449B000B4400221A6000237B7327
:103C540001E002237B737B7B18461437BD4680BC8E
:103C6400704700BF9400002080B485B000AF786036
:103C74000023FB6016E00F49FA6813465B00134407
:103C84009B000B441A687B689A4208D10949FA6878
:103C940013465B0013449B000B4400221A60FB682C
:103CA4000133FB60FB68012BE5D900BF1437BD4627
:103CB40080BC70479400002080B586B000AF786067
:103CC4000023FB737B6893F80432002B38D07B68A5
:103CD400D3F82C327B617B6893F801027968012365
:103CE4007A69FFF795FC0346002B02D00123FB738E
:103CF40026E07B68002283F804227B68D3F8203214
:103D04007A69D21A7B68D3F818329A4218D27B683F
:103D140093F803323B6110E07B68D3F818327A6978
:103D240013447B617B6893F80102796801237A6903
:103D3400FFF76EFC3B69013B3B613B69012BEBD810
:103D4400FB7B18461837BD4680BD80B584B000AFF4
:103D5400786039600023FB737B68D3F82C223B68BE
:103D64009A421BD07868FFF7A7FF0346FB73FB7BDF
:103D7400002B13D17B6893F80102796801233A6818
:103D8400FFF726FC0346002B04D04FF0FF333B60C3
:103D94000123FB737B683A68C3F82C22FB7B18462B
:103DA4001037BD4680BD80B584B000AF78607868B8
:103DB400FFF782FF0346FB73FB7B002B40F09B80E5
:103DC4007B6893F80032032B40F088807B6893F87B
:103DD4000532012B40F082807B684FF40072002191
:103DE4001846FFF75EFD7B68552283F8FE217B6849
:103DF400AA2283F8FF217B6852221A707B68522220
:103E04005A707B6861229A707B684122DA707B6801
:103E1400722283F8E4217B68722283F8E5217B68AF
:103E2400412283F8E6217B68612283F8E7217B68DD
:103E3400D3F81032DAB27B6883F8E8217B68D3F8D0
:103E440010329BB21B0A9BB2DAB27B6883F8E92179
:103E54007B68D3F810321B0CDAB27B6883F8EA2152
:103E64007B68D3F810321B0EDAB27B6883F8EB213F
:103E74007B68D3F80C32DAB27B6883F8EC217B6878
:103E8400D3F80C329BB21B0A9BB2DAB27B6883F87C
:103E9400ED217B68D3F80C321B0CDAB27B6883F813
:103EA400EE217B68D3F80C321B0EDAB27B6883F800
:103EB400EF217B68D3F81C325A1C7B68C3F82C2290
:103EC4007B6893F8010279687B68D3F82C2201237C
:103ED400FFF79EFB7B68002283F805227B6893F83A
:103EE4000132002200211846FFF7B2FB0346002BE3
:103EF40001D00123FB73FB7B18461037BD4680BD00
:103F040080B483B000AF786039603B68023B3B60AB
:103F14007B68D3F814329A1E3B689A4201D8002376
:103F24000AE07B6893F802321A463B6803FB02F20C
:103F34007B68D3F82832134418460C37BD4680BC3E
:103F4400704780B586B000AF786039603B68012B5C
:103F540005D97B68D3F814223B689A4202D801231E
:103F64007B61A0E04FF0FF337B617B6893F8003204
:103F7400022B44D0032B63D0012B40F08A803B6892
:103F84003B613B695B083A6913443B617B68D3F846
:103F940020223B695B0A134419467868FFF7D5FE73
:103FA4000346002B78D13B695A1C3A61C3F30803DA
:103FB4007A68D35CFB607B68D3F820223B695B0A98
:103FC400134419467868FFF7C0FE0346002B65D1F9
:103FD4003B69C3F308037A68D35C1B021A46FB6887
:103FE4001343FB603B6803F00103002B02D0FB6822
:103FF4001B0902E0FB68C3F30B037B6153E07B689E
:10400400D3F820223B681B0A134419467868FFF74B
:104014009CFE0346002B43D13B685B0003F4FF7313
:104024007A681344BB60BB6801331B781B021AB265
:10403400BB681B781BB213431BB29BB27B6132E09B
:104044007B68D3F820223B68DB091344194678685F
:10405400FFF77BFE0346002B24D13B689B0003F44F
:10406400FE737A681344BB60BB6803331B781A067B
:10407400BB6802331B781B041343BA6801321278FD
:1040840012021343BA681278134323F070437B611E
:1040940009E001237B6106E000BF04E000BF02E009
:1040A40000BF00E000BF7B6918461837BD4680BDDD
:1040B40080B588B000AFF860B9607A60BB68012B46
:1040C40005D9FB68D3F81422BB689A4202D80223AC
:1040D400FB77F3E0FB6893F80032022B74D0032BD8
:1040E40000F09980012B40F0DF80BB68BB61BB69A5
:1040F4005B08BA691344BB61FB68D3F82022BB692F
:104104005B0A13441946F868FFF71FFE0346FB7762
:10411400FB7F002B40F0CB80BB695A1CBA61C3F310
:104124000803FA6813447B61BB6803F00103002BA6
:104134000DD07B691B785BB203F00F035AB27B6826
:10414400DBB21B015BB213435BB2DBB201E07B6801
:10415400DBB27A691370FB68012283F80422FB68DE
:10416400D3F82022BB695B0A13441946F868FFF7A9
:10417400ECFD0346FB77FB7F002B40F09A80BB6984
:10418400C3F30803FA6813447B61BB6803F00103BB
:10419400002B03D07B681B09DBB20EE07B691B7824
:1041A4005BB223F00F035AB27B681B0A5BB203F0C5
:1041B4000F035BB213435BB2DBB27A691370FB6823
:1041C400012283F8042279E0FB68D3F82022BB683B
:1041D4001B0A13441946F868FFF7B7FD0346FB773B
:1041E400FB7F002B67D1BB685B0003F4FF73FA68A5
:1041F40013447B617B68DAB27B691A707B69013393
:104204007A6892B2120A92B2D2B21A70FB68012290
:1042140083F8042252E0FB68D3F82022BB68DB0950
:1042240013441946F868FFF790FD0346FB77FB7FBC
:10423400002B42D1BB689B0003F4FE73FA6813445D
:104244007B617B6903331B781A067B6902331B7815
:104254001B0413437A6901321278120213437A69F8
:104264001278134303F070437A6813437B607B68CE
:10427400DAB27B691A707B6901337A6892B2120AE6
:1042840092B2D2B21A707B6902337A68120CD2B23B
:104294001A707B6903337A68120ED2B21A70FB6803
:1042A400012283F8042209E00223FB7706E000BF21
:1042B40004E000BF02E000BF00E000BFFB7F18463F
:1042C4002037BD4680BD80B584B000AF78603960CA
:1042D4003B68012B05D97B68D3F814223B689A42CA
:1042E40002D80223FB7343E00023FB7336E03968F2
:1042F4007868FFF726FEB860BB68002B35D0BB6832
:10430400012B02D10223FB7332E0BB68B3F1FF3F00
:1043140002D10123FB732BE0002239687868FFF790
:10432400C7FE0346FB73FB7B002B20D17B68D3F8CD
:104334001032B3F1FF3F0FD07B68D3F810325A1C10
:104344007B68C3F810227B6893F8053243F00103BD
:10435400DAB27B6883F80522BB683B607B68D3F8DC
:1043640014223B689A42C2D802E000BF00E000BFBA
:10437400FB7B18461037BD4680BD80B586B000AFC4
:10438400786039603B68002B0FD17B68D3F80C321E
:104394003B613B69002B05D07B68D3F814223B6951
:1043A4009A421CD801233B6119E039687868FFF709
:1043B400C8FDB860BB68012B01D8012376E0BB6857
:1043C400B3F1FF3F01D1BB6870E07B68D3F81422DE
:1043D400BB689A4201D9BB6868E03B683B613B69B2
:1043E4007B617B6901337B617B68D3F814227B6931
:1043F4009A4207D802237B617A693B699A4201D9C0
:10440400002353E079697868FFF79BFDB860BB68C7
:10441400002B0ED0BB68B3F1FF3F02D0BB68012B69
:1044240001D1BB6842E07A693B699A42D9D1002341
:104434003CE000BF6FF0704279697868FFF738FE9E
:104444000346FB73FB7B002B09D13B68002B06D092
:104454007A6939687868FFF72BFE0346FB73FB7BA8
:10446400002B1AD17B687A69C3F80C227B68D3F8D5
:104474001032B3F1FF3F18D07B68D3F810325A1EC4
:104484007B68C3F810227B6893F8053243F001037C
:10449400DAB27B6883F8052207E0FB7B012B02D1AB
:1044A4004FF0FF3300E001237B617B691846183726
:1044B400BD4680BD80B487B000AF786039607B684A
:1044C400D3F8243204333B613B685B0A7A68D2F840
:1044D400002292F80222B3FBF2F37B613B691A1DBE
:1044E4003A611B68FB60FB68002B01D1002310E0DC
:1044F4007A69FB689A4207D37A69FB68D31A7B61AD
:104504003B6904333B61E9E700BF3B691A687B6997
:10451400134418461C37BD4680BC704780B586B02E
:1045240000AF786039603B689AB27B68A3F80622D2
:104534007B68D3F808327B617B69012B07D07B68E9
:10454400D3F80032D3F814227B699A4201D80223AB
:1045540074E07B69002B0CD17B68D3F8003293F8AC
:104564000032032B05D17B68D3F80032D3F8243210
:104574007B617B69002B11D17B68D3F80032B3F8DF
:1045840008321A463B689A4201D8022356E07B68F7
:10459400D3F80032D3F824323B6132E07B68D3F89D
:1045A400003293F802321B01FB601EE07B68D3F8F3
:1045B400003279691846FFF7C4FC78617B69B3F16E
:1045C400FF3F01D1012339E07B69012B07D97B68C7
:1045D400D3F80032D3F814227B699A4201D802231B
:1045E4002CE03A68FB68D31A3B603A68FB689A424D
:1045F400DCD27B68D3F8003279691846FFF780FC77
:1046040038617B687A69C3F80C223B69002B01D1BD
:10461400022313E03B681A093B691A447B68C3F818
:1046240010227B68D3F800321A463B6803F00F036C
:104634005B011A447B68C3F8142200231846183718
:10464400BD4680BD90B587B000AF786039607B68A7
:10465400B3F806320133FB60FB689BB2002B04D035
:104664007B68D3F81032002B01D10423DDE0FB6812
:1046740003F00F03002B40F0C6807B68D3F81032A0
:104684005A1C7B68C3F810227B68D3F80C32002BC9
:104694000BD17B68D3F80032B3F808321A46FB68B2
:1046A4009A4200F2B0800423BFE0FB681B097A68D9
:1046B400D2F8002292F80222013A1340002B40F073
:1046C400A2807B68D3F800227B68D3F80C321946A9
:1046D4001046FFF736FC78617B69012B01D8022371
:1046E400A3E07B69B3F1FF3F01D101239DE07B6827
:1046F400D3F80032D3F814227B699A4274D83B6809
:10470400002B01D1042390E07B68D3F800227B685E
:10471400D3F80C3219461046FFF72FFE78617B69F7
:10472400002B01D1072380E07B69012B01D10223F7
:104734007BE07B69B3F1FF3F01D1012375E07B6826
:10474400D3F800321846FFF7B7FA0346002B01D01E
:1047540001236AE07B68D3F800324FF40072002131
:104764001846FFF79EF87B68D3F800427B68D3F8BD
:10477400003279691846FFF7C3FB0346C4F82C32AC
:1047840000233B611BE07B68D3F80032012283F8ED
:1047940004227B68D3F800321846FFF78DFA0346EB
:1047A400002B01D0012340E07B68D3F80032D3F81A
:1047B4002C220132C3F82C223B6901333B617B6814
:1047C400D3F8003293F802321A463B699A42DAD897
:1047D4007B68D3F800327A68D2F80022D2F82C121F
:1047E4003A698A1AC3F82C227B687A69C3F80C22C6
:1047F4007B68D3F8003279691846FFF781FB0246DB
:104804007B68C3F81022FB689AB27B68A3F806227F
:104814007B68D3F800321A46FB6803F00F035B0190
:104824001A447B68C3F81422002318461C37BD467B
:1048340090BD80B584B000AF78603960002178689D
:10484400FFF76CFE0346FB73FB7B002B31D1002387
:10485400BB607B68D3F800227B68D3F8103219461A
:104864001046FFF772FA0346FB73FB7B002B1FD144
:104874007B68D3F814321B78E52B05D07B68D3F81A
:1048840014321B78002B07D1BB680133BB60BA68B4
:104894003B689A4202D10CE00023BB600121786896
:1048A400FFF7D0FE0346FB73FB7B002BD1D000E067
:1048B40000BFFB7B042B01D10723FB73FB7B184652
:1048C4001037BD4680BD80B485B000AF78603960D4
:1048D4003B681B331B781B021AB23B681A331B78E4
:1048E4001BB213431BB29BB2FB607B6893F800328C
:1048F400032B0FD13B6815331B781B021AB23B689C
:1049040014331B781BB213431BB29BB21B04FA680B
:104914001343FB60FB6818461437BD4680BC7047E0
:1049240080B483B000AF786039607B681A333A682A
:10493400D2B21A707B681B333A6892B2120A92B2EE
:10494400D2B21A707B6814333A68120CD2B21A705D
:104954007B6815333A68120C92B2120A92B2D2B240
:104964001A7000BF0C37BD4680BC704780B586B056
:1049740000AF786000217868FFF7D0FD0346FB752F
:10498400FB7D002B01D0FB7D3BE07B68D3F800224C
:104994007B68D3F8103219461046FFF7D6F9034660
:1049A400FB75FB7D002B28D17B68D3F814323B6167
:1049B4003B691B78FB73FB7B002B02D10423FB7543
:1049C4001EE03B690B331B7803F00803002B0AD16C
:1049D4007B68D3F818320B2219463869FEF77AFF40
:1049E4000346002B0BD000217868FFF72BFE03460B
:1049F400FB75FB7D002BC8D002E000BF00E000BFC8
:104A0400FB7D18461837BD4680BD80B584B000AF25
:104A1400786001217868FFF70CFF0346FB73FB7B8A
:104A2400002B26D17B68D3F800227B68D3F81032A0
:104A340019461046FFF789F90346FB73FB7B002BED
:104A440017D17B68D3F81432202200211846FEF7D0
:104A540028FF7B68D3F814027B68D3F818320B2242
:104A64001946FEF701FF7B68D3F80032012283F870
:104A74000422FB7B18461037BD4680BD80B588B044
:104A840000AF786039603B681B68FB6002E0FB683C
:104A94000133FB60FB681B782F2BF8D0FB681B7875
:104AA4005C2BF4D07B68D3F81832BB600B22202136
:104AB400B868FEF7F6FE0023FB7700233B613B69F1
:104AC4007B610823BB617B695A1C7A61FA681344D1
:104AD4001B78BB77BB7F202B53D9BB7F2F2B50D0A8
:104AE400BB7F5C2B4DD0BB7F2E2B03D03A69BB69B7
:104AF4009A420FD3BB69082B02D1BB7F2E2B01D066
:104B0400062373E008233B610B23BB61FB7F9B00FF
:104B1400FB7735E097F91E30002B08DAFB7F43F072
:104B24000303FB77BB7F803B324AD35CBB77BB7FFD
:104B340019463148FEF7F4FE0346002B01D0062344
:104B440054E0BB7F402B07D9BB7F5A2B04D8FB7F93
:104B540043F00203FB770CE0BB7F602B09D9BB7FDA
:104B64007A2B06D8FB7F43F00103FB77BB7F203B06
:104B7400BB773B695A1C3A61BA681344BA7F1A700E
:104B8400A1E7FA687B691A443B681A60BB7F202B53
:104B940001D8042300E00023BB773B69002B01D13B
:104BA400062323E0BB681B78E52B02D1BB680522F2
:104BB4001A70BB69082B02D1FB7F9B00FB77FB7F3C
:104BC40003F00303012B03D1BB7F43F01003BB7736
:104BD400FB7F03F00C03042B03D1BB7F43F00803DA
:104BE400BB77BB680B33BA7F1A7000231846203793
:104BF400BD4680BDA0750008FC74000880B584B073
:104C040000AF786039603B681B782F2B03D03B687A
:104C14001B785C2B02D13B6801333B607B6800222C
:104C2400C3F808223B681B781F2B0AD80021786838
:104C3400FFF774FC0346FB737B680022C3F814225D
:104C440045E03B4619467868FFF718FF0346FB73B7
:104C5400FB7B002B36D17868FFF788FE0346FB7395
:104C64007B68D3F81832DB7ABB73FB7B002B0AD04A
:104C7400FB7B042B28D1BB7B03F00403002B23D143
:104C84000523FB7320E0BB7B03F00403002B1DD141
:104C94007B68D3F81432BB60BB680B331B7803F01A
:104CA4001003002B02D10523FB7310E07B68D3F8BB
:104CB4000032B9681846FFF706FE02467B68C3F85F
:104CC4000822BEE700BF02E000BF00E000BFFB7B9C
:104CD40018461037BD4680BD80B487B000AF7860F9
:104CE4004FF0FF333B617B681B68002B31D07B683E
:104CF4001B687B6102E07B6901337B617B691B7804
:104D0400202B03D97B691B783A2BF4D17B691B7860
:104D14003A2B1CD17B681B68FB60FB685A1CFA6049
:104D24001B78303BBB60BB68092B0ED8FA687B69E3
:104D34009A420AD1BB68002B07D1BB683B617B69EF
:104D440001337B617B687A691A603B6902E0002366
:104D54003B613B6918461C37BD4680BC7047000068
:104D640080B582B000AF786039607B68002283F838
:104D740004227B684FF0FF32C3F82C22396878682C
:104D8400FEF7E3FF0346002B01D003234AE07B68D0
:104D940003F5FF7301331B781B021AB27B6893F887
:104DA400FE311BB213431BB2204A934201D00223AB
:104DB40038E07B68363303331B781A067B68363356
:104DC40002331B781B0413437A683632013212789B
:104DD400120213437A6892F83620134323F07F4378
:104DE400134A934201D100231CE07B6852330333FE
:104DF4001B781A067B68523302331B781B04134357
:104E04007A68523201321278120213437A6892F8A5
:104E14005220134323F07F43054A934201D10023D8
:104E240000E0012318460837BD4680BD55AAFFFFA0
:104E34004641540080B596B000AFF860B96013469F
:104E4400FB71FB6800221A60B868FFF745FFF8633E
:104E5400FB6B002B01DA0B23AAE29E4AFB6B52F890
:104E64002330BB63BB6B002B01D10C23A0E2FB6896
:104E7400BA6B1A60BB6B93F80032002B1BD0BB6B70
:104E840093F801321846FEF763FB034687F8373080
:104E940097F8373003F00103002B0CD1FB79002B7A
:104EA40007D097F8373003F00403002B01D00A230E
:104EB4007EE200237CE2BB6B002283F80022FB6BC2
:104EC400DAB2BB6B83F80122BB6B93F8013218464C
:104ED400FEF758FB034687F8373097F8373003F06E
:104EE4000103002B01D0032362E2FB79002B07D0DE
:104EF40097F8373003F00403002B01D00A2357E25C
:104F040000233B65396DB86BFFF72AFF034687F82A
:104F1400573097F85730012B55D100233B6429E0D3
:104F2400BA6B3B6C1B0103F5DF7313443B633B6BB0
:104F340004331B78002B12D03B6B0B331B781A06FF
:104F44003B6B0A331B781B0413433A6B0932127808
:104F5400120213433A6B083212781A4300E000221B
:104F64003B6C9B0007F158010B4443F8442C3B6C09
:104F740001333B643B6C032BD2D900233B643B6C71
:104F8400002B02D03B6C013B3B643B6C9B0007F164
:104F94005802134453F8443C3B653B6D002B05D049
:104FA400396DB86BFFF7DCFE034600E0022387F897
:104FB400573097F85730002B05D03B6C01333B64D6
:104FC4003B6C032BE1D997F85730032B01D1012314
:104FD400EEE197F85730002B01D00D23E8E1BB6BCD
:104FE4001B7B1B021AB2BB6BDB7A1BB213431BB2D3
:104FF400B3F5007F01D00D23DAE1BB6BDB7D1B022F
:105004001AB2BB6B9B7D1BB213431BB29BB2FB64F6
:10501400FB6C002B12D1BB6B93F827301A06BB6BC9
:1050240093F826301B041343BA6B92F8252012021E
:105034001343BA6B92F824201343FB64BB6BFA6CE2
:10504400C3F81822BB6B1A7CBB6B83F80322BB6BBF
:1050540093F80332012B06D0BB6B93F80332022B77
:1050640001D00D23A4E1BB6B93F803321A46FB6C09
:1050740002FB03F3FB64BB6B5A7BBB6B83F802221A
:10508400BB6B93F80232002B0AD0BB6B93F802324D
:105094001A46BB6B93F80232013B1340002B01D03C
:1050A4000D2385E1BB6B9B7C1B021AB2BB6B5B7C43
:1050B4001BB213431BB29AB2BB6BA3F80822BB6B9F
:1050C400B3F8083203F00F039BB2002B04D00D2376
:1050D4006EE100BF8C000020BB6B1B7D1B021AB26B
:1050E400BB6BDB7C1BB213431BB29BB2BB64BB6CBC
:1050F400002B12D1BB6B93F823301A06BB6B93F8C9
:1051040022301B041343BA6B92F82120120213437A
:10511400BA6B92F820201343BB64BB6BDB7B1B028E
:105124001AB2BB6B9B7B1BB213431BB2FB85FB8D7B
:10513400002B01D10D233BE1FA8DFB6C1344BA6BB8
:10514400B2F80822120992B21344BB62BA6CBB6A69
:105154009A4201D20D232BE1BA6CBB6AD31ABA6B03
:1051640092F80222B3FBF2F37B627B6A002B01D13B
:105174000D231DE1012387F857307B6A40F6F57251
:10518400934202D9022387F857307B6A4FF6F572AF
:10519400934202D9032387F857307B6A9A1CBB6B6E
:1051A400C3F81422BB6B3A6DC3F81C22FA8D3B6D15
:1051B4001A44BB6BC3F820223A6DBB6A1A44BB6B1A
:1051C400C3F8282297F85730032B21D1BB6BB3F8CF
:1051D4000832002B01D00D23EAE0BB6B93F82F308B
:1051E4001A06BB6B93F82E301B041343BA6B92F868
:1051F4002D2012021343BA6B92F82C201A43BB6B76
:10520400C3F82422BB6BD3F814329B007B6425E0E3
:10521400BB6BB3F80832002B01D10D23C8E0BB6B84
:10522400D3F82022FB6C1A44BB6BC3F8242297F8F2
:105234005730022B04D1BB6BD3F814325B000CE063
:10524400BB6BD3F8142213465B0013445A08BB6BA0
:10525400D3F8143203F0010313447B64BB6BD3F81B
:1052640018227B6C03F2FF135B0A9A4201D20D23CE
:105274009EE0BB6B4FF0FF32C3F81022BB6BD3F838
:105284001022BB6BC3F80C22BB6B802283F805226F
:1052940097F85730032B77D1BB6B93F831301B024F
:1052A4001AB2BB6B93F830301BB213431BB2012B01
:1052B4006AD13B6D01331946B86BFEF746FD0346D0
:1052C400002B61D1BB6B002283F80522BB6B93F8E2
:1052D400FF311B021AB2BB6B93F8FE311BB21343AE
:1052E4001BB2354A93424FD1BB6BDB781A06BB6BBA
:1052F4009B781B041343BA6B527812021343BA6BA4
:10530400127813432D4A93423ED1BB6B93F8E73195
:105314001A06BB6B93F8E6311B041343BA6B92F87D
:10532400E52112021343BA6B92F8E4211343244A91
:10533400934229D1BB6B93F8EB311A06BB6B93F8FC
:10534400EA311B041343BA6B92F8E92112021343A6
:10535400BA6B92F8E8211A43BB6BC3F81022BB6BFB
:1053640093F8EF311A06BB6B93F8EE311B04134329
:10537400BA6B92F8ED2112021343BA6B92F8EC2146
:105384001A43BB6BC3F80C22BB6B97F8572083F806
:1053940000220C4B1B8801339AB20A4B1A80094B2A
:1053A4001A88BB6BA3F80622B86BFEF75DFC0023DA
:1053B40018465837BD4680BD55AAFFFF5252614179
:1053C400727241619000002080B584B000AF7860B3
:1053D4007B68FB60FB68002B22D0FB68D3F80032AB
:1053E400002B1DD0FB68D3F8003293F80032002B59
:1053F40016D0FB68D3F80032B3F80622FB68B3F882
:1054040004329A420CD1FB68D3F8003293F801328B
:105414001846FEF79DF8034603F00103002B01D064
:10542400092300E0002318461037BD4680BD000064
:1054340080B588B000AFF860B9601346FB71BB68F3
:105444003B6107F110031846FFF746FCF861FB695E
:10545400002B01DA0B232DE0184AFB6952F82330A4
:10546400BB61BB69002B06D0B869FEF7FDFBBB69C5
:10547400002283F80022FB68002B03D0FB68002283
:1054840083F80022FA680D49FB6941F82320FB6880
:10549400002B02D0FB79012B01D000230AE007F195
:1054A400080107F10C0300221846FFF7C3FC03466A
:1054B400FB75FB7D18462037BD4680BD8C0000205F
:1054C40080B5ADF5147D00AF07F10C03186007F14A
:1054D40008031960FB1D1A7007F10C031B68002BED
:1054E40001D10923F2E107F10C031B680022C3F880
:1054F4000022FB1DFA1D127802F01F021A70FB1D18
:105504001B7823F00103DAB207F1080107F1200345
:1055140003F500731846FFF78DFC034687F84F32F6
:1055240097F84F32002B40F0CF8107F1200307F1A9
:105534001402C3F8182207F108031A6807F12003BC
:1055440011461846FFF75AFB034687F84F3207F116
:105554002003D3F81432C7F8483297F84F32002B9F
:105564001AD1D7F84832002B03D1062387F84F32DB
:1055740012E0FB1D1B7823F00103002B14BF012351
:105584000023DBB21A4607F1200311461846FEF742
:10559400E1F9034687F84F32FB1D1B7803F01C0327
:1055A400002B00F0CC8097F84F32002B1FD097F8D7
:1055B4004F32042B0ED1FEF739FA0346002B06D0E6
:1055C40007F120031846FFF720FA034600E01223F0
:1055D40087F84F32FB1DFA1D127842F008021A7048
:1055E40007F12003D3F81432C7F8483214E0D7F88F
:1055F40048320B331B7803F01103002B03D007232D
:1056040087F84F3208E0FB1D1B7803F00403002BDE
:1056140002D0082387F84F3297F84F32002B40F01E
:10562400AF80FB1D1B7803F00803002B00F0A8805B
:1056340000F0FAFCC7F84402D7F848320E33D7F822
:105644004422D2B21A70D7F848320F33D7F8442222
:1056540092B2120A92B2D2B21A70D7F84832103308
:10566400D7F84422120CD2B21A70D7F84832113348
:10567400D7F84422120ED2B21A70D7F848320B333C
:1056840000221A70D7F848321C3300221A70D7F857
:1056940048321D3300221A70D7F848321E330022D4
:1056A4001A70D7F848321F3300221A7007F120030A
:1056B400D3F80032D7F848121846FFF704F9C7F8B0
:1056C40040020021D7F84802FFF72AF907F1200326
:1056D400D3F80032012283F80422D7F84032002B99
:1056E4004ED007F12003D3F80032D3F82C32C7F898
:1056F400443207F12003D3F80032D7F84012184699
:10570400FEF7E1FD034687F84F3297F84F32002B3E
:1057140036D107F12003D3F80032D7F84022013AFA
:10572400C3F80C2207F12003D3F80032D7F844124F
:105734001846FEF70AFB034687F84F3220E097F835
:105744004F32002B1CD1D7F848320B331B7803F0AF
:105754001003002B03D0042387F84F3210E0FB1D05
:105764001B7803F00203002B0AD0D7F848320B331E
:105774001B7803F00103002B02D0072387F84F3274
:1057840097F84F32002B3DD1FB1D1B7803F0080323
:10579400002B05D0FB1DFA1D127842F020021A706E
:1057A40007F12003D3F80032D3F82C2207F10C03BD
:1057B4001B68C3F81C2207F10C031B68D7F84822A6
:1057C400C3F82022FB1D1B7823F00103002B14BF18
:1057D40001230023DBB21A4607F1200311461846C1
:1057E400FEF748F9024607F10C031B68C3F82822A8
:1057F40007F10C031B68D3F82832002B02D10223D3
:1058040087F84F3297F84F32002B5DD107F10C0324
:105814001B68FA1D127883F8062207F10C031B6833
:10582400002283F8072207F12003D3F80032D7F8C7
:1058340048121846FFF747F8024607F10C031B68A5
:10584400C3F81022D7F848321F331B781A06D7F84A
:1058540048321E331B781B041343D7F848221D32E9
:10586400127812021343D7F848221C3212781A43D2
:1058740007F10C031B68C3F80C2207F10C031B6827
:105884000022C3F8082207F10C031B680022C3F8A6
:10589400182207F10C031B680022C3F8242207F125
:1058A4002003D3F8002207F10C031B68C3F800227D
:1058B40007F10C031B68D3F80032B3F8062207F192
:1058C4000C031B68A3F8042297F84F32184607F517
:1058D4001477BD4680BD80B58AB000AFF860B9606A
:1058E4007A603B60BB68BB613B6800221A60F86861
:1058F400FFF76AFD0346FB75FB7D002B01D0FB7DA2
:1059040092E1FB6893F80732002B03D0FB6893F80D
:10591400073289E1FB6893F8063203F00203002B97
:1059240001D1072380E1FB68D3F808227B681A447D
:10593400FB68D3F808329A4280F0588100237B60D8
:1059440054E1FB68D3F80832C3F30803002B40F09A
:105954001481FB68D3F808325B0ADAB2FB68D3F827
:10596400003293F80232013BDBB21340BB75BB7DBE
:10597400002B51D1FB68D3F80832002B0FD1FB6800
:10598400D3F810327B627B6A002B21D1FB68D3F8F9
:10599400003200211846FEF7F0FC786218E0FB683C
:1059A400D3F82432002B08D0FB68D3F80832194608
:1059B400F868FEF77FFD78620AE0FB68D3F80022FE
:1059C400FB68D3F8143219461046FEF7D6FC786209
:1059D4007B6A002B00F00F817B6A012B05D1FB68E9
:1059E400022283F8072202231EE17B6AB3F1FF3F00
:1059F40005D1FB68012283F80722012314E1FB6827
:105A04007A6AC3F81422FB68D3F81032002B03D14E
:105A1400FB687A6AC3F81022FB6893F8063203F035
:105A24004003002B1DD0FB68D3F8003293F8010229
:105A3400F968FB68D3F818220123FDF7E9FD034652
:105A4400002B05D0FB68012283F807220123EBE039
:105A5400FB6893F8063223F04003DAB2FB6883F85C
:105A64000622FB68D3F80022FB68D3F814321946E7
:105A74001046FEF745FA38613B69002B05D1FB68F7
:105A8400022283F807220223CEE0BB7D3A69134445
:105A94003B617B685B0AFB61FB69002B48D0BA7DE4
:105AA400FB691344FA68D2F8002292F80222934266
:105AB40008D9FB68D3F8003293F802321A46BB7D4A
:105AC400D31AFB61FB68D3F8003293F80102FB6937
