:020000040800F2
:1000000000800120C513000865130008671300086D
:10001000691300086B1300086D130008000000004E
:100020000000000000000000000000006F13000846
:100030007113000800000000731300087513000816
:100040000D1400080D1400080D1400080D1400080C
:100050000D1400080D1400080D1400080D140008FC
:100060000D1400080D1400080D1400080D140008EC
:100070000D1400080D1400080D1400080D140008DC
:100080000D1400080D1400080D1400080D140008CC
:100090000D1400080D1400080D1400080D140008BC
:1000A0000D1400080D1400080D1400080D140008AC
:1000B0000D1400080D1400080D1400080D1400089C
:1000C0000D1400080D1400080D1400080D1400088C
:1000D0000D1400080D1400080D1400080D1400087C
:1000E0000D1400080D1400080D1400080D1400086C
:1000F0000D1400080D1400080D1400080D1400085C
:100100000D1400080D1400080D1400080D1400084B
:100110000D1400080D1400080D1400080D1400083B
:100120000D1400080D1400080D1400080D1400082B
:1001300000000000000000000000000000000000BF
:1001400000000000000000000000000000000000AF
:10015000000000000000000000000000000000009F
:10016000000000000000000000000000000000008F
:10017000000000000000000000000000000000007F
:10018000000000000000000000000000000000006F
:10019000000000000000000000000000000000005F
:1001A000000000000000000000000000000000004F
:1001B000000000000000000000000000000000003F
:1001C000000000000000000000000000000000002F
:1001D000000000000000000000000000000000001F
:0401E0005FF8E0F1F3
:1001E40010B5054C237833B9044B13B10448AFF36D
:1001F40000800123237010BD1000002000000000C7
:100204006814000808B5034B1BB103490348AFF356
:10021400008008BD000000001400002068140008DD
:1002240038B50E4B054618784FF47A73B3FBF0F3E8
:100234000B4A1068B0FBF3F000F092F8044658B98A
:100244000F2D09D8024629464FF0FF3000F054F82C
:10025400044B20461D6038BD012038BD000000203D
:100264000C00002004000020074A08B5136803208E
:1002740043F01003136000F02DF80020FFF7D0FFC7
:1002840001F00AF8002008BD00200240034A044B94
:1002940011681B780B441360704700BF2C000020CA
:1002A40000000020014B1868704700BF2C0000209C
:1002B40038B50446FFF7F6FF0546631C1EBF044B22
:1002C4001B78E418FFF7EEFF401B8442FAD838BDD0
:1002D40000000020074A0002D36800F4E06023F421
:1002E400E0631B041B0C43F0BF6343F4003303437C
:1002F400D360704700ED00E0174B30B5DC68C4F301
:100304000224C4F10703251D042B28BF0423062D52
:100314004FF0010598BF002405FA03F303F1FF33FE
:1003240088BF033C1940A14005FA04F4013C224073
:10033400002842EA01024FEA0212A9BF00F160401C
:10034400064BD2B200F56140BBBF00F00F00D2B241
:1003540080F800231A5430BD00ED00E014ED00E0F5
:100364000138B0F1807F0AD2F021064B064A58606A
:1003740082F823100020072298601A607047012039
:10038400704700BF10E000E000ED00E02DE9F74FFA
:10039400002426466C4F6D4BDFF8B8E1DFF8B8C196
:1003A4000A6832FA06F502D103B0BDE8F08F4FF0C7
:1003B400010808FA06F802EA0802904540F0848031
:1003C4004D68122D00F0B18000F28780022D00F0FC
:1003D400A9807BD8002D00F08C80012D00F0A08036
:1003E4004FF00F09FF2A93BF824606F18045083D6E
:1003F400D0F800B092BFB500D0F804B0AD0009FA4F
:1004040005F82BEA080804FA05F588BF00F1040A88
:1004140048EA0505CAF80050D1F804A01AF0805F34
:1004240052D0BD6926F0030845F00105BD61BD69E0
:1004340008F1804805F00105019508F5803806F0BB
:10044400030B019D4FEA8B0BD8F8085009FA0BF9FE
:1004540025EA09093E4DA8426CD005F58065A842FD
:100464006AD005F58065A84268D005F58065A84284
:1004740066D005F58065A84264D070450CBF05259B
:10048400062505FA0BF545EA0905C8F808501D6864
:100494001AF4803F14BF154395431D605D681AF438
:1004A400003F14BF154395435D609D681AF4801F97
:1004B40014BF154395439D60DD681AF4001F14BFF3
:1004C4002A4325EA0202DA60013669E7032D25D0C2
:1004D400112D85D1CC68043482E7654509D012D842
:1004E400DFF878904D4504D009F580394D457FF407
:1004F40077AF8C68E4B1012C0CBFC0F81080C0F851
:10050400148008246CE7DFF858904D45F1D009F5C4
:1005140080394D45EDD0A9F58019E7E700245FE760
:10052400CC685DE7CC6808345AE7CC680C3457E7EC
:10053400042455E70025A4E70125A2E70225A0E746
:1005440003259EE704259CE70010024000040140B7
:1005540000080140001C014000002110000011109F
:10056400000031100AB1016170470904FBE7000083
:100574002DE9F341054608B901203CE00368DB0797
:1005840010D42B689F075DD42B68190700F1948061
:100594002B685A0700F1BE80E869002840F02C81DE
:1005A400002028E08F4C636803F00C03042B07D071
:1005B400636803F00C03082B09D16368DE0306D5D6
:1005C40023689C03DDD56B68002BDAD1D4E76B6814
:1005D400B3F5803F12D1236843F480332360FFF7DF
:1005E40061FE064623689803CBD4FFF75BFE801BAD
:1005F4006428F7D9032002B0BDE8F0819BB92368D1
:1006040023F480332360236823F480232360FFF7DB
:1006140049FE064623689903B3D5FFF743FE801BC2
:100624006428F7D9E6E7B3F5A02F236803D143F490
:1006340080232360CFE723F480332360236823F4EB
:100644008023CBE7674C636813F00C0F07D0636813
:1006540003F00C03082B10D16368DA030DD423686C
:100664009B0702D52B69012B86D123686A6923F085
:10067400F80343EAC203236086E72A695A4B6AB146
:1006840001221A60FFF70EFE064623689F07ECD48A
:10069400FFF708FE801B0228F7D9ABE71A60FFF7C3
:1006A40001FE0646236898077FF56EAFFFF7FAFD53
:1006B400801B0228F6D99DE7AA694A4C4B4BDAB154
:1006C40001221A60FFF7EEFD0646636A9B070DD50B
:1006D4004FF4FA52464B1B68B3FBF2F3019300BF8D
:1006E400019B5A1E0192002BF9D151E7FFF7DAFD65
:1006F400801B0228E9D97DE71A60FFF7D3FD06467F
:10070400636A9F077FF544AFFFF7CCFD801B022887
:10071400F6D96FE7334CE369D80024D40127E369A1
:1007240043F08053E361E36903F080530093009B3B
:10073400304E3368D90518D5EB68012B26D1236ACE
:1007440043F001032362FFF7ADFD41F28836804692
:10075400236A9B073FD5002F3FF41EAFE36923F0C4
:100764008053E36118E70027E2E7336843F48073BA
:100774003360FFF797FD80463368DA05DCD4FFF772
:1007840091FDA0EB08006428F6D933E7ABB9236ADE
:1007940041F2883823F001032362236A23F004031F
:1007A4002362FFF77FFD0646236A9807D3D5FFF738
:1007B40079FD801B4045F7D91CE7052B236A03D13B
:1007C40043F004032362BAE723F001032362236A9C
:1007D40023F00403B6E7FFF765FDA0EB0800B04281
:1007E400B6D907E7001002400000424280044242AA
:1007F4000C000020007000402A4B5A681C4602F08E
:100804000C02082A3DD00023274E022833602BD146
:10081400FFF748FD0746236899011FD42B6AB3F5F7
:10082400803F05D16268A96822F400320A436260FD
:10083400696A62680B4322F47412134363600123F0
:100844003360FFF72FFD054623689A013FF5A8AEF4
:10085400FFF728FD401B0228F6D9CBE6FFF722FD5F
:10086400C01B0228D7D9C5E6FFF71CFD054623683F
:100874009B017FF595AEFFF715FD401B0228F6D9C5
:10088400B8E601283FF4B7AE58682B6A00F480320A
:100894009A427FF471AE6B6A00F47010C01A18BFEC
:1008A4000120A8E6001002406000424230B5194B16
:1008B40087B002AC03F11005224618685968083362
:1008C40003C2AB421446F7D101238DF8043002234E
:1008D40011498DF805304B6803F00C02082A17D132
:1008E400C3F3834206A80244DB0312F8102C0CD590
:1008F4004B680A48C3F34043504306AA134413F811
:10090400143CB0FBF3F007B030BD05485043FAE7A0
:100914000248F8E7801400080010024000127A0030
:1009240000093D002DE9F0410D46044610B90120AF
:10093400BDE8F081454A136803F007038B4229D3CD
:1009440021688E0731D4CA0744D4404A136803F09F
:1009540007039D4267D322683D4D12F0040F6ED108
:10096400130706D56B68226923F4605343EAC20374
:100974006B60FFF79BFF6B68364AC3F30313D35CCA
:10098400D840354B1860354B1868FFF749FC0020F8
:10099400BDE8F081136823F007030B431360136869
:1009A40003F007039942C2D1CAE7294B11F0040F9F
:1009B4001EBF5A6842F4E0625A60080742BF5A6890
:1009C40042F460525A605A68A06822F0F00202436E
:1009D4005A60B8E762681E4E012A33681BD113F4CB
:1009E400003FA4D0736841F2883823F00303134313
:1009F4007360FFF757FC07467368626803F00C03E3
:100A0400B3EB820FA1D0FFF74DFCC01B4045F3D9D7
:100A14000320BDE8F081022A02D113F0007FE0E751
:100A240013F0020FDDE7136823F007032B43136071
:100A3400136803F007039D427FF479AF8BE76B687B
:100A4400E16823F4E0630B436B6089E70020024014
:100A540000100240901400080C0000200400002044
:100A6400F8B504460E4615461F4621688A6836EADC
:100A7400020301D00020F8BD6B1CF7D0FFF712FC75
:100A8400C01B8542F1D823685A6822F0E0025A60FC
:100A94006268B2F5827F0AD1A268B2F5004F02D033
:100AA400B2F5806F03D11A6822F040021A60A26A7C
:100AB400B2F5005F07D11A6822F400521A601A686E
:100AC40042F400521A60012384F8513000230320B9
:100AD40084F85030F8BD10B513460A468021044608
:100AE400FFF7BEFF20B10320636D43F0200363656D
:100AF40010BD10B50446002834D00023836290F85A
:100B0400513003F0FF021BB980F8502000F0E6FBDF
:100B14000223226884F851301368A06823F040034C
:100B240013606368A1690343E068034320690343D6
:100B340060690343E0690343206A0343A06A0343F3
:100B440001F40070090C034301F0040113605160C7
:100B5400D369002023F40063D3610123606584F822
:100B6400513010BD012010BD2DE9F3411E4690F80F
:100B740050300446012B0D46904600F09C80012322
:100B840080F85030FFF78EFB074694F85100C0B24E
:100B9400012840F08E80002D5ED0B8F1000F5BD0AC
:100BA4000323002084F85130A3686065A063A4F88F
:100BB4003680A087E087606420642068B3F5004F26
:100BC40008BF0368256308BF43F48043A4F8348056
:100BD40008BF036003685B065EBF036843F040031D
:100BE4000360E368B3F5006F63683ED113B1B8F1F5
:100BF400010F07D135F8023BC3602563E38E013B47
:100C04009BB2E386E38E9BB2A3B93A4631462046B3
:100C1400FFF761FF002849D1A36833B90193236822
:100C2400DA6801929B680193019B606D003018BFE4
:100C3400012011E022689368980705D5236B33F8E7
:100C4400021BD1602363D9E7FFF72CFBC01BB04222
:100C5400D8D3711CD6D00320012384F8513000234B
:100C640084F8503002B0BDE8F08113B1B8F1010F3F
:100C740008D12B780373236B01332363E38E013B89
:100C84009BB2E386E38E9BB2002BBED023689A68A6
:100C9400920703D5226B12781A73ECE7FFF702FB75
:100CA400C01B8642EED8731CECD0D4E720236365C6
:100CB400B2E70220D0E70220D4E7000000224FF47C
:100CC40080710148FFF74EBC000C0140012307B5B9
:100CD40002A901F8010D1A460248FFF745FF03B0C7
:100CE4005DF804FB3000002038B505460B4C0022AB
:100CF40020464FF48071FFF735FC00224FF4005179
:100D04000748FFF72FFC2846FFF7E0FF2046BDE821
:100D1400384001224FF48071FFF724BC000C0140DD
:100D24000020014038B505460B4C01224FF4005118
:100D34000A48FFF717FC00224FF480712046FFF7A2
:100D440011FC2846FFF7C2FF2046BDE838400122C7
:100D54004FF48071FFF706BC000C014000200140F5
:100D6400F8B5074616460D461C462A20FFF7BCFF79
:100D7400380AFFF7D7FFF8B2FFF7D4FF300AFFF7BE
:100D8400D1FFF0B2FFF7CEFF2B20FFF7ADFF280A0B
:100D9400FFF7C8FFE8B2FFF7C5FF200AFFF7C2FF5D
:100DA400E0B2FFF7BFFFBDE8F8402C20FFF79CBF7F
:100DB40010B50D4C00224FF400412046FFF7D2FB42
:100DC400C820FFF775FA00224FF480710748FFF737
:100DD400C9FBC820FFF76CFA2046BDE81040012289
:100DE4004FF40041FFF7BEBB00200140000C01405E
:100DF40010B504463620FFF777FF0120FFF758FAB5
:100E0400032C0DD8DFE804F0020D16184820FFF774
:100E140089FFF022094B1A804FF4A072084B1A8004
:100E240010BD2820FFF77EFF4FF4A072034B1A80F9
:100E3400F022F3E78820EAE7E820F3E70A0000203D
:100E44000800002001224FF400410148FFF78ABB4B
:100E54000020014008B5FFF7F5FFFFF72FFFFFF76C
:100E6400A7FF0120FFF740FF4FF47A70FFF720FA45
:100E7400CB20FFF739FF3920FFF754FF2C20FFF771
:100E840051FF0020FFF74EFF3420FFF74BFF0220F5
:100E9400FFF748FFCF20FFF727FF0020FFF742FFAF
:100EA400C120FFF73FFF3020FFF73CFFE820FFF7AA
:100EB4001BFF8520FFF736FF0020FFF733FF782064
:100EC400FFF730FFEA20FFF70FFF0020FFF72AFFAC
:100ED4000020FFF727FFED20FFF706FF6420FFF750
:100EE40021FF0320FFF71EFF1220FFF71BFF8120C5
:100EF400FFF718FFF720FFF7F7FE2020FFF712FF98
:100F0400C020FFF7F1FE2320FFF70CFFC120FFF7FD
:100F1400EBFE1020FFF706FFC520FFF7E5FE3E209D
:100F2400FFF700FF2820FFF7FDFEC720FFF7DCFED8
:100F34008620FFF7F7FE3620FFF7D6FE4820FFF79E
:100F4400F1FE3A20FFF7D0FE5520FFF7EBFEB1206B
:100F5400FFF7CAFE0020FFF7E5FE1820FFF7E2FEC8
:100F6400B620FFF7C1FE0820FFF7DCFE8220FFF762
:100F7400D9FE2720FFF7D6FEF220FFF7B5FE0020AA
:100F8400FFF7D0FE2620FFF7AFFE0120FFF7CAFED1
:100F9400E020FFF7A9FE0F20FFF7C4FE3120FFF782
:100FA400C1FE2B20FFF7BEFE0C20FFF7BBFE0E2078
:100FB400FFF7B8FE0820FFF7B5FE4E20FFF7B2FE9C
:100FC400F120FFF7AFFE3720FFF7ACFE0720FFF755
:100FD400A9FE1020FFF7A6FE0320FFF7A3FE0E20B4
:100FE400FFF7A0FE0920FFF79DFE0020FFF79AFE01
:100FF400E120FFF779FE0020FFF794FE0E20FFF7B3
:1010040091FE1420FFF78EFE0320FFF78BFE1120C4
:10101400FFF788FE0720FFF785FE3120FFF782FEE9
:10102400C120FFF77FFE4820FFF77CFE0820FFF772
:1010340079FE0F20FFF776FE0C20FFF773FE3120B8
:10104400FFF770FE3620FFF76DFE0F20FFF76AFEF4
:101054001120FFF749FE7820FFF72AF92920FFF72E
:1010640043FEBDE808400020FFF7C2BE2DE9F0476B
:101074004D00B5F5FA7F0C4634BF0C464FF4FA74B4
:1010840000AF804601224FF400512048FFF76AFA6E
:1010940000224FF480711E48FFF764FAE31D23F029
:1010A4000703ADEB030D6E4600234FEA18229C4262
:1010B40015D8B5FBF4F904FB1955B9F1000F14D197
:1010C4000A23AAB231461348FFF74EFD01224FF41A
:1010D40080710F48FFF746FABD46BDE8F087F11866
:1010E400F25481F801800233E1E74FF00008DFF8A1
:1010F40024A0A4B20A2322463146504608F101082E
:10110400FFF732FDC145F5D1DAE700BF0020014009
:10111400000C014030000020002170B50646094D46
:10112400094C2A88238808469BB292B2FFF718FE1E
:101134002B8821889BB289B23046BDE87040594360
:10114400FFF794BF0A0000200800002000B591B00A
:101154002822002106A800F07DF91422002101A80C
:1011640000F078F90223069301230A93102306A8BA
:101174000B93FFF7FDF900210F2301A801930291BE
:10118400039104910591FFF7CDFB11B05DF804FBC9
:1011940000B589B0FFF768F8FFF7D8FF10220021E7
:1011A4000DEB020000F056F9364B4FF460419A699A
:1011B400354842F004029A619A69002402F004025C
:1011C4000192019A9A69012542F480729A619A699E
:1011D400022602F480720292029A9A6942F008028C
:1011E4009A619B69002203F008030393039BFFF7B2
:1011F400B9F900224FF440712448FFF7B3F94FF4D2
:10120400604304A920480493059506940796FFF7C4
:10121400BDF84FF4407304A91C4804930595069443
:101224000796FFF7B3F84FF482731948194A84609C
:1012340080E80C004FF4007383610A23C460C36226
:1012440004614461C461046244628462FFF751FC36
:101254002A464FF480410C48FFF784F9FFF7FAFD62
:101264004FF47840FFF758FF4FF47A70FFF720F8F7
:101274004FF6FF70FFF750FF4FF47A70FFF718F83E
:10128400EEE700BF0010024000200140000C0140C6
:1012940030000020003001400E4B82B09A6942F0C9
:1012A40001029A619A6902F001020092009ADA69D5
:1012B40042F08052DA61DB69074A03F080530193FC
:1012C400019B536823F0E06343F00073536002B062
:1012D400704700BF001002400000014030B51024E8
:1012E400054687B02246002102A800F0B3F82A6818
:1012F400184B9A422CD103F560439A6902A942F42F
:1013040080529A619A69144802F480520092009AB9
:101314009A6942F008029A619B6903F008030193F9
:10132400019B282302930223039303230593FFF7CE
:101334002DF8002302A90848039304930294FFF7AD
:1013440025F8064A536843F0E06343F00103536011
:1013540007B030BD00300140000C014000000140E6
:101364007047FEE7FEE7FEE7FEE770477047704709
:10137400FEF78CBF0F4B1A6842F001021A605968DD
:101384000D4A0A405A601A6822F0847222F48032AC
:101394001A601A6822F480221A605A6822F4FE0243
:1013A4005A604FF41F029A604FF00062034B9A6038
:1013B400704700BF001002400000FFF800ED00E09D
:1013C400002103E00B4B5B58435004310A480B4B9C
:1013D40042189A42F6D30A4A02E0002342F8043B38
:1013E400084B9A42F9D3FFF7C5FF00F00FF8FFF757
:1013F400CFFE7047A8140008000000201000002051
:101404001000002088000020FEE7000070B50025D1
:101414000C4E0D4CA41BA410A54209D100F022F8D7
:1014240000250A4E0A4CA41BA410A54205D170BD88
:1014340056F8253098470135EEE756F82530984799
:101444000135F2E7A0140008A0140008A014000855
:10145400A414000803460244934200D1704703F8E1
:10146400011BF9E7F8B500BFF8BC08BC9E467047FD
:0C147400F8B500BFF8BC08BC9E467047ED
:1014800002030405060708090A0B0C0D0E0F1010C5
:101490000000000000000000010203040607080924
:0414A0000902000835
:0414A400E501000856
:1014A8000100000010000000F00040010024F400DA
:04000005080013C517
:00000001FF
