:020000040800F2
:1000000080080020DD01000867220008611F000849
:1000100065220008CB0700089D28000800000000AA
:10002000000000000000000000000000A522000801
:10003000310800080000000069220008A72200081B
:10004000F7010008F7010008F7010008F7010008B0
:10005000F7010008F7010008F7010008F7010008A0
:10006000F7010008F7010008F7010008F701000890
:10007000F7010008F7010008F7010008F701000880
:10008000F7010008F7010008F7010008F701000870
:10009000F7010008F7010008F7010008F701000860
:1000A000F7010008F7010008F7010008F701000850
:1000B000F701000829230008F7010008F7010008EC
:1000C000F7010008F7010008F7010008F701000830
:1000D000F701000891280008F7010008F70100085F
:1000E00033080008F7010008F7010008F7010008CD
:1000F000F7010008F7010008F7010008F701000800
:10010000F7010008F7010008F7010008F7010008EF
:10011000F7010008F7010008F7010008F7010008DF
:10012000F7010008F7010008F7010008F7010008CF
:1001300000F002F800F042F80AA090E8000C8244B7
:100140008344AAF10107DA4501D100F037F8AFF294
:10015000090EBAE80F0013F0010F18BFFB1A43F0A5
:1001600001031847BC2A0000DC2A0000103A24BF13
:1001700078C878C1FAD8520724BF30C830C144BF0C
:1001800004680C607047000000230024002500264E
:10019000103A28BF78C1FBD8520728BF30C148BFEA
:1001A0000B607047642900F09580732900F0768217
:1001B000002070471FB51FBD10B510BD00F0A0FA9C
:1001C0001146FFF7F7FF02F045FC00F0BEFA03B45A
:1001D000FFF7F2FF03BC00F0C5FA000009488047B2
:1001E00009480047FEE7FEE7FEE7FEE7FEE7FEE719
:1001F000FEE7FEE7FEE7FEE704480549054A064B31
:10020000704700002523000831010008800200200B
:100210008008002080040020800400200FB40449DE
:1002200010B503AA029800F03DFA10BC5DF814FB6B
:100230005800002070B5044685690068C10601D5E4
:10024000302600E02026C00707D070BDD4E9012188
:1002500030469047206A401C20626D1EF6D570BD66
:1002600070B5044685690078C00707D170BDD4E930
:10027000012120209047206A401C20626D1EF6D587
:1002800070BD70B50C460546012A05D02878800659
:1002900000D5EA69002302E0012305E05B1C9342DC
:1002A00002D2E05C0028F9D1A869E618C01AA8615A
:1002B000286A184428622846FFF7BCFF04E0D5E905
:1002C000012114F8010B9047B442F8D32846FFF7F8
:1002D000C7FF70BD2DE9F04106460024106875295E
:1002E000314616A510D0AFF30080002802DA404254
:1002F00013A507E031688A0701D512A502E0490776
:1003000004D511A5012401E0AFF3008000210A22E9
:1003100006F1240709E0B0FBF2FCB0FBF2F302FBAC
:100320001C00303078541846491C0028F3D123466D
:100330002A463046BDE8F04100F045B90000000013
:100340002D0000002B000000200000002DE9F047E8
:100350004FF0000A89460446C0F820A02046E16814
:100360008847002876D0252806D0D4E90121904777
:10037000206A401C2062F1E7E1682046002588479A
:10038000C4F81CA006460027C4F818A02A2E09D0DD
:10039000304602F094FA38B304EB8708303EC8F8D0
:1003A000186019E059F8041B204604EB870291619C
:1003B000E1688847012F064618D1E069002820DA55
:1003C00025F020051DE0D8F8180000EB800006EBB2
:1003D00040003038C8F818002046E16888470646D3
:1003E00002F06DFA0028EED1012F0AD02E2E08D18E
:1003F0002046E16888477F1C0646022F45F020050D
:10040000C4DBA069002803DA404245F00105A06181
:10041000E80701D025F01005B6B1A6F14100192872
:1004200002D8203645F400654A463146204625600C
:100430004D46FFF7B7FE58B1012806D0ED1D25F057
:10044000070000F1080989E704E005F1040985E7E0
:1004500030468AE7206ABDE8F08740EA010370B5BC
:100460009B072ED14FF00136042A2AD308C810C9A1
:100470009D1B9D43121F15EAC61517D0D8B2E1B2D5
:10048000401A50EA056110D198B2A1B2401A50EA60
:1004900005410AD123F07F4024F07F41401A50EA01
:1004A000052102D1180EA0EB146070BDA342DBD071
:1004B00018BA21BA884201D9012070BD4FF0FF302F
:1004C00070BD0AB9002070BD10F8013B11F8014B56
:1004D00063B1A3420AD1521E08D010F8013B11F8B3
:1004E000014B1BB1A34201D1521EEDD1181B70BDAF
:1004F0004FF0000200B5134694469646203922BFBD
:10050000A0E80C50A0E80C50B1F12001BFF4F7AF07
:10051000090728BFA0E80C5048BF0CC05DF804EBE9
:10052000890028BF40F8042B08BF704748BF20F857
:10053000022B11F0804F18BF00F8012B704700000C
:100540004FF0013C50F8042B51F8043B9A4221D162
:10055000A2EB0C03934313EACC1317D150F8042BEE
:1005600051F8043B9A4215D1A2EB0C03934313EAD2
:10057000CC130BD150F8042B51F8043B9A4209D10B
:10058000A2EB0C03934313EACC13DBD04FF0000033
:10059000704700BFD01A01BAB1FA81F101F0180119
:1005A00022FA01F0CB40C1F12001DBB2C0B2C01A87
:1005B0002CFA01F3D11A914311EAC311E6D1704725
:1005C0007047704770472DE9F0470D4699469246AF
:1005D000044600F124080168880604D5E06921F08A
:1005E0001001216000E00120A84201DD471B00E06E
:1005F0000027A1697A1902EB0900081AA061207886
:10060000C00602D42046FFF715FE002608E0D4E914
:1006100001211AF806009047206A401C761C2062CF
:100620004E45F4DB2078C0060AD52046FFF702FECF
:1006300006E0D4E9012130209047206A401C206266
:10064000381EA7F10107F4DC07E0D4E9012118F80E
:1006500005009047206A401C2062281EA5F1010574
:10066000F3DC2046FFF7FCFD2078000602D50220CF
:10067000BDE8F0870120FBE710B5436913B1AFF384
:10068000008001E0FFF7FDFD012010BD127800F1B0
:1006900024010A7000224A700122EDE711684FF030
:1006A000FF32E9E7074B70B50D467B4400F011F8C7
:1006B0000446284600F020F810B14FF0FF3070BD1E
:1006C000204670BD8F23000001694A1C0261087832
:1006D000704700B58FB0CDE9013100210591054982
:1006E0007944CDE9031011466846FFF72FFE0FB09D
:1006F00000BD0000E5FFFFFF007B00F080007047B9
:10070000754600F02BF8AE4605006946534620F0CA
:100710000700854618B020B5FFF76EFDBDE8204004
:100720004FF000064FF000074FF000084FF0000BAD
:1007300021F00701AC46ACE8C009ACE8C009ACE860
:10074000C009ACE8C0098D46704710B50446AFF348
:1007500000802046BDE81040FFF739BD00487047D3
:100760001C02002001491820ABBEFEE72600020053
:100770007047000070B5044600688168C943C90726
:1007800017D1816821F00101816000F06DFB054601
:100790000AE000BF00F068FB401B022804D9206873
:1007A0008068C043C00706D020688068C043C00787
:1007B000F0D0002070BDA06A40F01000A062E06A96
:1007C00040F00100E062012070BDFEE770B501213C
:1007D0000024154E23460CE0202A07D041B1082CF6
:1007E0000DD246F824000021641C01E003700121B1
:1007F000401C0278002AEFD164B10C4D07E06FF085
:10080000010070BD3068FFF79BFE30B10C352968E0
:100810000029F7D14FF0FF3070BD20466A68BDE86F
:100820007040014910470000F8010020000000203E
:1008300070474FF4004000F001BA0000F8B5002402
:10084000009490F824202546012A12D0012280F835
:1008500024204A681F23072A0DD20668776B521E90
:1008600002EB820293409F430B6893401F437763E0
:1008700019E00220F8BD06680D2A0AD2376BD21F94
:1008800002EB820293409F430B6893401F43376300
:1008900009E0F76A0D3A02EB820293409F430B682E
:1008A00093401F43F7620A68072306680A2A0AD39F
:1008B000F7680A3A02EB420293409F438B689340E9
:1008C0001F43F76008E0376902EB420293409F4301
:1008D0008B6893401F4337610A68102A01D0112AA0
:1008E00020D1124B02689A4217D193681B0219D487
:1008F000936843F4000393600968102912D10C49EE
:100900000C4A0968B1FBF2F101EB8101490000E0FA
:10091000491E00910029FBD104E0816A41F02001C9
:100920008162012480F824502046F8BD0024014053
:100930006800002040420F002DE9F04104004FF014
:1009400000057FD0A06A002628B9E66284F82460FA
:10095000204600F081F82046FFF70CFFA16AC90687
:1009600000D420B1A06A40F01000A0626AE0A16A41
:1009700021F4885141F00201A162334923688B427E
:10098000E16904D1B1F5402F01D14FF40021277B5B
:100990004FF4807C41EA470261680A43A1686145DF
:1009A00008D0012906D0002194F814E0BEF1010F0F
:1009B00002D00AE06146F7E7C7B1A76A47F020070F
:1009C000A762E76A47F00107E7625F6827F46947B3
:1009D0000F435F60236899681C4F39401143996049
:1009E000A16861450BD0012909D00CE0DFF860E077
:1009F000A7690EEB47370F4347F40061E5E7218A0B
:100A00000D05A5F580152168CB6A23F470032B43EF
:100A1000CB62216889680F4B1940914208D1E66288
:100A2000A16A21F0020141F00101A162BDE8F0815B
:100A3000A06A20F0020040F01000A062E06A40F0DE
:100A40000100E0620120F1E7003C0140FDF7E1FF19
:100A500000E0FFFFFE0E1FFF00B585B000210091F2
:100A600001910291039100680E49884218D10E4805
:100A7000816941F400718161816901F4007104911F
:100A8000816941F0100181618069694600F01000C0
:100A900004900120009003200190044800F0DAF84F
:100AA00005B000BD002401400010024000100140CC
:100AB00010B590F821100022022905D0042181638D
:100AC00080F82020012010BD01680B6823F00E0380
:100AD0000B6001680B6823F001030B6090F8403055
:100AE000C46B012101FA03F3636080F8211080F8E0
:100AF0002020104610BD00002DE9F05F90F8211075
:100B00000024022903D004218163012485E00168C7
:100B10000A6822F00E020A6001680A6822F00102E7
:100B20000A603F4E3E4FB215DFF8F4C0DFF8F09098
:100B3000DFF8ECA0DFF8E8B0DFF8E4E00168783F28
:100B400013011502ACF1640CA9F15009AAF13C0A99
:100B5000ABF1280BAEF1140E4FF48018B14227D937
:100B6000B9420ED0614512D049451DD0514518D02B
:100B7000594518D0714501D1424615E0294EB14280
:100B800001D1012210E0274E1436B14201D11022CA
:100B90000AE0244E2836B14206D0224A3C32914225
:100BA00001D11A4600E02A461E49091F0A602BE0BF
:100BB000B94213D0614517D0494522D051451DD0C7
:100BC00059451DD0714501D142461AE0B14202D1CA
:100BD0004FF0807215E0134EB14201D1012210E0B6
:100BE000104E1436B14201D110220AE00D4E2836C3
:100BF000B14206D00B4A3C32914201D11A4600E084
:100C00002A46074980394A60012180F821100021D5
:100C100080F82010416B01B188472046BDE8F09F65
:100C20008000024008040240B0F5004F03D10421C7
:100C3000014800F00BB97047001C0140044910B591
:100C40000A68024202D00860FFF7EEFF10BD000004
:100C5000140401402DE9F84FDFF8C891002409F190
:100C6000040A0AF1040B23460F270BF1040ED1E00E
:100C70000125A54006EA0502AA4276D1DFF8A8C1FF
:100C80004E68A6EB0C0866452BD00DDC032E34D045
:100C900005DC36B3012E19D0022E2FD11BE0112E08
:100CA00016D0122E2AD119E0B8F5881F19D006DC0B
:100CB000B8F5803F15D0B8F5801F1FD111E0B8F509
:100CC000001F0ED0B8F5041F18D10AE0CB6815E05C
:100CD000CB681B1D12E0CB6808330FE0CB680C33E8
:100CE0000CE08B682BB1012B4FF0080303D045615A
:100CF00004E0042302E0056100E00023FF2A01D89C
:100D0000064601E000F104064FEA840501D9A5F189
:100D10002005D6F8008007FA05FC28EA0C0803FA3B
:100D200005F548EA0508C6F800804D68ED0070D565
:100D30003E4DAE6946F00106AE61AD6924F0030692
:100D400005F0010500953A4D06EB050CDCF808505E
:100D5000A607360F07FA06F825EA0805DFF8D4805B
:100D6000404503D14FF0000825E052E0DFF8C8808D
:100D7000404502D14FF001081DE0DFF8C08040453A
:100D800002D14FF0020816E0DFF8B480404502D1EE
:100D90004FF003080FE0DFF8AC80404502D14FF080
:100DA000040808E0DFF8A080404502D14FF00508B4
:100DB00001E04FF0060808FA06F848EA0508CCF802
:100DC00008804D68D9F80060ED034D4601D5164303
:100DD00000E096432E604D68DAF80060AD0355469A
:100DE00001D5164300E096432E604D68DBF80060A5
:100DF000ED025D4601D5164300E096432E604D6836
:100E0000DEF80060AD02754601D5164300E096435A
:100E10002E60641C0A681646E2407FF429AFBDE8E4
:100E2000F88F000000040140000011100010024083
:100E30000000014000080140000C0140001001408A
:100E40000014014000180140001C0140C26821EA62
:100E500002030A4043EA0241016170470AB101619D
:100E600070470904FBE700000148806870470000F4
:100E70005C0000200248816802781144816070475C
:100E80005C000020074810B5016841F010010160C6
:100E9000032000F075F8002000F006F800F024F8B8
:100EA000002010BD0020024070B50D4D04464FF4E7
:100EB0007A712878B1FBF0F00A490968B1FBF0F0CB
:100EC00000F062FB48B9102C07D200222146501EC8
:100ED00000F036F800206C6070BD012070BD00008D
:100EE0005C000020680000200C4808B5816941F0D2
:100EF00001018161816901F001010091C16941F045
:100F00008051C161C06900F0805000900448416880
:100F100021F0E06141F00071416008BD0010024025
:100F200000000140002809DB00F01F020121914070
:100F30004009800000F1E020C0F800117047000077
:100F4000F0B40E4B1B680C46C3F30223C3F1070534
:100F5000042D00D90425191D072901D2002300E022
:100F6000DB1E012606FA05F1491E214099409E40EC
:100F7000761E16403143F0BC01F091BC0CED00E050
:100F8000064900F0070208684FF6FF03184040EAE0
:100F90000220034A10430860704700000CED00E097
:100FA0000000FA052DE9F84305460078354CC007E6
:100FB00054D0E0690026C00008D4E06940F08050B9
:100FC000E061E069012600F0805000902E48016841
:100FD000C90512D40168804641F480710160FFF7B1
:100FE00043FF074605E000BFFFF73EFFC01B642834
:100FF00023D8D8F80000C005F6D5206A10F4407058
:1010000021D0A98801F4407181421CD0206A1F4977
:10101000012220F440700A6000220A602062C007AA
:1010200011D0FFF721FF074641F2883808E000BFE2
:10103000FFF71AFFC11B414502D90320BDE8F88321
:10104000206A8007F4D5206A696820F4407008435C
:1010500020621EB1E06920F08050E06128788007AE
:1010600005D56068A96820F440400843606028788E
:10107000C00605D56068696920F480000843606097
:101080000020DBE7001002400070004040044242B4
:101090002DE9F0470F46050061D0434E306800F05F
:1010A0000700B84209D2306820F0070038433060AA
:1010B000306800F00700B84251D128683B4C8107E6
:1010C00012D5400703D5606840F4E060606028787E
:1010D000000703D5606840F4605060606068A968EC
:1010E00020F0F000084360602878C00728D06868C6
:1010F000012810D02168022810D0890700292EDA93
:10110000616821F0030101436160FFF7ADFE804695
:1011100041F288390DE021688903EFE78901EDE7A5
:10112000FFF7A2FEA0EB0801494502D90320BDE864
:10113000F0876068696800F00C00B0EB810FEFD1B8
:10114000306800F00700B8420BD9306820F0070083
:1011500038433060306800F00700B84201D0012009
:10116000E5E72878400705D56068E96820F4E06085
:10117000084360602878000706D56068296920F474
:10118000605040EAC100606000F038F86168084AC9
:10119000C1F30311515CC840064908600648006865
:1011A000FFF782FE0020C2E700200240001002404C
:1011B000542B000868000020600000200448054906
:1011C00000684968044AC1F30221515CC840704775
:1011D0006800002000100240642B00080448054904
:1011E00000684968044AC1F3C221515CC840704795
:1011F0006800002000100240642B000812A185B096
:101200000FC98DE80F0014A0144A006804905168BB
:10121000134801F00C03042B10D0082B0ED1C1F39E
:101220008343C9031DF803000AD5516804AAC1F31A
:101230004041515C0A4A5043B0FBF1F005B07047A1
:1012400008494843FAE700000203040506070809B5
:101250000A0B0C0D0E0F10100102000000100240CE
:1012600000127A0000093D002DE9F84F040070D00B
:101270002078C04DC00749D06868C0F381000128BC
:1012800007D06868C0F38100022809D16868C003EC
:1012900006D52868800339D560680028E7D035E096
:1012A0006068B0F5803F0BD010B1B0F5A02F11D021
:1012B000286820F480302860286820F4802002E02C
:1012C000286840F480302860606890B1FFF7CCFD5A
:1012D00006460AE0286840F480202860F0E700BF56
:1012E000FFF7C2FD801B642873D828688003F7D5F8
:1012F0000CE0FFF7B9FD064605E000BFFFF7B4FDBF
:10130000801B6428F0D828688003F7D420789A4E90
:1013100080074FF001094FF0000839D5686810F0D8
:101320000C0F07D06868C0F38100022809D16868F3
:10133000C00306D42868800714D52069012808D185
:1013400010E02069B0B1C6F80090FFF78DFD0746A8
:1013500005E00AE1FFF788FDC01B0228C4D8286811
:101360008007F7D52868616920F0F80040EAC100DD
:1013700028600DE0C6F80080FFF776FD074604E020
:10138000FFF772FDC01B022823D828688007F7D416
:10139000207800072CD57948A169D9B1C0F8009010
:1013A000FFF762FD074604E0FFF75EFDC01B022861
:1013B0000FD8686A8007F7D571484FF4FA51006872
:1013C000B0FBF1F0009000BF0098411E0091FAD2EE
:1013D0000EE080E0C0F80080FFF746FD074604E01D
:1013E000FFF742FDC01B022875D8686A8007F7D452
:1013F0002078400760D5E8690027C00008D4E86974
:1014000040F08050E861E869012700F080500090CA
:101410005C480168C90513D40168834641F48071B2
:101420000160FFF721FD824606E000BFFFF71CFDCB
:10143000A0EB0A0064284ED8DBF80000C005F5D503
:10144000E06801280AD008B1052813D0286A20F0E6
:1014500001002862286A20F0040002E0286A40F0B7
:1014600001002862E06841F2883B98B1FFF7FCFC7C
:1014700082460BE0286A40F004002862EEE700BFD5
:10148000FFF7F2FCA0EB0A0159455AD8286A8007F9
:10149000F6D50CE0FFF7E8FC824605E0FFF7E4FC38
:1014A000A0EB0A0159454CD8286A8007F6D41FB131
:1014B000E86920F08050E861E06988B36968C1F3A9
:1014C0008101022944D00228C6F8608004D0FFF7C9
:1014D000CBFC044638E034E0FFF7C6FC074604E0E6
:1014E000FFF7C2FCC01B02282BD828688001F7D464
:1014F000206AB0F5803F05D16868A16820F400300B
:1015000008436860D4E908010843696821F474114C
:1015100008436860C6F86090FFF7A6FC044606E042
:1015200025E000BFFFF7A0FC001B022809D82868AF
:101530008001F7D51BE000BFFFF796FC001B0228D7
:1015400002D90320BDE8F88F28688001F4D40EE0AA
:101550000128F7D06868226A00F48031914204D1F2
:10156000616A00F47010884201D00120EAE700208F
:10157000E8E70000001002400000424280044242BE
:10158000680000200070004010B5401EB0F1807F60
:1015900001D3012010BD4FF0E02460610F216017DE
:1015A00001F07DF90020A06107202061002010BD1E
:1015B0007047704770B590F83C20012A32D0012462
:1015C00080F83C40022280F83D2003685A689D68FC
:1015D00022F070060A6832435A60134B02689A423E
:1015E00014D0124B9A4211D0B2F1804F0ED0104B52
:1015F0009A420BD00F4B9A4208D00F4B9A4205D01B
:101600000E4B9A4202D00E4B9A4204D1496825F003
:1016100080031943916080F83D40002180F83C1020
:10162000084670BD022070BD002C0140003401400E
:101630000004004000080040000C0040004C014045
:101640000018004010B5040003D094F83D0010B11C
:1016500007E0012010BD002084F83C00204600F087
:101660001FF8022084F83D00211D206800F062FE72
:10167000012084F8460084F83E0084F83F0084F896
:10168000400084F8410084F8420084F8430084F864
:10169000440084F8450084F83D00002010BD00009F
:1016A00008B500680B49884212D10B48C16941F066
:1016B0000201C161C069002200F0020000901146E1
:1016C0001D20FFF73DFCBDE808401D20FFF72ABCA8
:1016D00008BD0000000400400010024090F83D10DA
:1016E000012901D001207047022180F83D100168D6
:1016F000CA6842F00102CA6000681149884214D0E9
:101700001049884211D0B0F1804F0ED00E49884266
:101710000BD00E49884208D00D49884205D00D49AA
:10172000884202D00C49884204D1816801F0070147
:10173000062903D0016841F00101016000207047D3
:10174000002C01400034014000040040000800402B
:10175000000C0040004C01400018004070B50446E9
:1017600090F83C00012817D0012584F83C50022055
:1017700084F83D002068826822F0770222F47F42DC
:1017800082600868502830D00DDC20284DD005DC60
:1017900098B310283BD148E0022070BD302844D0D7
:1017A000402834D139E0602828D0702806D0B0F520
:1017B000805F2CD0B0F5005F29D10AE0CB68D1E979
:1017C0000121206800F01AFE2068816841F077014D
:1017D00009E0CB68D1E90121206800F00FFE206804
:1017E000816841F48041816011E0CA6849682068DD
:1017F00000F0D8FE5021206807E016E0CA6849686A
:10180000206800F0E0FE6021206800F001FE84F80E
:101810003D50002084F83C0070BDCA6849682068CB
:1018200000F0C0FE40212068EFE722680146104624
:10183000EBE7704770B50446006801694FF000059A
:10184000C943890715D4C168C943890711D4E91E62
:10185000016101202077206880698007204602D03E
:10186000FFF7E7FF04E000F0E1F8204600F090F910
:10187000257720680169C943490717D4C168C9435E
:10188000490713D46FF0040101610220207720681A
:10189000806910F4407F204602D0FFF7CAFF04E0C1
:1018A00000F0C4F8204600F073F92577206801693C
:1018B000C943090716D4C168C943090712D46FF098
:1018C00008010161042020772068C0698007204654
:1018D00002D0FFF7AEFF04E000F0A8F8204600F0C9
:1018E00057F9257720680169C943C90617D4C1682B
:1018F000C943C90613D46FF0100101610820207795
:101900002068C06910F4407F204602D0FFF791FFA5
:1019100004E000F08BF8204600F03AF925772068C3
:101920000169C943C90708D1C168C943C90704D1BE
:10193000891E0161204600F02DF920680169C94324
:10194000090609D4C168C943090605D46FF08001AE
:1019500001612046FFF72CFE20680169C943490652
:1019600009D4C168C943490605D46FF0400101613B
:10197000204600F01DF920680169C94389060BD48F
:10198000C168C943890607D46FF020010161204670
:10199000BDE87040FFF70DBE70BD000000B585B01A
:1019A000002100910191029103911A4B02681A489B
:1019B00002219A4219D1826942F020028261806933
:1019C000039100F0200004904FF4E040CDE90001C5
:1019D00069461248FFF73EF91148416841F0E0615D
:1019E00041F48051416005B000BD0E4B9A42FAD1DE
:1019F000826942F0040282618069039100F0040070
:101A000004900720CDE9000169460748FFF722F955
:101A1000E9E7000000080040001002400014014007
:101A200000000140000C004000080140704770B504
:101A3000044690F83C000D4601280AD0012084F8A5
:101A40003C0042B1042A18D0082A2AD00C2A4DD1D1
:101A500039E0022070BD206800F0E2FC2068816956
:101A600041F0080181612068816921F004018161F0
:101A7000206881692A69114311E0206800F000FDA7
:101A80002068816941F4006181612068816921F4E5
:101A900080618161206881692A6941EA022181614E
:101AA00024E0206800F022FD2068C16941F00801AF
:101AB000C1612068C16921F00401C1612068C16968
:101AC0002A69114311E0206800F044FD2068C169D3
:101AD00041F40061C1612068C16921F48061C16184
:101AE0002068C1692A6941EA0221C161002084F8A5
:101AF0003C0070BD10B5040003D094F83D0010B157
:101B000007E0012010BD002084F83C00204600F0D2
:101B10001FF8022084F83D00211D206800F00AFC17
:101B2000012084F8460084F83E0084F83F0084F8E1
:101B3000400084F8410084F8420084F8430084F8AF
:101B4000440084F8450084F83D00002010BD0000EA
:101B500008B50C4A01680C48914207D1C16941F0AF
:101B60000401C161C06900F0040009E0074A914224
:101B700007D1C16941F00801C161C06900F00800E6
:101B8000009008BD0008004000100240000C00401A
:101B90007047000000680449884203D102210348CD
:101BA000FFF754B97047000000040040001C0140DA
:101BB0007047704770470000F8B502680446106827
:101BC000D168536910F00F0F4FF0000553D003F0A8
:101BD000010601F4907737435FD0C20705D0CA05EC
:101BE00003D5226C42F001022264420705D5DA07D0
:101BF00003D0226C42F002022264820705D5DA0784
:101C000003D0226C42F004022264020707D501F0DF
:101C10002002324303D0226C42F008022264226C7C
:101C2000002A34D0800604D5880602D5204600F06C
:101C3000FCFC20684069216CC0F38010090700D4C7
:101C400030B3204600F0D9FC2068416949061BD515
:101C5000416921F040014161A06BA8B1584941633D
:101C6000A06BFEF749FF002811D0A06B416B01B0BB
:101C7000BDE8F040084783060FD58B060DD52046FA
:101C8000BDE8F84000F0D1BC2046FFF793FFF8BD57
:101C90002046FFF78FFF2564F8BD266B2023012E19
:101CA00052D1C60650D5CE064ED510685068009069
:101CB000506940062AD5A16B086840680004000CF2
:101CC000EAD0A68D8642E7D9E0858869202818D019
:101CD000D06820F48070D0602068416921F0010153
:101CE00041612068416921F04001416184F83E3042
:101CF00025632068C16821F01001C160A06BFEF768
:101D0000D7FEA08DE18D401A81B219E0A08DE18D42
:101D1000401A81B2E08D0028BED00029BCD0D06826
:101D200020F49070D0602068426922F00102426184
:101D300084F83E3025632068C26822F01002C26039
:101D40002046FFF736FFF8BD05062BD50D0629D531
:101D500094F83D002128F6D1A068B0F5805F01D14C
:101D60002069B0B1206A411C216221680078486076
:101D7000E08C401E0004000CE084E4D12068C168BF
:101D800021F08001C1602068C16841F04001C1605C
:101D9000F8BD206A0088C0F308005060206A801CEB
:101DA0002062E5E74006F3D54806F1D5D168204624
:101DB00021F04001D16084F83D3000F0D0F8F8BD4A
:101DC000EB25000870B5040004D094F83D00002510
:101DD00010B106E0012070BD84F83C50204600F0B0
:101DE00023F8242084F83D002068C16821F40051C4
:101DF000C160204600F074FC2068016921F4904124
:101E000001612068416921F02A0141612068C168AF
:101E100041F40051C1602564202084F83D0084F81D
:101E20003E00002070BD000030B585B00024009455
:101E30000194029403940068184988422CD11848F0
:101E4000816941F480418161816901F4804104919B
:101E5000816941F0040181618069124D00F0040044
:101E600004904FF400700090022001900320039032
:101E700069462846FEF7EEFE2815CDE900046946BE
:101E800028460294FEF7E6FE002211462520FFF7C1
:101E900057F82520FFF746F805B030BD003801405F
:101EA0000010024000080140704700002DE9F8438F
:101EB000044690F83D001F4616460D4620284CD19A
:101EC000C5B1BEB194F83C00012846D0012084F889
:101ED0003C004FF00008C4F84080212084F83D0009
:101EE000FEF7C2FFA6848146E684A068B0F5805F55
:101EF00003D004E00120BDE8F883206928B12E4614
:101F00005FF0000584F83C800EE00026FAE78021AF
:101F1000204600F041FCA0B9AEB116F8010B2168D3
:101F20004860E08C401EE084E08C4B464FF000029D
:101F300000970028EBD14FF04001204600F02CFC28
:101F400030B10320D7E735F8020BC0F30800E6E70D
:101F5000202084F83D000020CDE70220CBE7704729
:101F6000FEE700003EB5002411480094019402945D
:101F70000E498460016004730475012505614FF406
:101F800060214460C161FEF7D7FC08B172B6FEE77C
:101F90000A20CDE90005694602940548FEF74EFC8B
:101FA000002801D072B6FEE73EBD000000240140CB
:101FB0006C0000202DE9F04786B0002442480094D0
:101FC000019402940394816941F040018161816927
:101FD00001F040010491816941F0800181618169D2
:101FE00001F080010491816941F0100181618169F2
:101FF00001F010010491816941F00401816181695E
:1020000001F004010491816941F02001816181693D
:1020100001F020010491816941F48071816180693E
:10202000DFF8A88000F480704FF6FF75049000225E
:1020300029464046FEF712FFDFF894900022FF2168
:102040004846FEF70BFFDFF88CA04FF4E157002263
:1020500039465046FEF702FF0095022601250396F9
:10206000CDE9015469464046FEF7F4FDFF20CDE975
:102070000005CDE9024669464846FEF7EBFD4FF400
:10208000FE40CDE90004694648460294FEF7E2FDB1
:10209000E80300901048CDE9010469464846FEF780
:1020A000D9FD00970396CDE9015469465046FEF7E5
:1020B000D1FD002211462820FEF742FF2820FEF71E
:1020C00031FF06B0BDE8F087001002400018014063
:1020D000001C0140002001400000111010B586B026
:1020E0000024174800940194029403940494134923
:1020F000059401604FF43471C0E901144CF2503181
:10210000C0E903148461FFF79DFA08B172B6FEE7D7
:102110004FF48050009069460948FFF71FFB08B153
:1021200072B6FEE7049404A905480594FFF742FA45
:10213000002801D072B6FEE706B010BD00040040D2
:102140009C00002010B58AB0002407941C2168462A
:102150000894FEF7CDF91E481C4901604821C0E9EA
:102160000114C821C0E903148461FFF7C3FC08B15E
:1021700072B6FEE7079407A915480894FFF71AFA04
:1021800008B172B6FEE76020CDE900040294002297
:1021900069460F480494FFF74AFC08B172B6FEE79F
:1021A000042269460A48FFF742FC08B172B6FEE70E
:1021B000082269460648FFF73AFC08B172B6FEE706
:1021C0000348FFF7EBFB0AB010BD00000008004019
:1021D000E400002010B58AB0002407941C21684652
:1021E0000894FEF785F91E481C4901604821C0E9A2
:1021F0000114C821C0E903148461FFF77BFC08B116
:1022000072B6FEE7079407A915480894FFF7D2F9BC
:1022100008B172B6FEE76020CDE900040294002206
:1022200069460F480494FFF702FC08B172B6FEE756
:10223000042269460A48FFF7FAFB08B172B6FEE7C6
:10224000082269460648FFF7F2FB08B172B6FEE7BE
:102250000348FFF7A3FB0AB010BD0000000C0040CC
:102260002C010020FEE7FEE77047000004480068EC
:1022700001688906FCD54068C0F30800704700007B
:1022800074010020064A11680B681B06FCD5C3B216
:102290004B6011680A68D2435206FBD470470000B5
:1022A000740100207047FEF7E5BD30B595B02821D8
:1022B0006846FEF71DF914210AA8FEF719F918213E
:1022C0000FA8FEF715F901210804CDE9001000253B
:1022D000029502240491CDE907404FF4E0100990E3
:1022E0006846FEF7C1FF08B172B6FEE70AA90F20E3
:1022F00081E831004FF48060CDE90D0502210AA884
:10230000FEF7C6FE08B172B6FEE74FF4004011902A
:102310000F940FA8FEF746FE002801D072B6FEE724
:1023200015B030BD704700000148FFF783BA0000C8
:102330009C000020F0B50268254C264D264E274F04
:10234000274B4FF0804CA04209D0984207D06045FF
:1023500005D0A84203D0B04201D0B84204D122F047
:10236000700E4A6842EA0E02A0421BD0984219D071
:10237000604517D0A84215D0B04213D0B84211D052
:10238000184DA8420ED0184DA8420BD0174DA842A8
:1023900008D0174DA84205D0164DA84202D0164DC0
:1023A000A84203D122F44075CA682A434D6922F03D
:1023B00080022A4302608A68C2620A688262A0427E
:1023C00001D0984201D10969016301214161F0BD49
:1023D000002C01400004004000080040000C0040B8
:1023E00000340140004C01400050014000540140C5
:1023F00000180040001C00400020004010B5846818
:1024000042EA032224F47F440A432243826010BD3F
:10241000826822F070020A4342F00701816070472F
:10242000F0B5026A22F001020262036A426884691E
:10243000124E24F073050C682C4323F002058B68C0
:102440002B430D4DA84201D0B04205D123F008071F
:10245000CB683B4323F00403A84201D0B04205D12E
:102460004D6922F4407215438A692A4342608461AF
:10247000496841630362F0BD002C01400034014013
:10248000F0B5026A22F010020262026A43688469AF
:102490000D6824F4E64444EA05248D6822F0200205
:1024A00042EA05120F4D104EA84201D0B04206D1AB
:1024B000CF6822F0800242EA071222F04002A842CE
:1024C00001D0B04207D14D6923F4406343EA85034C
:1024D0008D6943EA850343608461496881630262D0
:1024E000F0BD0000002C014000340140F0B5026A4C
:1024F00022F480720262026A4368C46922F40072A4
:1025000024F073050C68124E2C438D6842EA0522B4
:102510000E4DA84201D0B04206D1CF6822F400622D
:1025200042EA072222F48062A84201D0B04207D1D9
:102530004D6923F4405343EA05138D6943EA0513BB
:102540004360C4614968C1630262F0BD002C014070
:102550000034014030B5026A22F480520262046AFB
:102560004268C3690D6823F4E64343EA05238D6896
:1025700024F4005444EA0534084DA84202D0084D22
:10258000A84204D14D6922F4804242EA8512426099
:10259000C36149680164046230BD0000002C014041
:1025A0000034014010B5036A046A24F00104046297
:1025B000846924F0F00444EA021423F00A020A4376
:1025C0008461026210BD10B5036A23F01003036238
:1025D0008369046A23F4704343EA023224F0A003BF
:1025E00043EA01118261016210BD10B5406A002109
:1025F000C185C184FFF7DEFA10BD0168CA6822F404
:102600009072CA6001684A6922F001024A61016B56
:10261000012904D10168CA6822F01002CA60202191
:1026200080F83E1000210163704708B590F83E1015
:10263000222901D0022008BD82684FF480539A42BB
:1026400001D1016921B1816A9A421BD04AB10AE0E5
:102650000268816A5268C2F308020A80816A891C92
:1026600008E0026972B10268526802F07F020A70E3
:10267000816A491C8162C18D491E0904090CC1850A
:1026800003D019E002685268F1E70168CA6822F0D5
:102690002002CA600168CA6822F48072CA600168B8
:1026A0004A6922F001024A61202180F83E10016B44
:1026B000012903D0FFF7F8FB002008BD00210163CA
:1026C0000168CA6822F01002CA6001680A68D2066E
:1026D00002D50A6849680091818DFFF76AFAEBE735
:1026E00070B5044600680169E26821F44051114365
:1026F00001612169A0680843616908432168CA68CB
:1027000041F20C639A430243CA6020684169A2699E
:1027100021F44071114341611E492068884202D171
:10272000FEF75CFD01E0FEF749FD00EBC00101EBA7
:102730000012606864218000B2FBF0F3B3FBF1F398
:102740006FF018067343B2FBF0F5B2FBF0F605EB41
:102750008305322303EB0515B5FBF1F5B6FBF1F666
:1027600005F0F00505EB0615B2FBF0F6B2FBF0F054
:10277000B0FBF1F06FF01802504306EB800003EB62
:102780000010B0FBF1F0216800F00F0028448860D1
:1027900070BD0000003801402DE9F0419846174611
:1027A0000E460446069D1DE0681C1BD02DB1FEF7A9
:1027B0005BFBA0EB0800A84214D92068C16821F493
:1027C000D071C1602068416921F001014161202080
:1027D00084F83D0084F83E00002084F83C0003208B
:1027E000BDE8F0812068006836EA000004D00020CF
:1027F000B842D9D00020F3E70120F9E72DE9F041F4
:1028000000240646A1F101082746144DFFF72EFDCE
:1028100040B208280CD00A2812D00D2814D01B284A
:1028200014D04445F2D23055641CFFF72BFDEDE780
:10283000002CEBD003210AA000F016F8641EE5E797
:10284000287818B12F70E1E7012028703755022150
:1028500004A000F009F82046BDE8F08154000020F3
:10286000082008000D0A000070B50E460546002439
:1028700009E0285D0A2802D10D20FFF703FD285D3D
:10288000FFF700FD641CB442F3D3204670BD000086
:102890000148FFF791B9000074010020FEE7090725
:1028A000090E002804DB00F1E02080F800147047D6
:1028B00000F00F0000F1E02080F8141D7047303860
:1028C0000A2801D2012070470020704770B50546E4
:1028D0000024022214A1FDF7C0FD38B1022213A189
:1028E0002846FDF7BAFD08B10A2017E01020AD1CFC
:1028F00014E000BFA1F13002092A02D804FB002431
:102900000CE0A1F16102052A01D8573904E0A1F1D8
:102910004102052A06D8373904FB001415F8011BBB
:102920000029E7D1204670BD305800003078000003
:1029300010B509A0FDF772FC0DA0FDF76FFC124C5D
:1029400004E012A0A268FDF769FC0C34216800299C
:10295000F7D1002010BD00000A417661696C616208
:102960006C6520636F6D6D616E64730A0D0000000D
:102970002D2D2D2D2D2D2D2D2D2D2D2D2D2D2D2D87
:102980002D2D0A0D00000000000000202536733AAE
:102990002025730A0D00000010B5022803D006A000
:1029A000FDF73CFC06E04868FFF790FFC1B206481F
:1029B000FEF74CFA002010BD20696E7620205B6E79
:1029C000756D5D0A0D000000001C014010B5022865
:1029D00003D007A0FDF722FC07E04868FFF776FF69
:1029E000C1B200220648FEF739FA002010BD0000EF
:1029F000206F666620205B6E756D5D0A0D0000001D
:102A0000001C014010B5022803D007A0FDF706FC0A
:102A100007E04868FFF75AFFC1B201220648FEF7F7
:102A20001DFA002010BD0000206F6E20205B6E7527
:102A30006D5D0A0D00000000001C014013B54FF64B
:102A4000FF73012269460248FFF730FA00981CBD67
:102A500074010020FEF716FAFFF727FCFFF7AAFA29
:102A6000FFF73CFB1D481C490C2201604FF4E1318B
:102A7000416000218160C160C0E904128161C161CF
:102A8000FFF7A0F908B172B6FEE7FFF76BFAFFF7A0
:102A900059FBFFF79FFB1148D838FEF71FFE10487F
:102AA000FDF7BCFB41220FA111A0FDF7B7FB17A05A
:102AB000FDF7B4FB40211748FFF7A0FE1548FDF7CE
:102AC00085FE411C05D0801CF1D113A0FDF7A6FBAB
:102AD000EDE71CA0FAE70000003801407401002077
:102AE0006C2B00084E6F76203136203230323100A8
:102AF0000A0D2044415441203A202573202C204CBB
:102B0000494E45203A2025640A0D0000636D643E5D
:102B100020000000B8010020546F6F206D616E79B5
:102B200020617267756D656E747320666F722063C5
:102B30006F6D6D616E642070726F636573736F7219
:102B4000210A0D0042616420636F6D6D616E642126
:102B50000A0D000000000000000000000102030454
:102B60000607080900000000010203040A0D2055B1
:102B7000415254205072696E7466204578616D70C0
:102B80006C653A207265746172676574207468655B
:102B90002043206C696272617279207072696E7470
:102BA000662066756E6374696F6E20746F2074683A
:102BB0006520554152540A0D000000003F000000FE
:102BC0004C4544204F4646004C4544204F4E0000A3
:102BD0004C454420546F67676C6500006F66660063
:102BE000680000006F6E0000616C69617320666FA1
:102BF000722068656C70000068656C7000000000F1
:102C0000446973706C6179206C697374206F6620FD
:102C1000636F6D6D616E647300000000696E760015
:102C2000402C0008000000206C0000006C0100082F
:102C3000AC2C00086C00002014080000880100087B
:102C4000F82B000831290008002C0008E02B0008B0
:102C500031290008E82B0008BC2B000831290008A6
:102C6000E82B0008E42B0008052A0008C82B000800
:102C7000DC2B0008CD290008C02B00081C2C000804
:102C800099290008D02B0008000000000000000077
:102C90000000000000000000000000000100000033
:0C2CA00010000000000000000024F40000
:0400000508000131BD
:00000001FF
